:100000000C9446000C9465000C9465000C946500FB
:100010000C9465000C9465000C9465000C946500CC
:100020000C9465000C9465000C9465000C946500BC
:100030000C9465000C94EA020C9465000C94650025
:100040000C9465000C9465000C9465000C9465009C
:100050000C9465000C9465000C9465000C9465008C
:100060000C9424020C9465000C9465000C946500BB
:100070000C9465000C9465000C9465000C9465006C
:100080000C9465000C9465000C94650011241FBE4F
:10009000CFEFD0E4DEBFCDBF11E0A0E0B1E0ECE7F0
:1000A000F8E000E00BBF02C007900D92A030B1074E
:1000B000D9F711E0A0E0B1E001C01D92A735B1076A
:1000C000E1F70E9472000C943C040C9400000E9422
:1000D0008B020E947E000E94D302789481E080937C
:1000E000150108950E94670081E0809301018091CD
:1000F00006018823E1F30E94F902F9CF109236013C
:1001000010920001109233011092340110923501C7
:10011000109216013C9839983D983A983B98389837
:100120002798269821982098539852988AB1806CE5
:100130008AB95E985F9808951F990AC08091360128
:10014000882341F41F9906C081E08093360102C0E4
:10015000109236011E9913C080910001882389F402
:1001600088EE93E028EC30E0F9013197F1F7019740
:10017000D9F71E9906C081E08093000102C0109259
:10018000000119990AC080913301882341F419991B
:1001900006C081E08093330102C0109233011899A8
:1001A0000AC080913401882341F4189906C081E087
:1001B0008093340102C0109234014B990AC080919F
:1001C0003501882341F44B9906C081E080933501C5
:1001D00002C0109235014A990AC080911601882305
:1001E00041F44A9906C081E0809316010895109267
:1001F00016010895882311F45E9808955E9A089573
:10020000882311F45F9808955F9A089585E080939C
:10021000010184E461E071E041E050E00E94840368
:10022000089586E08093010184E461E071E041E09B
:1002300050E00E94840308955E9884E08093010159
:1002400084E461E071E041E050E00E94840308959D
:100250005E9A83E08093010184E461E071E041E013
:1002600050E00E94840308955F9882E0809301012A
:1002700085E48093020184E461E071E042E050E0B3
:100280000E94840308955F9A81E08093010184E4D1
:1002900061E071E041E050E00E9484030E94AD0300
:1002A000089580913601813029F40E94430182E053
:1002B0008093360180910001813029F40E9434013D
:1002C00082E08093000180913301813029F40E9403
:1002D000280182E08093330180913401813029F438
:1002E0000E941C0182E080933401809116018823D2
:1002F00071F080913501882351F080911501813092
:1003000011F482E001C081E080931501089580918D
:100310003501813029F40E94110182E0809335017A
:1003200080911601813029F40E94060182E08093B9
:1003300016010895EAE7F0E080818F6E80831092C5
:100340007B0087E680937C008FE380937E00109291
:100350000A011092090110920C0110920B011092E7
:100360000E0110920D011092100110920F011092C7
:1003700012011092110110921401109213011092A7
:100380003A0108958EEC80937A000895089580E1F3
:1003900097E20197F1F7E0E0F0E060E070E0A0E1C3
:1003A000B7E210920801CD010197F1F78091790031
:1003B00020917800582F40E030E0242B352B3093EB
:1003C0003C0120933B0180913B0190913C01E80F5F
:1003D000F91FCD010197F1F76F5F7F4F6A3071050B
:1003E00001F7CF016AE070E00E942804CB01089574
:1003F000805C80937C0080EA9FE00197F1F760E0E9
:1004000070E040E050E0A0EDB7E0209179008091ED
:100410007800FD013197F1F7322F20E090E0822B38
:10042000932B480F591F6F5F7F4F6A30710569F733
:10043000CA016AE070E00E94280470933C01609356
:100440003B018091790008951F920F920FB60F9291
:1004500011240F900FBE0F901F901895CF93DF932C
:1004600010923D01C0E4DCE94EC090E00E94F8012A
:10047000CE010197F1F780913B0190913C014091B1
:100480003D01E42FF0E0EE0FFF1FE75FFE4F2081FC
:1004900031818217930791F14093010180913B01D3
:1004A00090913C018093030180913B0190913C012C
:1004B0009093020185E461E071E043E050E00E9426
:1004C0008403E0913D01F0E080913B0190913C017B
:1004D000EE0FFF1FE75FFE4F9183808380913A010B
:1004E000882331F080E00E94FA0010923A0106C0A1
:1004F00081E00E94FA0081E080933A0180913D0101
:100500008F5F80933D0180913D01863008F4ADCF2F
:10051000DF91CF910895E1ECF0E010821092C000DD
:1005200086E08093C20089E18093C4001092C500E8
:1005300088E9808308951F920F920FB60F921124BD
:100540008F938091C6008093070181E080933701EB
:100550008F910F900FBE0F901F901895109237013A
:100560000895982F8091C00085FFFCCF9093C6001E
:100570000895FC0107C08091C00085FFFCCF319633
:100580009093C60094919923B1F70895FC0107C098
:100590008091C00085FFFCCF31969093C60090817A
:1005A0009923B1F7089510920601109280008DE012
:1005B000809381008CE093E0909389008093880081
:1005C000EFE6F0E080818260808310925401109207
:1005D000530108951F920F920FB60F9211248F931B
:1005E00081E0809306018F910F900FBE0F901F90B6
:1005F0001895109206010E949C000E945101809162
:100600005301909154018230910534F401969093F6
:1006100054018093530108950E94E2031092540103
:100620001092530108950F931F93CF93DF93FC0112
:10063000B2818C010D5F1F4F60E070E0B550AB2FB1
:10064000A695CA2FD0E0AE014F5F5F4F440F551FF4
:100650004E0F5F1F08C0318120E0828190E0822B25
:10066000932B680F791F3296E417F507A1F7AA0FAD
:10067000FE01EE0FFF1FE00FF11FBA1721F080817E
:1006800090E068277927CB01DF91CF911F910F91DF
:100690000895CF93DF93982FDB01EA0185E58093DE
:1006A0001F0189E4809320012796D0931801C093FD
:1006B00017012797CE30D10514F080E022C09E01AB
:1006C000295F2093210182E08093220190932301EE
:1006D00020E030E007C08D91F901EC5DFE4F808392
:1006E0002F5F3F4F2C173D07B4F38FE191E00E943D
:1006F0001303FE01EC5DFE4F9083CB5DDE4F8883DC
:1007000081E0DF91CF910895CF93DF930E94490359
:10071000882389F0C0E0D0E007C0FE01E15EFE4F13
:1007200080810E94B1022196809117019091180159
:10073000C817D90794F3DF91CF910895109219014A
:1007400010921A0110921B0110921C0110921D01AF
:1007500010921E0110925601089520E030E040E012
:1007600061E070E0F901E75EFE4F8081882341F08F
:10077000CB01022E02C0880F991F0A94E2F7482B82
:100780002F5F3F4F2630310569F740935501409365
:10079000010181E08093020182E461E071E042E0C6
:1007A00050E00E9484031092190110921A011092D5
:1007B0001B0110921C0110921D0110921E0110923B
:1007C00056010895349903C091E081E002C090E0A1
:1007D00080E0319902C092E081E0359902C093E057
:1007E00081E0329902C094E081E0339902C095E043
:1007F00081E0309902C096E002C0882341F18091E7
:100800001501813049F080911501823029F494302E
:1008100010F0935001C09D5F809156018917B9F087
:1008200090935601E92FF0E0E85EFE4F81E080836F
:10083000905D9093010181E3809302018093030115
:1008400081E461E071E043E050E00E948403089598
:10085000AA1BBB1B51E107C0AA1FBB1FA617B707E6
:1008600010F0A61BB70B881F991F5A95A9F7809502
:0C0870009095BC01CD010895F894FFCFD5
:00000001FF
