:100000000C94EC010C940B020C940B020C940B025C
:100010000C940B020C940B020C940B020C940B022C
:100020000C940B020C940B020C940B020C940B021C
:100030000C940B020C941E020C940B020C940B02F9
:100040000C940B020C940B020C940B020C940B02FC
:100050000C9440020C940B020C940B020C940B02B7
:100060000C940B020C940B020C940B020C940B02DC
:100070000C942D020C940B020C940B020C940B02AA
:100080000C940B020C940B020C940B02961799170C
:100090009C179F17A217A517A817AB17AE17B11774
:1000A000B417B717BA17BD17C017C317C617C917A4
:1000B000CC17CF17D217D517D817DB17DE17E117D4
:1000C0004D6F64652066696C6520666F756E6400AF
:1000D0004D6F64652066696C65206E6F7420666F75
:1000E000756E6400534142542074657374696E6781
:1000F0002E2E2E004572726F7220696E69746961CE
:100100006C697A696E6720565331303533202D2063
:10011000434F44452000565331303533204D503342
:1001200020636869702073756365737366756C6CA2
:100130007920696E697469616C697A656400464109
:100140005433322066696C652073797374656D2051
:1001500064657465637465642E2E2E0046415433C5
:1001600032206E6F7420666F756E642100556E6B61
:100170006E6F776E2053442043617264204465742F
:100180006563746564005374616E646172642043D6
:1001900061706163697479204361726420285665D7
:1001A0007220322E7829204465746563746564007A
:1001B00048696768204361706163697479204361AD
:1001C0007264204465746563746564005374616E81
:1001D0006461726420436170616369747920436172
:1001E0007264202856657220312E78292044657467
:1001F0006563746564004361726420496E69746963
:10020000616C697A6174696F6E206661696C65649E
:100210002E2E0053442063617264206E6F7420643C
:10022000657465637465642E2E00202046696C65D4
:1002300020616C7265616479206578697374696E98
:10024000672C20617070656E64696E6720646174EC
:10025000612E2E00496E76616C69642066696C655A
:100260004E616D652E2E004572726F7220696E2090
:1002700067657474696E6720636C7573746572006A
:100280004572726F7220696E2067657474696E675B
:1002900020636C7573746572004572726F722069A9
:1002A0006E2067657474696E6720636C757374651E
:1002B00072004572726F7220696E2067657474698E
:1002C0006E6720636C757374657200524F4F5400F3
:1002D000444952002020200046494C45002020205F
:1002E0000046696C652064656C6574656421004432
:1002F000656C6574696E672E2E0046696C652064B6
:100300006F6573206E6F7420657869737421005671
:100310006F6C20444F574E20707265737365640094
:10032000566F6C2055502070726573736564004D74
:100330006F646520322070726573736564004D6F61
:1003400064652031207072657373656400456E7456
:1003500065722032207072657373656400456E7437
:1003600065722031207072657373656400416E613F
:100370006C6F6720496E707574206368616E6E657E
:100380006C2C4D53422C4C5342203A00416E642059
:10039000746865206D6F646573206172653B200031
:1003A0004E756D626572206F66206D6F6465732097
:1003B00073656C65637465643A2000534142542D43
:1003C0004641494C00534142542D4F4B005341424A
:1003D000542D76322E31000011241FBECFEFD0E411
:1003E000DEBFCDBF13E0A0E0B1E0E8E0F8E300E05D
:1003F0000BBF02C007900D92A434B107D9F715E0E6
:10040000A4E4B3E001C01D92A93EB107E1F70E9448
:100410009E020C94021C0C9400008091BB05882362
:1004200039F45D985E985F9881E08093BB050895EC
:100430005D9A5E9A5F9A1092BB0508951F920F9283
:100440000FB60F9211248F9381E080936F038F91E9
:100450000F900FBE0F901F9018951F920F920FB61E
:100460000F9211248F938091CE008093C90581E073
:10047000809353038F910F900FBE0F901F9018958C
:100480001F920F920FB60F9211248F938091C60086
:100490008093B60581E08093C5058F910F900FBEC4
:1004A0000F901F90189510926F0312B88FEF81B9BB
:1004B00012B88AB1806E8AB9109280008DE0809364
:1004C00081008CE093E09093890080938800809174
:1004D0006F00826080936F000E94E0020E946903B7
:1004E0000E946305789410929A058DE00E94B103F2
:1004F0008AE00E94B10384EE90E00E94B9038DE08F
:100500000E94B1038AE00E94B10381E00E94960B31
:100510000E94F315882319F480ED90E002C080EC6E
:1005200090E00E94B9038DE00E94B1038AE00E942E
:10053000B10380E091E00E94D30308950E9453022A
:100540008DE00E94B1038AE00E94B1038DE00E9419
:10055000B1038AE00E94B103809144038F5F8093CE
:1005600044038150853610F01092440380916F034C
:10057000882311F010926F0380915303882311F0A8
:100580000E94F6028091C505882311F00E9479032C
:1005900080914B03882311F00E94AE18809199033B
:1005A000882319F080E00E94481580914E0388232B
:1005B00021F084E593E00E94BE120E942014CCCF6B
:1005C000E9ECF0E010821092C80086E08093CA0047
:1005D00089E18093CC001092CD0088E9808310924D
:1005E000D3051092D40510929903089510925303E5
:1005F0008091D4058823D9F42091C9052093D20590
:100600009091D1059093D0052093D1059535F1F5C2
:100610002934E1F581E08093D40590939D052093E2
:100620009E0582E08093CF051092D30508958091B6
:10063000D3059091CF058823A1F4923079F480916D
:10064000C9058093D5058091C90580939F0581E0F8
:100650008093D30583E08093CF0508951092D4054D
:100660000895E92FF0E08091C905E356FA4F8083A1
:100670009F5F9093CF058091D505981739F481E05D
:10068000809399031092D4051092D3050895982F62
:100690008091C80085FFFCCF9093CE000895FC01A7
:1006A00007C08091C80085FFFCCF31969093CE00A3
:1006B00094919923B1F70895FC0107C08091C80077
:1006C00085FFFCCF31969093CE0090819923B1F7AE
:1006D0000895E1ECF0E010821092C00086E0809373
:1006E000C20089E18093C4001092C50088E980832C
:1006F00008951092C5058091DB058823B9F42091F7
:10070000B6052093D9059091D8059093D7052093ED
:10071000D805903521F5233411F581E08093DB0570
:10072000909371032093720382E017C08091B60505
:100730008D3049F48091DA058093C70581E080937C
:100740004B031092DB058091DA05E82FF0E09091E1
:10075000B605EF58FC4F90838F5F8093DA0580E0F9
:100760000895982F8091C00085FFFCCF9093C6001C
:100770000895FC0107C08091C00085FFFCCF319631
:100780009093C60094919923B1F70895FC0107C096
:100790008091C00085FFFCCF31969093C600908178
:1007A0009923B1F70895CF93DF93282FE92FA0E085
:1007B000B0E005C08083D901CE012C2FE92F822F14
:1007C0009E2FEC018991FD01EC5AFC4F9D012F5F9A
:1007D0003F4F8E3279F78083D901AC5ABC4FFE016E
:1007E00081918C93D901AB5ABC4F89818C938181C3
:1007F00011968C9381E080934E03DF91CF91089501
:100800001F93182F8093DC050E94540583E00E94FB
:100810007505812F0E9475050E947B0590E09093DD
:100820004603809345030E947B0590E09093480324
:10083000809347038091450390914603209147039D
:1008400030914803982F8827820F931F90934A0373
:10085000809349030E9446052091490330914A0341
:10086000C9011F9108951F93182F7093DE0560939F
:10087000DD058093DC050E94540582E00E94750529
:10088000812F0E9475058091DE050E94750580917B
:10089000DD050E9475050E9446051F910895CF93BE
:1008A000DF938091DF059091E00581509140909316
:1008B000E0058093DF058091DF059091E00582508F
:1008C000914018F0C0E0D0E014C081E091E0909336
:1008D000E0058093DF0517C06091DF057091E005AA
:1008E0008BE00E943304CB30D10511F480E00CC0C2
:1008F00021968BE00E9400042091DF053091E005F5
:100900008217930749F781E0DF91CF910895CF9344
:10091000DF938091DF059091E0058F5F9E4F90936C
:10092000E0058093DF058091DF059091E0058E5F03
:100930009E4F18F4C0E0D0E014C08EEF9EEF90936D
:10094000E0058093DF0517C06091DF057091E00539
:100950008BE00E943304CB30D10511F480E00CC051
:1009600021968BE00E9400042091DF053091E00584
:100970008217930749F781E0DF91CF91089580E0D6
:1009800064E078E00E94330480E49CE90197F1F789
:1009900008951F93182F0E944F05812F0E947505FF
:1009A0000E9446051F9108950F931F930E944605CC
:1009B0002C9800E41CE9C8010197F1F72C9A0E94D9
:1009C0006E05C8010197F1F700E00AC083E060E01E
:1009D00078E90E9433040B3011F481E054C00F5FBA
:1009E00083E00E9400048050984981F780E49CE9EC
:1009F0000197F1F700E00AC08BE06EEF7EEF0E94F6
:100A000033040B3011F482E03EC00F5F8BE00E9494
:100A100000048E5F9E4F81F785E065E47CEA0E94CA
:100A2000330400E00AC08BE068E278E20E943304FD
:100A30000B3011F483E027C00F5F8BE00E940004AD
:100A400028E28832920779F79093E0058093DF05DA
:100A500000E00AC080E060E078E00E9433040B30E0
:100A600011F484E010C00F5F80E00E940004805009
:100A7000984081F780E49CE90197F1F70E94BF0458
:100A80000E94590580E01F910F91089585B18760FC
:100A900085B9089585B1876085B92898089585B18D
:100AA000876085B92A98089585B1876085B92998A6
:100AB00008958CB58D7F8CBD8CB58E7F8CBD8DB52A
:100AC00081608DBD089584B1876184B9239887EBD7
:100AD00084B980E58CBD0E94590508958CB583606A
:100AE0008CBD8DB58E7F8DBD08958EBD0DB407FE76
:100AF000FDCF8EB508958FEF8EBD0DB407FEFDCFEF
:100B00008EB50895DF92EF92FF920F931F93D82E28
:100B10007A018B018091B5058823B9F48D2D81511F
:100B2000823060F088E1D81649F089E1D81631F0BA
:100B300080E2D81619F081E2D81639F439E0EE0CCB
:100B4000FF1C001F111F3A95D1F728988D2D806446
:100B50000E947505812F9927AA27BB270E9475053A
:100B6000C801AA27BB270E947505BB27A12F902F7C
:100B70008F2D0E9475058E2D0E94750588E0D81670
:100B800011F487E801C085E90E94750510E002C0F4
:100B90001150D1F00E947B05082F8F3FC9F38823A5
:100BA00099F48AE3D81681F40E947B0586FF04C07D
:100BB00081E08093B50502C01092B5050E947B05C7
:100BC0000E947B050E947B050E947B05289A802F4E
:100BD0001F910F91FF90EF90DF900895AF92BF9219
:100BE000CF92DF92EF92FF920F931F937B018C01C4
:100BF00059016A0180E2B801A7010E948205882399
:100C0000B9F40894E108F10801091109EA0CFB1C88
:100C10000C1D1D1D81E2B801A7010E9482058823D9
:100C200039F486E240E050E060E070E00E94820526
:100C30001F910F91FF90EF90DF90CF90BF90AF90FA
:100C400008951F93CF93DF9310E08FEF0E947505F7
:100C50001F5F1A30D1F72898C0E0D0E080E040E074
:100C600050E060E070E00E9482052196C132D1051B
:100C700011F481E056C0813089F7289A8FEF0E94E5
:100C800075058FEF0E947505C0E0D0E088E04AEA64
:100C900051E060E070E00E9482052196CF3FD105CF
:100CA00029F481E08093C30511E003C0813071F71E
:100CB00012E0C0E0D0E087E340E050E060E070E0A8
:100CC0000E94820589E240E050E060E070E40E940A
:100CD00082052196CF3FD10511F482E022C08823FE
:100CE00051F71092B5051230E1F4C0E0D0E08AE38C
:100CF00040E050E060E070E00E9482052196CF3F26
:100D0000D10519F41092C30502C0882381F78091A0
:100D1000B505813011F482E001C083E08093C30502
:100D200080E0DF91CF911F910895CF93DF93AB01C6
:100D3000BC0188E10E948205882311F0982F3FC0F2
:100D400028988EEF0E947505C0E0D0E0FE01E656BF
:100D5000FC4F80810E947505219682E0C030D80743
:100D6000A9F78FEF0E9475058FEF0E9475050E940D
:100D70007B05982F8F71853041F0289A20C08FEF26
:100D8000CF3FD80791F0219602C0C0E0D0E00E948A
:100D90007B058823A1F3289A8FEF0E947505289878
:100DA00008C08FEFCF3FD80719F4289A91E007C009
:100DB00021960E947B058823A1F3289A90E0892F31
:100DC000DF91CF9108951F93CF93DF93AB01BC01C7
:100DD00081E10E948205182F882309F52898C0E038
:100DE000D0E005C0219719F4289A11E018C00E949C
:100DF0007B058E3FB9F7C0E0D0E00E947B05FE0185
:100E0000E656FC4F8083219682E0C030D807A9F7D0
:100E10000E947B050E947B050E947B05289A812FFA
:100E2000DF91CF911F910895EF92FF920F931F933F
:100E300020919B0530919C05E0906103F090620346
:100E400000916303109164036250704080409040B1
:100E500040E050E00E94C4189B01AC012E0D3F1DE4
:100E6000401F511FB901CA011F910F91FF90EF90D0
:100E700008950F931F93DF93CF93CDB7DEB72B97D2
:100E80000FB6F894DEBF0FBECDBF8C01582FA12F37
:100E9000FC0140E080818E3219F4493030F00EC000
:100EA0004F5F31964C30B1F709C0BE016F5F7F4F85
:100EB000852F9A2F9C01F901DB0108C084E592E09F
:100EC0000E94B90381E052C081918D938E2F851BC2
:100ED0008417D0F3842F9E012F5F3F4F90E205C00F
:100EE000F901E80FF11D90838F5F8830C9F7242F37
:100EF0002F5FAE014F5F5F4F30E2F801E20FF11D4F
:100F00009081992359F0FA01E80FF11D90832F5F2A
:100F100007C0FA01E80FF11D30838F5F8B30C8F3F3
:100F20008F5F8B3050F39E01245F3F4FFB01908118
:100F3000892F81568A3110F4905290836F5F7F4FD2
:100F40006217730799F720E030E0AE014F5F5F4F03
:100F5000F801E20FF31FDA01A20FB31F8C91808317
:100F60002F5F3F4F2B30310599F780E02B960FB65E
:100F7000F894DEBF0FBECDBFCF91DF911F910F91CF
:100F800008958F929F92AF92BF92CF92DF92EF928D
:100F9000FF920F93DF93CF93CDB7DEB764970FB671
:100FA000F894DEBF0FBECDBF982E6A017B01DE0133
:100FB0001196E8E0F1E084E101900D928150E1F7B3
:100FC0000CE08CE2882E053011F0093029F4FE0186
:100FD000E00FF11D808201505E01A00EB11CC7011F
:100FE000B6012AE030E040E050E00E94E318606380
:100FF000F5016083C701B6012AE030E040E050E02F
:101000000E94E318C901DA016C017D01C114D10409
:10101000E104F10411F00150B1F6F1E09F1611F472
:101020008BE48E87CE0101960E94C60364960FB6AC
:10103000F894DEBF0FBECDBFCF91DF910F91FF902F
:10104000EF90DF90CF90BF90AF909F908F900895DA
:101050006F927F928F929F92AF92BF92CF92DF92C8
:10106000EF92FF920F931F9360783B014C0122E0B7
:10107000660C771C881C991C2A95D1F75B016C01C2
:1010800050C0E090BC05F090BD05209169033091FF
:101090006A0300E010E08091B1059091B205A09143
:1010A000B305B091B405E80EF91E0A1F1B1F40E0FE
:1010B00050E0C401B3010E94E318E20EF31E041FC6
:1010C000151FC801B7010E94E30660E0E62FF0E0BB
:1010D000EE0FFF1FEE0FFF1FE656FC4F8081918140
:1010E000A281B381BF700097A105B10539F4A601B3
:1010F0009501260F311D411D511D25C06F5F6038C0
:1011000029F780E890E0A0E0B0E0A80EB91ECA1E62
:10111000DB1E80E092E0A0E0B0E0680E791E8A1E3F
:101120009B1E80916B0390916C03A0916D03B09115
:101130006E03A816B906CA06DB0608F4A2CF20E0A3
:1011400030E040E050E0B901CA011F910F91FF90DB
:10115000EF90DF90CF90BF90AF909F908F907F9057
:101160006F900895CF92DF92EF92FF920F931F93AB
:10117000D82EC62E79018A016091B1057091B20511
:101180008091B3059091B4056F5F7F4F8F4F9F4F54
:101190000E94E30680919A0390919B03A0919C0387
:1011A000B0919D0382559245A146B14409F054C0C7
:1011B00080917E0590917F05A0918005B091810579
:1011C00082579247A144B14609F046C080919605E6
:1011D00090919705A0919805B09199058050904005
:1011E000A545BA4AC9F5CC20A9F481E0D81649F43E
:1011F00020918205309183054091840550918505A9
:101200002FC0209186053091870540918805509127
:10121000890526C021E0D21649F4E0928205F092B9
:101220008305009384051093850508C0E092860528
:10123000F092870500938805109389056091B105A8
:101240007091B2058091B3059091B4056F5F7F4FA7
:101250008F4F9F4F0E9495062FEF3FEF4FEF5FEFAD
:10126000B901CA011F910F91FF90EF90DF90CF90CD
:101270000895DF92EF92FF920F931F93D82EDB0118
:10128000CA01E9E0B695A79597958795EA95D1F7B4
:10129000517060707070411551056105710519F448
:1012A000AC01BD0106C0AC01BD014F5F5F4F6F4F88
:1012B0007F4FDB01CA0133E0B695A79597958795D7
:1012C0003A95D1F7477050706070707041155105B4
:1012D0006105710519F47C018D0107C07C018D0148
:1012E0000894E11CF11C011D111D8091C805882383
:1012F000D9F081E060E020E030E040E050E00E9482
:10130000B208DD2039F49B01AC012E0D3F1D401FBA
:10131000511F06C09B01AC012E193F09400B510B18
:1013200081E061E00E94B2081F910F91FF90EF9061
:10133000DF9008952F923F924F925F926F927F922B
:101340008F929F92AF92BF92CF92DF92EF92FF92D5
:101350000F931F9320916B0330916C0340916D03A9
:1013600050916E0360919B0570919C0580E090E028
:101370000E94C4185B016C011AE0D694C794B7941C
:10138000A7941A95D1F7E0906903F0906A038DE075
:101390000E94B1038AE00E94B1038DE00E94B10374
:1013A0008AE00E94B10300E010E0C601B501A80187
:1013B00097010E94C418AB01BC0181E00E94C107E3
:1013C00081E060E020E030E040E050E00E94B208C0
:1013D0003B014C0180916B0390916C03A0916D03D4
:1013E000B0916E0386159705A805B90508F07CC075
:1013F0001092C805A0908F03B0909003C090910305
:10140000D0909203B2E0AA0CBB1CCC1CDD1CBA9598
:10141000D1F7662477244301222433242101E0906C
:10142000BC05F090BD052091690330916A0300E08E
:1014300010E08091B1059091B205A091B305B091F3
:10144000B405E80EF91E0A1F1B1F40E050E0C6015C
:10145000B5010E94E318E20EF31E041F151FC80118
:10146000B7010E94E306A201910160E070E0FB0178
:10147000E656FC4F80819181A281B381BF700097B5
:10148000A105B10529F40894611C711C811C911CF3
:101490002F5F3F4F4F4F5F4F80916B0390916C03D5
:1014A000A0916D03B0916E030296A11DB11D281786
:1014B00039074A075B07C1F0C901821993096C5FBC
:1014C0007F4F02E06030700791F6E12CA2E0FA2E27
:1014D000012D112DAE0CBF1CC01ED11E80389105F0
:1014E00018F019012A019BCF8091C805882331F497
:1014F00081E061E0A40193010E94B20881E0809341
:10150000C80520919B0530919C0540E050E0C40146
:10151000B3010E94C418FAE0969587957795679570
:10152000FA95D1F72091690330916A0340E050E0C9
:101530000E94C418AB01BC0181E00E94C1071F9149
:101540000F91FF90EF90DF90CF90BF90AF909F9062
:101550008F907F906F905F904F903F902F90089565
:101560006F927F928F929F92AF92BF92CF92DF92B3
:10157000EF92FF920F931F931092B1051092B20554
:101580001092B3051092B40560E070E080E090E046
:101590000E94E30680919A03893E19F18B3E09F17E
:1015A000809198059091990585559A4A09F0B0C0A7
:1015B000609160057091610580916205909163056D
:1015C0006093B1057093B2058093B3059093B40511
:1015D0000E94E30680919A03893E19F08B3E09F040
:1015E00097C08091A5039091A60390936A0380937E
:1015F00069038091A70390E090939C0580939B05DD
:10160000A090A803B090A903B092BD05A092BC051C
:101610008091C6039091C703A091C803B091C903FC
:1016200080938F0390939003A0939103B0939203C0
:10163000E090BC05F090BD056091AA0370E080E0E9
:1016400090E02091BE033091BF034091C0035091C0
:10165000C1030E94C4183B014C0100E010E08091DE
:10166000B6039091B703A091B803B091B903E80E07
:10167000F91E0A1F1B1FE60CF71C081D191DE0921E
:101680006103F0926203009363031093640320915B
:101690009B0530919C05CC24DD246091BA037091A8
:1016A000BB038091BC039091BD036A197B098C092F
:1016B0009D09661977098809990940E050E00E9460
:1016C000E318C901DA0180936B0390936C03A09334
:1016D0006D03B0936E0381E060E020E030E040E015
:1016E00050E00E94B20820916B0330916C0340914E
:1016F0006D0350916E03261737074807590718F4F2
:101700001092C80503C081E08093C80580E001C045
:1017100081E01F910F91FF90EF90DF90CF90BF90ED
:10172000AF909F908F907F906F9008951F93CF936D
:10173000DF93182F1092C305C0E0D0E00E9421066D
:10174000882321F02196CA30D105C1F7112309F46D
:101750005FC0882371F0813029F483E192E00E9418
:10176000B90306C0823021F486EF91E00E94B903EC
:10177000FFCF8091C305823039F0833041F0813052
:1017800049F48CEC91E008C080EB91E005C086E85C
:1017900091E002C08DE691E00E94B90380ED97E0F0
:1017A0000197F1F70E94B00A882349F08DE00E946A
:1017B000B1038AE00E94B1038CE591E008C08DE09E
:1017C0000E94B1038AE00E94B1038EE391E00E947F
:1017D000B9038DE00E94B1038AE00E94B1030E9428
:1017E000D404182F882329F486E191E00E94B903DC
:1017F00008C084EF90E00E94B903812F805C0E94B2
:10180000B1038DE00E94B1038AE00E94B1030AC0D7
:101810008111FFCF80ED97E00197F1F70E94B00AA8
:101820000E94D404DF91CF911F9108954F925F924F
:101830006F927F928F929F92AF92BF92CF92DF92E0
:10184000EF92FF920F931F93CF93DF935B016C0195
:10185000842E280139018091BC059091BD0502E0DC
:10186000AA0CBB1CCC1CDD1C0A95D1F72091690386
:1018700030916A037C0100E010E08091B105909105
:10188000B205A091B305B091B405E80EF91E0A1F88
:101890001B1F40E050E0C601B5010E94E318E20EB4
:1018A000F31E041F151FC0916903D0916A03992488
:1018B000C801B7010E94E306882321F093948AE0CF
:1018C0009816B1F79E0140E050E0C601B5010E94B4
:1018D000E318FB01E656FC4F882031F4208131816A
:1018E000428153815F700CC0408251826282738258
:1018F000C801B7010E94950620E030E040E050E0CA
:10190000B901CA01DF91CF911F910F91FF90EF9024
:10191000DF90CF90BF90AF909F908F907F906F900F
:101920005F904F9008952F923F924F925F926F92E7
:101930007F928F929F92AF92BF92CF92DF92EF925F
:10194000FF920F931F93DF93CF93CDB7DEB72A9704
:101950000FB6F894DEBF0FBECDBF8D837F836E833D
:10196000A0908F03B0909003C0909103D090920309
:101970008150888720919B0530919C05E090610300
:10198000F09062030091630310916403C601B501F6
:10199000625070408040904040E050E00E94C41887
:1019A0001B012C012E0C3F1C401E511E6624772467
:1019B000430160C1D401C301820D931DA41DB51D57
:1019C00089839A83AB83BC83BC01CD010E94E3066B
:1019D00040E2E42EF12C3EC18A0106561C4FF7016D
:1019E000E656FC4FB0978081B096882341F49D81E4
:1019F0009150923008F068C18AEF92E063C1853E51
:101A000009F424C1759780818F3009F41FC1A8851E
:101A1000A23008F0D2C020E030E0C801820F931F4E
:101A2000AE81BF81A20FB31FFC0190818C919817EA
:101A300009F00CC1822F8F5F2F5F3F4F2B30310594
:101A400061F78B3009F002C1FD81F13009F03FC030
:101A500089819A81AB81BC818093CA059093CB0523
:101A6000A093CC05B093CD05CA01A0E0B0E080936F
:101A70004F0390935003A0935103B0935203D801A6
:101A800054968D919C915597A0E0B0E0DC01992788
:101A90008827F801228D338D40E050E0822B932B74
:101AA000A42BB52B8093BE059093BF05A093C005D2
:101AB000B093C105848D958DA68DB78D80936503F8
:101AC00090936603A0936703B0936803FFC08DE013
:101AD0000E94B1038AE00E94B1038FEE92E00E945F
:101AE000B9038DE00E94B1038AE00E94B1038DE04A
:101AF0000E94B1038AE00E94B103D80154968D91EF
:101B00009C915597A0E0B0E05C0199248824F801ED
:101B1000828D938DA0E0B0E0882A992AAA2ABB2A58
:101B200085EE808369817A818B819C810E949506F4
:101B3000D8015C964D915D916D917C915F9780E0AD
:101B40000E94390982E060E020E030E040E050E0AF
:101B50000E94B20886169706A806B90630F482E0FD
:101B600061E0A50194010E94B208C501B40140E002
:101B700000E010E020E030E00E94160CF62EE72E88
:101B8000D82EC92EC501B40141E000E010E020E0EC
:101B900030E00E94160C8F2D9E2DAD2DBC2D4C01DA
:101BA0005D01B7EF8B16BFEF9B06BFEFAB06BFE043
:101BB000BB06D8F281EE92E085C08DE00E94B103B1
:101BC0008AE00E94B1031A8619860BC0E985E730C6
:101BD00019F480E20E94B10389859A8501969A875B
:101BE0008987E985FA85E00FF11F80810E94B103A2
:101BF000A985BA851A9751F78DED92E00E94B90335
:101C0000870106561C4F05511040F80180810B5E7C
:101C10001F4F8031B9F0883019F48BEC92E014C07A
:101C200088ED92E00E94B90384ED92E00E94B9032E
:101C3000F8013497408151816281738180E00E9474
:101C4000C10704C080ED92E00E94B90380E290E0F9
:101C5000E80EF91EA701405250408091690390910F
:101C60006A034817590708F4B7CE0894611C711C21
:101C7000811C911C80919B0590919C05A0E0B0E097
:101C8000681679068A069B0608F494CEC601B5014B
:101C900040E000E010E020E030E00E94160C5B0124
:101CA0006C0197EFA9169FEFB9069FEFC9069FE059
:101CB000D90650F4A114B104C104D10409F05ACEDC
:101CC00082EB92E00E94B90300E010E0C8012A967E
:101CD0000FB6F894DEBF0FBECDBFCF91DF911F913D
:101CE0000F91FF90EF90DF90CF90BF90AF909F90BB
:101CF0008F907F906F905F904F903F902F900895BE
:101D0000CF93DF93EC010E943907882321F482E00E
:101D1000BE010E94930CDF91CF9108952F923F92C4
:101D20004F925F926F927F928F929F92AF92BF92EB
:101D3000CF92DF92EF92FF920F931F93DF93CF9397
:101D4000CDB7DEB728970FB6F894DEBF0FBECDBF74
:101D50008C017E836D830E943907882311F081E016
:101D6000A8C081E0B8010E94930C9C01009711F477
:101D700082E09FC0DC0154968D919C915597A0E024
:101D8000B0E06C01BB24AA24F901828D938DA0E000
:101D9000B0E0A82AB92ACA2ADB2AD9015C962D907C
:101DA0003D904D905C905F9729823A824B825C8295
:101DB00022243324210120919B0530919C05E09041
:101DC0006103F09062030091630310916403C60104
:101DD000B501625070408040904040E050E00E9469
:101DE000C4183B014C016E0C7F1C801E911E10E03C
:101DF00040C0C401B301610F711D811D911D0E947E
:101E0000E306A201910160E0D201C10180509E4F22
:101E1000AF4FBF4F29803A804B805C80221533053D
:101E20004405550508F061E02F5F3F4F4F4F5F4F6E
:101E3000281739074A075B0769F70FC0EF81F88554
:101E4000E656FC4F8081AD81BE818D93BE83AD830C
:101E5000EF81F8853196F887EF838F8198858050E0
:101E6000924060F3662311F080E023C01F5F1901E8
:101E70002A0120919B0530919C05812F90E08217CB
:101E8000930708F4B6CFC601B50140E000E010E0CA
:101E900020E030E00E94160C5B016C0161157105B9
:101EA0008105910509F087CF80E892E00E94B9038F
:101EB00083E028960FB6F894DEBF0FBECDBFCF915A
:101EC000DF911F910F91FF90EF90DF90CF90BF9027
:101ED000AF909F908F907F906F905F904F903F90CA
:101EE0002F9008952F923F924F925F926F927F9220
:101EF0008F929F92AF92BF92CF92DF92EF92FF921A
:101F00000F931F93DF93CF9300D000D0CDB7DEB7F0
:101F1000E82E8B01CB010E943907882311F082E063
:101F200094C081E0B8010E94930C9C01009709F4D1
:101F30008BC022242394E21411F481E086C0DC01DA
:101F400054968D919C915597A0E0B0E06C01BB2414
:101F5000AA24F901828D938DA0E0B0E0A82AB92AC5
:101F6000CA2ADB2AD9015C962D903D904D905C9059
:101F70005F9729823A824B825C822224332421019A
:101F800020919B0530919C05E0906103F0906203E5
:101F90000091630310916403C601B5016250704063
:101FA0008040904040E050E00E94C4183B014C014A
:101FB0006E0C7F1C801E911E10E028C0C401B3016E
:101FC000610F711D811D911D0E94E306D201C101A7
:101FD00060E0A201910120503E4F4F4F5F4F29809A
:101FE0003A804B805C8082159305A405B50508F006
:101FF00061E00196A11DB11D82179307A407B507E3
:1020000071F7662309F51F5F1C012D0120919B05C7
:1020100030919C05812F90E08217930778F2C601DA
:10202000B50140E000E010E020E030E00E94160C36
:102030005B016C01611571058105910509F0A0CF67
:1020400089E992E00E94B90380E00F900F900F9011
:102050000F90CF91DF911F910F91FF90EF90DF9044
:10206000CF90BF90AF909F908F907F906F905F9038
:102070004F903F902F9008952F923F924F925F92F2
:102080006F927F928F929F92AF92BF92CF92DF9288
:10209000EF92FF920F931F93BC0181E00E94720F99
:1020A000813009F055C08AE292E00E94B903609045
:1020B000BE057090BF058090C0059090C105AA2410
:1020C000BB246501C401B30140E000E010E020E062
:1020D00030E00E94160C6F3F2FEF72072FEF820740
:1020E0002FE0920741F00894A11CB11CC11CD11C27
:1020F0003B014C01E7CF20919B0530919C056091FD
:10210000690370916A03E0906903F0906A0380E0CC
:1021100090E040E050E00E94C418A60195010E94A2
:10212000C4189B01AC0160916503709166038091B6
:10213000670390916803621B730B840B950B00E09F
:1021400010E0A80197010E94E318B22E21E03EC0E2
:10215000823009F408C182E060E020E030E040E035
:1021600050E00E94B2089B01AC0180916B039091FA
:102170006C03A0916D03B0916E0382179307A407BF
:10218000B50740F420918F03309190034091910363
:1021900050919203CA01B9010E9428083B014C01E9
:1021A000611571058105910509F4DDC041E00FEF6E
:1021B0001FEF2FEF3FE00E94160C10926503109264
:1021C0006603109267031092680320E02B2C3324DF
:1021D00044245524C401B3016250704080409040B3
:1021E0002223E1F120919B0530919C05E090610351
:1021F000F09062030091630310916403E20CF31CFE
:10220000041D151D40E050E00E94C418E60EF71EA4
:10221000081F191FE0929403F09295030093960310
:1022200010939703609194037091950380919603A6
:10223000909197030E94E3062091690330916A030D
:1022400040E050E060916503709166038091670300
:10225000909168030E94E3181B2D1FC020919B05DD
:1022600030919C05E0906103F0906203009163035C
:102270001091640340E050E00E94C418E60EF71E7F
:10228000081F191FE0929403F092950300939603A0
:102290001093970310E060E070E0209165033091A7
:1022A00066034091670350916803FB01E656FC4FBB
:1022B00010826F5F7F4F2F5F3F4F4F4F5F4F82E026
:1022C0006030780790F32093650330936603409362
:1022D0006703509368036091940370919503809114
:1022E0009603909197030E9495061F5F20919B058E
:1022F00030919C05812F90E08217930761F4C4010F
:10230000B3010E9428086B017C01611571058105EC
:102310009105A9F428C08091940390919503A09110
:102320009603B09197030196A11DB11D809394036C
:1023300090939503A0939603B0939703ACCFC401F9
:10234000B30141E0970186010E94160CC701B60156
:1023500041E00FEF1FEF2FEF3FE00E94160C20E04F
:102360003601470137CF1F910F91FF90EF90DF901B
:10237000CF90BF90AF909F908F907F906F905F9025
:102380004F903F902F9008956F927F928F929F92DF
:10239000AF92BF92CF92DF92EF92FF920F931F9373
:1023A000CF93DF939C01EB0181E0B9010E94720F92
:1023B000813019F021E030E0D1C0A090BE05B0908E
:1023C000BF05C090C005D090C1058EEF9FEFAFEF65
:1023D000BFEFA80EB91ECA1EDB1E60919B0570914F
:1023E0009C05E0906103F0906203009163031091FB
:1023F000640380E090E0A60195010E94C4183B01AF
:102400004C016E0C7F1C801E911E60919B0570918B
:102410009C05E0906103F0906203009163031091CA
:10242000640380E090E00E94C418E60EF71E081FC7
:10243000191FE0929403F092950300939603109372
:10244000970380E090E010E036C0FC01E656FC4FB8
:10245000208301962196A2E080309A0760F1609176
:1024600094037091950380919603909197030E9435
:1024700095061F5F20919B0530919C05812F90E070
:102480008217930719F480E090E018C080919403BC
:1024900090919503A0919603B09197030196A11D89
:1024A000B11D8093940390939503A0939603B093EA
:1024B000970380E090E02881243239F66881643205
:1024C00009F5FC01E656FC4F608304C0FC01E656AA
:1024D000FC4F10820196B2E080309B07B8F3609108
:1024E00094037091950380919603909197030E94B5
:1024F000950688EE93E028EC30E0F9013197F1F78A
:102500000197D9F7C401B3010E94E30688EE93E076
:1025100028EC30E0F9013197F1F70197D9F7809174
:10252000650390916603A0916703B091680380935F
:10253000B6039093B703A093B803B093B903C40153
:10254000B3010E94950688EE93E028EC30E0F90193
:102550003197F1F70197D9F720E030E0C901DF9119
:10256000CF911F910F91FF90EF90DF90CF90BF9090
:10257000AF909F908F907F906F9008952F923F9291
:102580004F925F926F927F928F929F92AF92BF9283
:10259000CF92DF92EF92FF920F931F93DF93CF932F
:1025A000CDB7DEB72A970FB6F894DEBF0FBECDBF0A
:1025B0008C0110924E030E943907882311F082E0AB
:1025C000D9C081E0B8010E94930C9C01009709F4E6
:1025D000D0C0DC0154968D919C915597A0E0B0E05D
:1025E0005C0199248824F901828D938DA0E0B0E0EC
:1025F000882A992AAA2ABB2AD9015C968D919D9195
:102600000D90BC91A02D89839A83AB83BC831092DB
:10261000C4051D821E821F82188620919B05309161
:102620009C05E0906103F0906203009163031091B8
:102630006403C501B401625070408040904040E0A6
:1026400050E00E94C4182B013C014E0C5F1C601E20
:10265000711E33246FC0C301B201630D711D811D52
:10266000911D0E94E306CD80DE80EF80F884222455
:10267000D701C60180509E4FAF4FBF4F29813A818D
:102680004B815C81C216D306E406F50610F02224C5
:1026900023940894C11CD11CE11CF11CC816D90656
:1026A000EA06FB0659F7E0E0F0E08091C4058823D4
:1026B00029F01092C4050E94BF045BC01B9902C0A0
:1026C0008F0118C08F01AF01405E5F4F5A87498765
:1026D000F801E656FC4F80810E94C90452E00030A8
:1026E000150709F446C00F5F1F4F89859A850817A3
:1026F000190771F780915303882311F00E94F602A5
:102700008091C505882311F00E9479038091990377
:10271000882319F081E00E94481592E000301907E3
:1027200010F4F801C2CF222021F53394CD82DE824D
:10273000EF82F88620919B0530919C05832D90E0D7
:102740008217930708F487CFC501B40140E000E089
:1027500010E020E030E00E94160C4B015C01611596
:1027600071058105910509F058CF87E692E00E9436
:10277000B90380E02A960FB6F894DEBF0FBECDBF36
:10278000CF91DF911F910F91FF90EF90DF90CF904D
:10279000BF90AF909F908F907F906F905F904F9081
:1027A0003F902F9008950F931F93CF93DF93FC01D9
:1027B000B2818C010D5F1F4F60E070E0B550AB2F10
:1027C000A695CA2FD0E0AE014F5F5F4F440F551F53
:1027D0004E0F5F1F08C0318120E0828190E0822B84
:1027E000932B680F791F3296E417F507A1F7AA0F0C
:1027F000FE01EE0FFF1FE00FF11FBA1721F08081DD
:1028000090E068277927CB01DF91CF911F910F913D
:10281000089581E0089580917003882381F080916C
:102820009A05823039F0833041F0813041F40E94C2
:10283000E61608950E943C1708950E940C1808950A
:1028400080917003882381F080919A05823039F05D
:10285000833041F0813041F40E941F1708950E9497
:10286000E91708950E944518089590919A059230AD
:1028700039F0933041F0913041F40E94F6160895FA
:102880000E944E1708950E941C18089590919A0571
:10289000923039F0933041F0913041F40E94ED16BE
:1028A00008950E94451708950E9413180895809175
:1028B0009A05823039F0833041F0813041F40E9432
:1028C000EC1608950E94441708950E941218089566
:1028D00080919A05823039F0833041F0813041F4A3
:1028E0000E94EB1608950E94431708950E94111844
:1028F000089580919A05823039F0833051F081300B
:1029000061F48CE191E002C084E291E00E94D30383
:1029100008958CE291E00E94D30308951F931091D3
:10292000A205133009F44AC0143030F4113071F0AC
:10293000123009F0ABC025C0153009F48EC0153037
:1029400008F45AC0163009F0A1C094C08DE593E098
:102950000E94B9038DE00E94B1038AE00E94B10396
:1029600080917003882351F480919803882309F49F
:102970008DC0109370030E940B1488C00E946814CD
:1029800085C08DE493E00E94B9038DE00E94B103FD
:102990008AE00E94B10380917003882309F476C015
:1029A0008091A305853439F41092700384E391E09B
:1029B0000E94D3036BC00E94571468C08EE393E05B
:1029C0000E94B9038DE00E94B1038AE00E94B10326
:1029D00080917003882309F059C0809198038F5F1C
:1029E000809398039091980380919303891738F509
:1029F00080919803815018C08FE293E00E94B90340
:102A00008DE00E94B1038AE00E94B10380917003BF
:102A10008823E1F5809198038150809398038091F9
:102A20009803882361F481E080939803E0919803F0
:102A3000F0E0EC57FC4F808180939A0527C0E0912D
:102A40009803F0E0EC57FC4F808180939A0581E079
:102A50008093C4050E94791419C080E293E00E941B
:102A6000B9038DE00E94B1038AE00E94B1030E9485
:102A700087040CC08FE093E00E94B9038DE00E94B0
:102A8000B1038AE00E94B1030E944F041F91089590
:102A90000F931F93DF93CF93CDB7DEB72A970FB66F
:102AA000F894DEBF0FBECDBF182F00919F058DE9B2
:102AB00095E00E94D313A02FB0E0FD01E556FA4F38
:102AC0006081A456BA4F4C91362F20E050E0242B61
:102AD000352B8217930709F074C08091A00580916F
:102AE000A105112341F0843431F40E948E1481E059
:102AF000809399036DC0823489F0833420F481344B
:102B000009F063C006C0843471F0853409F05DC0FB
:102B10000DC08091A2050E94461457C08091A20565
:102B20000E94351452C00E948E144FC08091A2059D
:102B300089838091A3058A838091A4058B838DE688
:102B400093E00E94B9032091A2053091A305409122
:102B5000A4058DB79EB70A970FB6F8949EBF0FBE17
:102B60008DBFEDB7FEB731968E010F5F1F4FADB72A
:102B7000BEB712961C930E9311978BE391E093834B
:102B800082832483158236831782408711860E94B0
:102B90002B198DB79EB70A960FB6F8949EBF0FBE3D
:102BA0008DBFC8010E94C6038DE00E94B1038AE078
:102BB0000E94B1038DE00E94B1038AE00E94B1033C
:102BC00004C01092990380E003C01092990381E041
:102BD0002A960FB6F894DEBF0FBECDBFCF91DF911E
:102BE0001F910F910895AF92BF92DF92EF92FF92E3
:102BF0000F931F93DF93CF93CDB7DEB7C956D04065
:102C00000FB6F894DEBF0FBECDBF1092930356E00F
:102C1000E52EF12CEC0EFD1EF701C7011E2D092F2C
:102C2000CE0186599F4F1192E817F907E1F784E426
:102C300091E0612F702F0E948E0E882309F0B4C09E
:102C4000812F902F0E94C6038DE00E94B1038AE07D
:102C50000E94B10390E043E0A42EB12CAC0EBD1E47
:102C60002EC08E3389F480919303082F10E0C501A4
:102C70000E9405190B571C4FD8018C938091930328
:102C80008F5F8093930302C0992339F41B821C82C7
:102C90001D8220E030E090E00AC02330310509F4C5
:102CA00083C0F501E20FF31F80832F5F3F4FF701D1
:102CB00080818C3309F491E00894E11CF11CD70168
:102CC0008C91843271F680EA93E00E94B9031982F4
:102CD0001A822091930300D000D000D0EDB7FEB748
:102CE00031968E010F5F1F4FADB7BEB712961C9382
:102CF0000E9311978EE491E093838283248315824F
:102D00000E942B19EDB7FEB736960FB6F894FEBFAA
:102D10000FBEEDBFC8010E94C6038DE00E94B10343
:102D20008AE00E94B1038CE893E00E94B903EE248C
:102D3000FF24D02E012F21E5A22E21E0B22E26C0A5
:102D4000F701EB57FC4F808100D000D000D0EDB7E9
:102D5000FEB73196ADB7BEB71196DC9211971296B9
:102D60000C93B382A282848315820E942B19EDB743
:102D7000FEB736960FB6F894FEBF0FBEEDBF8D2D91
:102D8000902F0E94C6030894E11CF11C80919303CC
:102D900090E0E816F906A4F28DE00E94B1038AE003
:102DA0000E94B10381E001C080E0C759DF4F0FB638
:102DB000F894DEBF0FBECDBFCF91DF911F910F9171
:102DC000FF90EF90DF90BF90AF9008951092E305D1
:102DD0001092E2050895089508958093E10582E038
:102DE00090E09093E3058093E20508950895809123
:102DF000E1058333A1F0843328F4813351F0823329
:102E0000E9F40AC0853389F0853360F08633B1F484
:102E100011C086E591E00BC080E691E008C08AE62B
:102E200091E005C084E791E002C08EE791E00E9446
:102E3000D303089588E891E00E94D3030895809118
:102E4000E2059091E305009719F00297A1F40BC0F9
:102E500082E991E00E94D30381E090E09093E30542
:102E60008093E20508950E94F71681E090E0909328
:102E7000E3058093E20508951092E3051092E205C0
:102E80001092E5050895089508958093E50583E07F
:102E900090E09093E3058093E2050895982F809148
:102EA000E505882341F09093E40582E090E090935B
:102EB000E3058093E20508958091E5058333A1F051
:102EC000843328F4813351F08233E9F40AC0853326
:102ED00089F0853360F08633B1F411C08DE991E05B
:102EE0000BC087EA91E008C081EB91E005C08BEB55
:102EF00091E002C085EC91E00E94D30308958FEC2D
:102F000091E00E94D30308958091E40590E0FC01D4
:102F1000E156F040EA31F10508F056C0EA5BFF4F98
:102F2000EE0FFF1F0590F491E02D099489ED91E0DB
:102F30004DC083EE91E04AC08DEE91E047C087EF2F
:102F400091E044C081E092E041C08BE092E03EC05D
:102F500085E192E03BC08FE192E038C089E292E0E7
:102F600035C083E392E032C08DE392E02FC087E466
:102F700092E02CC081E592E029C08BE592E026C06A
:102F800085E692E023C08FE692E020C089E792E0D8
:102F90001DC083E892E01AC08DE892E017C087E96F
:102FA00092E014C081EA92E011C08BEA92E00EC078
:102FB00085EB92E00BC08FEB92E008C089EC92E0C9
:102FC00005C083ED92E002C08DED92E00E94D30334
:102FD00008958091E2059091E3058230910551F0CA
:102FE0008330910581F0892BB1F488EE92E00E9444
:102FF000D30302C00E94841781E090E09093E30520
:103000008093E20508950E945C1781E090E0909320
:10301000E3058093E20508951092E8051092E70514
:103020000895089508958093E60582E090E09093D6
:10303000E8058093E705089508958091E6058333B8
:10304000A1F0843328F4813351F08233E9F40AC0CB
:10305000853389F0853360F08633B1F411C083EF96
:1030600092E00BC08DEF92E008C087E093E005C0CE
:1030700081E193E002C08BE193E00E94D3030895C5
:1030800085E293E00E94D30308958091E705909133
:10309000E805009719F00297A1F40BC08FE293E0C6
:1030A0000E94D30381E090E09093E8058093E705C8
:1030B00008950E941D1881E090E09093E8058093A8
:1030C000E70508950F931F93DF93CF93CDB7DEB736
:1030D00064970FB6F894DEBF0FBECDBF8E010F5FB1
:1030E0001F4FF801CE0145961192E817F907E1F755
:1030F00080E00E94960B23E030E009C0F901EF5810
:10310000FC4F8081F80181938F012F5F3F4F8091A9
:10311000C70590E0281739078CF38AE393E0BE01D6
:103120006F5F7F4F0E94C411892B19F485EC93E0E7
:1031300002C08BEB93E00E94B9038DE00E94B103C3
:103140008AE00E94B10364960FB6F894DEBF0FBE0A
:10315000CDBFCF91DF911F910F91089510924B0336
:10316000809173038D3469F0883769F48DEC93E0B6
:103170000E94B9038DE00E94B1038AE00E94B1036E
:1031800008950E9462180895629FD001739FF00114
:10319000829FE00DF11D649FE00DF11D929FF00DE7
:1031A000839FF00D749FF00D659FF00D9927729F1E
:1031B000B00DE11DF91F639FB00DE11DF91FBD01A9
:1031C000CF0111240895A1E21A2EAA1BBB1BFD01F9
:1031D0000DC0AA1FBB1FEE1FFF1FA217B307E407F6
:1031E000F50720F0A21BB30BE40BF50B661F771F4E
:1031F000881F991F1A9469F760957095809590952E
:103200009B01AC01BD01CF010895FC0188279927DE
:10321000E89421912032E9F3293010F02E30C8F3E0
:103220002B3241F02D3239F4689404C00E942319E6
:10323000820F911D219120532A30C0F31EF49095E6
:1032400081959F4F08957AE0979F902D879F802DBD
:10325000910D112408950F931F93DF93CF93CDB752
:10326000DEB72E970FB6F894DEBF0FBECDBF0D8927
:103270001E8986E08C831A8309838FEF9FE79E83E4
:103280008D839E01275E3F4FCE0101966F89788D19
:10329000A9010E945C192F813885020F131FF801C4
:1032A00010822E960FB6F894DEBF0FBECDBFCF9121
:1032B000DF911F910F9108952F923F924F925F924D
:1032C0006F927F928F929F92AF92BF92CF92DF9236
:1032D000EF92FF920F931F93DF93CF93CDB7DEB79B
:1032E0002B970FB6F894DEBF0FBECDBF3C012B016C
:1032F0005A01FC0117821682838181FD03C06FEFA2
:103300007FEFC6C19AE0892E1E010894211C311C52
:10331000F3012381F20123FD859123FF81912F0188
:10332000882309F4B2C1853239F423FD859123FF46
:1033300081912F01853229F490E0B3010E94781B1E
:10334000E7CF982FFF24EE249924FFE1FF15D0F05A
:103350009B3269F09C3228F4903259F0933291F408
:103360000EC09D3249F0903369F441E024C052E030
:10337000F52A84E0F82A28C098E0F92A25C0E0E17F
:10338000FE2A22C0F7FC29C0892F80538A3070F4AE
:10339000F6FE05C0989C902C1124980E15C0E89C50
:1033A000E02C1124E80EF0E2FF2A0EC09E3229F430
:1033B000F6FC6BC140E4F42A07C09C3619F450E8CF
:1033C000F52A02C0983649F4F20123FD959123FFB6
:1033D00091912F01992309F0B8CF892F855483301B
:1033E00018F08052833038F444E050E0A40EB51E4B
:1033F0005FE359830FC0933631F0933779F09335FB
:1034000009F056C020C0F5018081898342E050E078
:10341000A40EB51E610101E010E012C0F501C080EC
:10342000D180F6FC03C06FEF7FEF02C0692D70E022
:1034300042E050E0A40EB51EC6010E946D1B8C0137
:103440005FE7F52214C0F501C080D180F6FC03C00F
:103450006FEF7FEF02C0692D70E042E050E0A40EF4
:10346000B51EC6010E94621B8C0150E8F52AF3FECE
:1034700007C01AC080E290E0B3010E94781BEA9472
:103480008E2D90E008171907A8F30EC0F601F7FC7F
:103490008591F7FE81916F0190E0B3010E94781B46
:1034A000E110EA94015010400115110579F7EAC0C6
:1034B000943611F0993669F5F7FE08C0F5012081C0
:1034C00031814281538184E090E00AC0F50180811E
:1034D00091819C01442737FD4095542F82E090E074
:1034E000A80EB91E9FE6F92257FF09C050954095D6
:1034F000309521953F4F4F4F5F4FE0E8FE2ACA01BC
:10350000B901A1012AE030E00E94A41BD82ED218F4
:1035100040C0953729F41F2D1F7E2AE030E01DC0E2
:103520001F2D197F9F3661F0903720F4983509F0F0
:10353000ACC00FC0903739F0983709F0A6C004C06E
:1035400028E030E00AC0106114FD146020E130E092
:1035500004C014FD166020E132E017FF08C0F50139
:10356000608171818281938144E050E008C0F5015F
:1035700080819181BC0180E090E042E050E0A40EA7
:10358000B51EA1010E94A41BD82ED2188FE7F82ED9
:10359000F122F6FE0BC05EEFF522D91438F4F4FEEA
:1035A00007C0F2FC05C08FEEF82202C01D2D01C03D
:1035B000192DF4FE0DC0FE01ED0DF11D808180334B
:1035C00019F499EEF92208C01F5FF2FE05C003C08E
:1035D0008F2D867809F01F5F0F2DF3FC14C0F0FECD
:1035E0000FC01E1510F09D2C0BC09D2C9E0C911A27
:1035F0001E2D06C080E290E0B3010E94781B1F5F81
:103600001E15C0F304C01E1510F4E11A01C0EE240B
:1036100004FF0FC080E390E0B3010E94781B02FF1B
:103620001DC001FD03C088E790E00EC088E590E072
:103630000BC0802F867891F001FF02C08BE201C0A1
:1036400080E2F7FC8DE290E0B3010E94781B06C097
:1036500080E390E0B3010E94781B9A94D914C0F3E0
:10366000DA94F101ED0DF11D808190E0B3010E942B
:10367000781BDD20A9F706C080E290E0B3010E942C
:10368000781BEA94EE20C1F743CEF301668177817F
:10369000CB012B960FB6F894DEBF0FBECDBFCF91F6
:1036A000DF911F910F91FF90EF90DF90CF90BF902F
:1036B000AF909F908F907F906F905F904F903F90D2
:1036C0002F900895FC010590615070400110D8F7CB
:1036D000809590958E0F9F1F0895FC01615070405A
:1036E00001900110D8F7809590958E0F9F1F089537
:1036F0000F931F93CF93DF938C01EB018B8181FF9D
:103700001BC082FF0DC02E813F818C819D812817B7
:10371000390764F4E881F9810193F983E88306C0ED
:10372000E885F985802F0995892B31F48E819F8159
:1037300001969F838E8302C00FEF1FEFC801DF91B8
:10374000CF911F910F910895FA01AA27283051F1C6
:10375000203181F1E8946F936E7F6E5F7F4F8F4FC2
:103760009F4FAF4FB1E03ED0B4E03CD0670F781F21
:10377000891F9A1FA11D680F791F8A1F911DA11D06
:103780006A0F711D811D911DA11D20D009F468943F
:103790003F912AE0269F11243019305D3193DEF6E7
:1037A000CF010895462F4770405D4193B3E00FD09D
:1037B000C9F7F6CF462F4F70405D4A3318F0495D88
:1037C00031FD4052419302D0A9F7EACFB4E0A6956B
:1037D0009795879577956795BA95C9F7009761058D
:1037E000710508959B01AC010A2E069457954795E3
:1037F00037952795BA95C9F7620F731F841F951FD8
:08380000A01D0895F894FFCF0C
:10380800494E542E4D5033002020202020202020C7
:103818002020202020204279746573004D44312EE9
:103828004D5033004D44322E4D5033004D44332E0D
:103838004D5033004D4D2E4D50330025642C2564DA
:103848002C2564004D4F4445532E444154002564B3
:103858000025642C20004D44315F312E4D5033003B
:103868004D44315F322E4D5033004D44315F332E7D
:103878004D5033004D44315F342E4D5033004D448C
:10388800315F352E4D5033004D44315F362E4D504B
:1038980033004D4431494E542E4D5033004D443180
:1038A8005F312E4D5033004D44315F322E4D503331
:1038B800004D44315F332E4D5033004D44315F3459
:1038C8002E4D5033004D44315F352E4D5033004D51
:1038D80044315F362E4D5033004D44325F612E4DDA
:1038E8005033004D44325F622E4D5033004D443208
:1038F8005F632E4D5033004D44325F642E4D50337C
:10390800004D44325F652E4D5033004D44325F66A2
:103918002E4D5033004D44325F672E4D5033004DCD
:1039280044325F682E4D5033004D44325F692E4D4E
:103938005033004D44325F6A2E4D5033004D4432AF
:103948005F6B2E4D5033004D44325F6C2E4D50331B
:10395800004D44325F6D2E4D5033004D44325F6E42
:103968002E4D5033004D44325F6F2E4D5033004D75
:1039780044325F702E4D5033004D44325F712E4DEE
:103988005033004D44325F722E4D5033004D443257
:103998005F732E4D5033004D44325F742E4D5033BB
:1039A800004D44325F752E4D5033004D44325F76E2
:1039B8002E4D5033004D44325F772E4D5033004D1D
:1039C80044325F782E4D5033004D44325F792E4D8E
:1039D8005033004D44325F7A2E4D5033004D4432FF
:1039E8004552312E4D5033004D4432494E542E4DE0
:1039F8005033004D44335F312E4D5033004D443326
:103A08005F322E4D5033004D44335F332E4D5033CB
:103A1800004D44335F342E4D5033004D44335F35F1
:103A28002E4D5033004D44335F362E4D5033004DEC
:103A38004433494E542E4D5033004D4F4445532E78
:043A480044415400A1
:00000001FF
