S0150000534142545F4D61696E556E69742E7372656361
S11300000C9476010C9495010C9495010C94950133
S11300100C9495010C9495010C9495010C94950104
S11300200C9495010C9495010C9495010C949501F4
S11300300C9495010C9497010C9495010C949501E2
S11300400C9495010C9495010C9495010C949501D4
S11300500C94DB020C9495010C9495010C9495017D
S11300600C9495010C9495010C9495010C949501B4
S11300700C94A6010C9495010C9495010C94950193
S11300800C9495010C9495010C94950146415433BC
S1130090322066696C652073797374656D206465BC
S11300A07465637465642E2E2E00464154333220E9
S11300B06E6F7420666F756E642100556E6B6E6F83
S11300C0776E2053442043617264204465746563F1
S11300D0746564005374616E64617264204361707A
S11300E061636974792043617264202856657220C3
S11300F0322E782920446574656374656400486908
S11301006768204361706163697479204361726434
S1130110204465746563746564005374616E64613E
S1130120726420436170616369747920436172640D
S1130130202856657220312E782920446574656321
S1130140746564004361726420496E697469616C0A
S1130150697A6174696F6E206661696C65642E2EBC
S11301600053442063617264206E6F74206465746C
S113017065637465642E2E004572726F7220696E19
S1130180697469616C697A696E67205653313035D8
S113019033202D20434F444520005653313035330E
S11301A0204D5033206368697020737563657373E1
S11301B066756C6C7920696E697469616C697A65BD
S11301C06400496E76616C69642066696C655F6E73
S11301D0616D652E004572726F7220696E206765CD
S11301E07474696E6720636C7573746572005472FD
S11301F0616E736D697474696E6720426565700021
S11302004572726F7220696E2067657474696E67D7
S113021020636C7573746572004572726F72206925
S11302206E2067657474696E6720636C757374659A
S113023072004572726F7220696E2067657474690A
S11302406E6720636C7573746572004572726F72A9
S113025020696E2067657474696E6720636C7573BA
S113026074657200524F4F540044495200202020BC
S11302700046494C45002020200046696C652064F6
S1130280656C65746564210044656C6574696E67AA
S11302902E2E005B46415433325D2046696C652046
S11302A0646F6573206E6F742065786973740A0DCA
S11302B000416E616C6F6720496E707574206368CD
S11302C0616E6E656C2C4D53422C4C5342203A00A7
S11302D0534142542D4641494C00534142542D4F01
S11302E04B00534142542D76322E310011241FBE4F
S11302F0CFEFD0E4DEBFCDBF14E2A0E0B1E0E2E690
S1130300F0E900E00BBF02C007900D92A837B107D7
S1130310D9F71EE2A8E7B4E201C01D92A637B107DF
S1130320E1F70E940C030C942F480C9400001F92D8
S11303300F920FB60F9211248F9381E08093C12DF9
S11303408F910F900FBE0F901F9018951F920F92D0
S11303500FB60F9211248F938091CE0080930A29B7
S113036081E08093F1288F910F900FBE0F901F9022
S11303701895EF92FF920F931F931092C12D109234
S11303800F291092E22D81E08093DD2D12B88FEFBA
S113039081B912B88AB1806E8AB9109280008DE05A
S11303A08093810086E891E090938900809388008F
S11303B080916F00826080936F000E94A90380E0A7
S11303C091E00E94CE0387E191E00E94CE038CE28B
S11303D091E00E94CE038CE391E00E94CE030E9440
S11303E037038CE491E00E94CE0381E591E00E9402
S11303F0CE030E94DB058CE491E00E94CE0388E5E5
S113040091E00E94CE0378948CE491E00E94CE03A4
S113041081E00E94C0128AE691E00E94CE0389E73F
S113042091E00E943F130E94291886E891E00E94FF
S1130430CE038BE991E00E94CE0386EB91E00E940B
S11304402A1202C00E9455118091F8288823D1F302
S113045082EC91E00E94CE0300D000D000D0EDB732
S1130460FEB7319604E519E2ADB7BEB712961C93F8
S11304700E9311978EEC91E09383828381E090E058
S1130480958384830E9448458DB79EB706960FB620
S1130490F8949EBF0FBE8DBFC8010E94CE0300D04A
S11304A000D000D0EDB7FEB73196ADB7BEB7129607
S11304B01C930E9311978FED91E09383828382E0D6
S11304C0E82EF12CF582E4820E9448458DB79EB750
S11304D006960FB6F8949EBF0FBE8DBFC8010E944A
S11304E0CE0300D000D000D0EDB7FEB73196ADB743
S11304F0BEB712961C930E9311978FEE91E09383DF
S11305008283F582E4820E9448458DB79EB70696A1
S11305100FB6F8949EBF0FBE8DBFC8010E94CE03D4
S113052000D000D000D0EDB7FEB73196ADB7BEB75E
S113053012961C930E93119781E092E09383828329
S113054084E090E0958384830E9448458DB79EB7EC
S113055006960FB6F8949EBF0FBE8DBFC8010E94C9
S1130560CE0300D000D000D0EDB7FEB73196ADB7C2
S1130570BEB712961C930E93119782E192E0938377
S11305808283F582E4820E9448458DB79EB7069621
S11305900FB6F8949EBF0FBE8DBFC8010E94CE0354
S11305A084E292E069E272E00E94DA281F910F91DE
S11305B0FF90EF9008951F920F920FB60F920BB613
S11305C00F9211242F933F934F935F936F937F93D5
S11305D08F939F93AF93BF93EF93FF938091C60044
S11305E08093442981E08093E52D809144290E94E1
S11305F0B903FF91EF91BF91AF919F918F917F913B
S11306006F915F914F913F912F910F900BBE0F907F
S11306100FBE0F901F9018950E94B9018091F12888
S1130620882311F00E944D038091E52D882311F059
S11306300E94E1038091C12D882311F01092C12DF5
S11306408091EA28882311F00E948D21809110293D
S1130650882321F080910F290E9475170E943E156E
S11306608091DA198823D1F60E949328D7CFE9EC38
S1130670F0E010821092C80086E08093CA0089E1FD
S11306808093CC001092CD0088E980831092F42DE1
S11306901092EF2D1092102908951092F128809154
S11306A0EF2D8823E9F420910A292093F32D9091CA
S11306B0F22D9093F12D2093F22D953509F048C039
S11306C0293409F045C081E08093EF2D9093A22B4B
S11306D02093A32B82E08093EE2D1092F42D0895A5
S11306E08091F42D9091EE2D8823A1F4923079F429
S11306F080910A298093F02D80910A298093A42B5C
S113070081E08093F42D83E08093EE2D0895109280
S1130710EF2D0895E92FF0E080910A29EE55F44D6C
S11307208083E92FEF5FE093EE2DE33130F01092F8
S113073010291092EF2D1092F42D8091F02DE817CE
S113074039F481E0809310291092EF2D1092F42D4A
S11307500895E1ECF0E010821092C00086E08093EE
S1130760C20089E18093C4001092C50088E98083A7
S11307700895982F8091C00085FFFCCF9093C60008
S11307800895FC0107C08091C00085FFFCCF31961D
S11307909093C60094919923B1F70895FC0107C082
S11307A08091C00085FFFCCF31969093C600908164
S11307B09923B1F78091C00085FFFCCF1092C60049
S11307C008951092E52D8091E22D8F5F8093E22DA4
S11307D0809144298D3069F41092E22D8091DD2DB1
S11307E0882339F481E08093DD2D8EE292E00E942B
S11307F0CE038091FC2D882319F590914429909380
S1130800F72D2091F62D2093F52D9093F62D20357C
S113081081F4933471F43091E22D323061F581E04A
S11308208093FC2D2093C22D9093C32D3093F82DEB
S113083022C08091E22D8230F1F41092DD2D1BC094
S1130840809144298D3059F48091F82D8093FA2DAC
S11308501092FB2D81E08093EA281092FC2D809168
S1130860F82DE82FF0E090914429EE53F24D908357
S11308708F5F8093F82D80E008951F93182F809345
S1130880FF2D0E94F30583E00E940906812F0E9438
S113089009060E940F0690E09093792480937824AF
S11308A00E940F0690E090937B2480937A24809199
S11308B078249091792420917A2430917B24982F64
S11308C08827820F931F90937D2480937C240E9419
S11308D0EA0520917C2430917D24C9011F9108955B
S11308E01F93182F7093FE2D6093FD2D8093FF2D81
S11308F00E94F30582E00E940906812F0E940906E6
S11309008091FE2D0E9409068091FD2D0E9409060A
S11309100E94EA051F91089580E064E078E00E9457
S1130920700480E49CE90197F1F708951F93182F50
S11309300E94EE05812F0E9409060E94EA051F917C
S113094008950F931F93CF93DF9380917E24885F44
S113095080937E24803518F080E580937E24209156
S11309607E2430E0922F8827822B932B909380242F
S113097080937F24C0E0D0E009C08BE00E94700423
S1130980CB30D10511F480E038C021968BE00E9471
S11309903D049C0160917F24709180248617970701
S11309A061F700D000D000D0EDB7FEB7319601E872
S11309B014E2ADB7BEB712961C930E9311978AE555
S11309C092E093838283358324830E9448458DB7C4
S11309D09EB706960FB6F8949EBF0FBE8DBFC80192
S11309E00E94CE0380910F29882331F48FE692E090
S11309F064E772E00E94DA2881E0DF91CF911F91D1
S1130A000F9108950F931F93CF93DF9380917E24CA
S1130A10885080937E24893018F488E080937E2463
S1130A2020917E2430E0922F8827822B932B909361
S1130A30802480937F24C0E0D0E009C08BE00E9432
S1130A407004CB30D10511F480E038C021968BE0DE
S1130A500E943D049C0160917F247091802486173C
S1130A60970761F700D000D000D0EDB7FEB73196FC
S1130A7001E814E2ADB7BEB712961C930E9311971A
S1130A808AE592E093838283358324830E944845D8
S1130A908DB79EB706960FB6F8949EBF0FBE8DBF56
S1130AA0C8010E94CE0380910F29882331F48FE678
S1130AB092E064E772E00E94DA2881E0DF91CF914E
S1130AC01F910F9108950F931F930E94EA052C988C
S1130AD000E41CE9C8010197F1F72C9A0E94020670
S1130AE0C8010197F1F700E00AC083E060E078E90B
S1130AF00E9470040B3011F481E05AC00F5F83E050
S1130B000E943D048050984981F780E49CE9019754
S1130B10F1F700E00AC08BE06EEF7EEF0E947004F4
S1130B200B3011F482E044C00F5F8BE00E943D045F
S1130B308E5F9E4F81F785E065E47CEA0E94700435
S1130B4088E180937E2488E198E1909380248093C7
S1130B507F2400E008C08BE00E9470040B3011F485
S1130B6083E026C00F5F8BE00E943D0460917F24E8
S1130B70709180248617970771F700E00AC080E01F
S1130B8060E078E00E9470040B3011F484E010C03F
S1130B900F5F80E00E943D048050984081F780E41C
S1130BA09CE90197F1F70E948C040E94F80580E00B
S1130BB01F910F91089584B1876184B9239887EBBD
S1130BC084B980E58CBD8CB583608CBD8DB58E7F7A
S1130BD08DBD089585B1876085B9089585B1876015
S1130BE085B92A98089585B1876085B929980895AB
S1130BF08CB58D7F8CBD8CB58E7F8CBD8DB58160A1
S1130C008DBD08958CB583608CBD8DB58E7F8DBDF3
S1130C1008958EBD0DB407FEFDCF8EB508958FEFF8
S1130C208EBD0DB407FEFDCF8EB50895DF92EF9211
S1130C30FF920F931F93D82E7A018B018091B62BCC
S1130C408823B9F48D2D8151823060F088E1D81663
S1130C5049F089E1D81631F080E2D81619F081E222
S1130C60D81639F439E0EE0CFF1C001F111F3A9519
S1130C70D1F728988D2D80640E940906812F992729
S1130C80AA27BB270E940906C801AA27BB270E94DE
S1130C900906BB27A12F902F8F2D0E9409068E2DA8
S1130CA00E94090688E0D81611F487E801C085E996
S1130CB00E94090610E002C01150D1F00E940F06F4
S1130CC0082F8F3FC9F3882399F48AE3D81681F457
S1130CD00E940F0686FF04C081E08093B62B02C0F9
S1130CE01092B62B0E940F060E940F060E940F0658
S1130CF00E940F06289A802F1F910F91FF90EF906A
S1130D00DF900895CF93DF93AB01BC0188E10E948B
S1130D101606882311F0982F3FC028988EEF0E9462
S1130D200906C0E0D0E0FE01E256F64D80810E9443
S1130D300906219682E0C030D807A9F78FEF0E94F8
S1130D4009068FEF0E9409060E940F06982F8F71E3
S1130D50853041F0289A20C08FEFCF3FD80791F01B
S1130D60219602C0C0E0D0E00E940F068823A1F3C0
S1130D70289A8FEF0E940906289808C08FEFCF3F6A
S1130D80D80719F4289A91E007C021960E940F060B
S1130D908823A1F3289A90E0892FDF91CF910895B9
S1130DA01F93CF93DF93AB01BC0181E10E94160630
S1130DB0182F882309F52898C0E0D0E005C02197B2
S1130DC019F4289A11E018C00E940F068E3FB9F753
S1130DD0C0E0D0E00E940F06FE01E854F44D808389
S1130DE0219682E0C030D807A9F70E940F060E941E
S1130DF00F060E940F06289A812FDF91CF911F9131
S1130E0008951F93CF93DF93AB01BC0181E10E944E
S1130E101606182F882309F52898C0E0D0E005C0ED
S1130E20219719F4289A11E018C00E940F068E3FEA
S1130E30B9F7C0E0D0E00E940F06FE01E256F64D7D
S1130E408083219682E0C030D807A9F70E940F065C
S1130E500E940F060E940F06289A812FDF91CF91DE
S1130E601F9108950F931F93CF93DF9310E08FEF9B
S1130E700E9409061F5F1A30D1F72898C0E0D0E01D
S1130E8080E040E050E060E070E00E9416062196A9
S1130E90C132D10511F481E05BC0813089F7289A11
S1130EA08FEF0E9409068FEF0E940906C0E0D0E090
S1130EB088E04AEA51E060E070E00E94160621965C
S1130EC0CF3FD10529F481E08093DB2D01E003C0FD
S1130ED0813071F702E0C0E0D0E087E340E050E009
S1130EE060E070E00E94160689E240E050E060E0B5
S1130EF070E40E941606182F84E599E20E94CE033E
S1130F002196CF3FD10511F482E022C0112329F7A5
S1130F101092B62B0230D9F4C0E0D0E08AE340E06E
S1130F2050E060E070E00E9416062196CF3FD105A4
S1130F3019F41092DB2D02C0882381F78091B62B1F
S1130F40813011F482E001C083E08093DB2D80E0E6
S1130F50DF91CF911F910F910895DC01613099F4D5
S1130F6020E030E0F901E854F44D8081F901319634
S1130F708A3021F4AF014854544D07C09F0182E0E8
S1130F80E030F80779F748EB5BE220E030E0FD0160
S1130F90E20FF31F8081FA01E20FF31FE081E817EB
S1130FA078F08E1718F421E030E00CC0882329F47F
S1130FB0EA3019F420E030E005C02F5F3F4FE7CF5F
S1130FC022E030E0C90108950F931F93DF93CF937C
S1130FD0CDB7DEB72D970FB6F894DEBF0FBECDBFE9
S1130FE08C01582FA12FFC0140E080818E3219F42E
S1130FF0493030F00EC04F5F31964D30B1F758C0D4
S1131000BE016F5F7F4F852F9A2F9C01F901DB0191
S113101008C082EC91E00E94C10381E04AC0819142
S11310208D938E2F851B8417D0F3842F9E012F5F01
S11310303F4F90E205C0F901E80FF11D90838F5FE7
S11310408830C9F7942F9F5FDE011996F801E90FE4
S1131050F11DE081EE2331F0ED938F5F8D3031F09F
S11310609F5FF4CFFE01E80FF11D11829E01225F04
S11310703F4FFB019081892F81568A3110F49052A1
S113108090836F5F7F4F6217730799F720E030E01A
S1131090AE014F5F5F4FF901E350F74DDA01A20F44
S11310A0B31F8C9180832F5F3F4F2D30310599F70B
S11310B080E02D960FB6F894DEBF0FBECDBFCF9162
S11310C0DF911F910F9108958F929F92AF92BF92DB
S11310D0CF92DF92EF92FF920F93DF93CF93CDB72E
S11310E0DEB764970FB6F894DEBF0FBECDBF982E5F
S11310F06A017B01DE011196E8E7F2E084E10190E8
S11311000D928150E1F70CE08CE2882E053011F04D
S1131110093029F4FE01E00FF11D808201505E01C7
S1131120A00EB11CC701B6012AE030E040E050E057
S11311300E9485436063F5016083C701B6012AE01C
S113114030E040E050E00E948543C901DA016C01BF
S11311507D01C114D104E104F10411F00150B1F690
S1131160F1E09F1611F48BE48E87CE0101960E9464
S1131170CE0364960FB6F894DEBF0FBECDBFCF91F9
S1131180DF910F91FF90EF90DF90CF90BF90AF90E1
S11311909F908F9008950F931F93DF93CF93CDB7B4
S11311A0DEB72D970FB6F894DEBF0FBECDBF8C010E
S11311B0582FA12FFC0140E080818E3219F4493070
S11311C030F00EC04F5F31964D30B1F75FC0BE01B5
S11311D06F5F7F4F852F9A2F9C01F901DB010FC0B0
S11311E08CE892E00E94CE03C8010E94CE0380EAFC
S11311F092E00E94CE0381E04AC081918D938E2FAC
S1131200851B8417D0F3842F9E012F5F3F4F90E2FC
S113121005C0F901E80FF11D90838F5F8830C9F78D
S1131220942F9F5FDE011996F801E90FF11DE0810B
S1131230EE2331F0ED938F5F8D3031F09F5FF4CF6B
S1131240FE01E80FF11D11829E01225F3F4FFB0159
S11312509081892F81568A3110F4905290836F5F68
S11312607F4F6217730799F720E030E0AE014F5FBC
S11312705F4FF801E20FF31FDA01A20FB31F8C9145
S113128080832F5F3F4F2D30310599F780E02D96F5
S11312900FB6F894DEBF0FBECDBFCF91DF911F9183
S11312A00F910895CF92DF92EF92FF920F931F93C5
S11312B0D82EC62E79018A016091142970911529BE
S11312C080911629909117296F5F7F4F8F4F9F4F01
S11312D00E94010780919E2990919F29A091A029A5
S11312E0B091A12982559245A146B14409F054C058
S11312F08091822B9091832BA091842BB091852B8C
S113130082579247A144B14609F046C080919A2B76
S113131090919B2BA0919C2BB0919D2B8050904041
S1131320A545BA4AC9F5CC20A9F481E0D81649F4F8
S11313302091862B3091872B4091882B5091892BBB
S11313402FC020918A2B30918B2B40918C2B509164
S11313508D2B26C021E0D21649F4E092862BF09220
S1131360872B0093882B1093892B08C0E0928A2B3B
S1131370F0928B2B00938C2B10938D2B609114295E
S11313807091152980911629909117296F5F7F4FCD
S11313908F4F9F4F0E9482062FEF3FEF4FEF5FEF7B
S11313A0B901CA011F910F91FF90EF90DF90CF9088
S11313B00895DF92EF92FF920F931F93D82EDB01D3
S11313C0CA01E9E0B695A79597958795EA95D1F76F
S11313D0517060707070411551056105710519F403
S11313E0AC01BD0106C0AC01BD014F5F5F4F6F4F43
S11313F07F4FDB01CA0133E0B695A7959795879592
S11314003A95D1F74770507060707070411551056E
S11314106105710519F47C018D0107C07C018D0102
S11314200894E11CF11C011D111D8091B82D882325
S1131430D9F081E060E020E030E040E050E00E943C
S11314405209DD2039F49B01AC012E0D3F1D401FD4
S1131450511F06C09B01AC012E193F09400B510BD3
S113146081E061E00E9452091F910F91FF90EF907B
S1131470DF9008956F927F928F929F92AF92BF9266
S1131480CF92DF92EF92FF920F931F931092142941
S113149010921529109216291092172960E070E015
S11314A080E090E00E94010780919E29893E19F115
S11314B08B3E09F180919C2B90919D2B85559A4AE6
S11314C009F0B0C06091642B7091652B8091662BFC
S11314D09091672B60931429709315298093162992
S11314E0909317290E94010780919E29893E19F043
S11314F08B3E09F097C08091A9299091AA299093D5
S1131500EE288093ED288091AB2990E09093EC280D
S11315108093EB28A090AC29B090AD29B092F72825
S1131520A092F6288091CA299091CB29A091CC2928
S1131530B091CD298093B92D9093BA2DA093BB2D52
S1131540B093BC2DE090F628F090F7286091AE2976
S113155070E080E090E02091C2293091C32940914D
S1131560C4295091C5290E9453433B014C0100E01A
S113157010E08091BA299091BB29A091BC29B09127
S1131580BD29E80EF91E0A1F1B1FE60CF71C081DD7
S1131590191DE092BD2DF092BE2D0093BF2D109326
S11315A0C02D2091EB283091EC28CC24DD246091CF
S11315B0BE297091BF298091C0299091C1296A19CF
S11315C07B098C099D09661977098809990940E006
S11315D050E00E948543C901DA0180939A299093CF
S11315E09B29A0939C29B0939D2981E060E020E091
S11315F030E040E050E00E94520920919A29309155
S11316009B2940919C2950919D292617370748070B
S1131610590718F41092B82D03C081E08093B82DB7
S113162080E001C081E01F910F91FF90EF90DF9067
S1131630CF90BF90AF909F908F907F906F900895C0
S11316404F925F926F927F928F929F92AF92BF92CE
S1131650CF92DF92EF92FF920F931F93CF93DF937A
S11316605B016C01842E280139018091F628909148
S1131670F72802E0AA0CBB1CCC1CDD1C0A95D1F790
S11316802091ED283091EE287C0100E010E080915B
S1131690142990911529A0911629B0911729E80EC3
S11316A0F91E0A1F1B1F40E050E0C601B5010E944D
S11316B08543E20EF31E041F151FC091ED28D0913F
S11316C0EE289924C801B7010E940107882321F05C
S11316D093948AE09816B1F79E0140E050E0C60169
S11316E0B5010E948543FB01E256F64D882031F492
S11316F020813181428153815F700CC040825182CC
S113170062827382C801B7010E94820620E030E041
S113171040E050E0B901CA01DF91CF911F910F91D0
S1131720FF90EF90DF90CF90BF90AF909F908F90FD
S11317307F906F905F904F9008952F923F924F92B9
S11317405F926F927F928F929F92AF92BF92CF924D
S1131750DF92EF92FF920F931F93DF93CF93CDB756
S1131760DEB72A970FB6F894DEBF0FBECDBF8D83C8
S11317707F836E83A090B92DB090BA2DC090BB2DFD
S1131780D090BC2D815088872091EB283091EC2893
S1131790E090BD2DF090BE2D0091BF2D1091C02D75
S11317A0C601B501625070408040904040E050E076
S11317B00E9453431B012C012E0C3F1C401E511E42
S11317C066247724430160C1D401C301820D931DB3
S11317D0A41DB51D89839A83AB83BC83BC01CD0151
S11317E00E94010740E2E42EF12C3EC18A01025618
S11317F0164DF701E256F64DB0978081B0968823D6
S113180041F49D819150923008F068C183E992E0DF
S113181063C1853E09F424C1759780818F3009F432
S11318201FC1A885A23008F0D2C020E030E0C80172
S1131830820F931FAE81BF81A20FB31FFC01908161
S11318408C91981709F00CC1822F8F5F2F5F3F4F47
S11318502B30310561F78B3009F002C1FD81F13085
S113186009F03FC089819A81AB81BC818093402972
S113187090934129A0934229B0934329CA01A0E03F
S1131880B0E08093F9289093FA28A093FB28B093B2
S1131890FC28D80154968D919C915597A0E0B0E016
S11318A0DC0199278827F801228D338D40E050E030
S11318B0822B932BA42BB52B809396299093972955
S11318C0A0939829B0939929848D958DA68DB78D71
S11318D08093EA2D9093EB2DA093EC2DB093ED2DF6
S11318E0FFC08DE00E94B9038AE00E94B90388E832
S11318F092E00E94C1038DE00E94B9038AE00E9435
S1131900B9038DE00E94B9038AE00E94B903D801AB
S113191054968D919C915597A0E0B0E05C01992478
S11319208824F801828D938DA0E0B0E0882A992A5A
S1131930AA2ABB2A85EE808369817A818B819C8166
S11319400E948206D8015C964D915D916D917C91C7
S11319505F9780E00E94D90982E060E020E030E0F7
S113196040E050E00E94520986169706A806B90680
S113197030F482E061E0A50194010E945209C5019E
S1131980B40140E000E010E020E030E00E94200BD1
S1131990F62EE72ED82EC92EC501B40141E000E091
S11319A010E020E030E00E94200B8F2D9E2DAD2D05
S11319B0BC2D4C015D01B7EF8B16BFEF9B06BFEF4B
S11319C0AB06BFE0BB06D8F28AE792E085C08DE0A3
S11319D00E94B9038AE00E94B9031A8619860BC0D3
S11319E0E985E73019F480E20E94B90389859A8574
S11319F001969A878987E985FA85E00FF11F80812E
S1131A000E94B903A985BA851A9751F786E792E02F
S1131A100E94C10387010256164D05511040F8017A
S1131A2080810B5E1F4F8031B9F0883019F484E651
S1131A3092E014C081E792E00E94C1038DE692E037
S1131A400E94C103F80134974081518162817381FE
S1131A5080E00E94640804C089E692E00E94C10309
S1131A6080E290E0E80EF91EA701405250408091B8
S1131A70ED289091EE284817590708F4B7CE08943A
S1131A80611C711C811C911C8091EB289091EC28A5
S1131A90A0E0B0E0681679068A069B0608F494CEA6
S1131AA0C601B50140E000E010E020E030E00E9413
S1131AB0200B5B016C0197EFA9169FEFB9069FEF0E
S1131AC0C9069FE0D90650F4A114B104C104D1049D
S1131AD009F05ACE8BE492E00E94C10300E010E0CA
S1131AE0C8012A960FB6F894DEBF0FBECDBFCF91C2
S1131AF0DF911F910F91FF90EF90DF90CF90BF90F7
S1131B00AF909F908F907F906F905F904F903F9099
S1131B102F9008952F923F924F925F926F927F92EF
S1131B208F929F92AF92BF92CF92DF92EF92FF92E9
S1131B300F931F93DF93CF9300D000D0CDB7DEB7C0
S1131B40E82E8B01CB010E94CB08882311F082E0A0
S1131B5094C081E0B8010E949D0B9C01009709F498
S1131B608BC022242394E21411F481E086C0DC01AA
S1131B7054968D919C915597A0E0B0E06C01BB24E4
S1131B80AA24F901828D938DA0E0B0E0A82AB92A95
S1131B90CA2ADB2AD9015C962D903D904D905C9029
S1131BA05F9729823A824B825C822224332421016A
S1131BB02091EB283091EC28E090BD2DF090BE2DC3
S1131BC00091BF2D1091C02DC601B5016250704027
S1131BD08040904040E050E00E9453433B014C0160
S1131BE06E0C7F1C801E911E10E028C0C401B3013E
S1131BF0610F711D811D911D0E940107D201C10158
S1131C0060E0A201910120503E4F4F4F5F4F298069
S1131C103A804B805C8082159305A405B50508F0D5
S1131C2061E00196A11DB11D82179307A407B507B2
S1131C3071F7662309F51F5F1C012D012091EB2824
S1131C403091EC28812F90E08217930778F2C60137
S1131C50B50140E000E010E020E030E00E94200BFD
S1131C605B016C01611571058105910509F0A0CF37
S1131C7082E392E00E94C10380E00F900F900F90E6
S1131C800F90CF91DF911F910F91FF90EF90DF9014
S1131C90CF90BF90AF909F908F907F906F905F9008
S1131CA04F903F902F9008956F927F928F929F92C2
S1131CB0AF92BF92CF92DF92EF92FF920F931F9356
S1131CC0CF93DF939C01EB0181E0B9010E948A0D5F
S1131CD0813019F021E030E0CFC0A0909629B09077
S1131CE09729C0909829D09099298EEF9FEFAFEF54
S1131CF0BFEFA80EB91ECA1EDB1E6091EB287091BF
S1131D00EC28E090BD2DF090BE2D0091BF2D1091D8
S1131D10C02D80E090E0A60195010E9453433B0151
S1131D204C016E0C7F1C801E911E6091EB287091FB
S1131D30EC28E090BD2DF090BE2D0091BF2D1091A8
S1131D40C02D80E090E00E945343E60EF71E081F6A
S1131D50191FE0929E2BF0929F2B0093A02B1093BF
S1131D60A12B10E034C0FC01E256F64D208301960D
S1131D702196A2E080309A0760F160919E2B7091C9
S1131D809F2B8091A02B9091A12B0E9482061F5F14
S1131D902091EB283091EC28812F90E08217930753
S1131DA019F480E090E018C080919E2B90919F2BB5
S1131DB0A091A02BB091A12B0196A11DB11D8093E0
S1131DC09E2B90939F2BA093A02BB093A12B80E0EC
S1131DD090E02881243239F66881643209F5FC01E7
S1131DE0E256F64D608304C0FC01E256F64D1082C3
S1131DF00196B2E080309B07B8F360919E2B7091FE
S1131E009F2B8091A02B9091A12B0E94820688EE9B
S1131E1093E028EC30E0F9013197F1F70197D9F715
S1131E20C401B3010E94010788EE93E028EC30E07E
S1131E30F9013197F1F70197D9F78091EA2D909143
S1131E40EB2DA091EC2DB091ED2D8093BA299093B8
S1131E50BB29A093BC29B093BD29C401B3010E943E
S1131E60820688EE93E028EC30E0F9013197F1F72F
S1131E700197D9F720E030E0C901DF91CF911F919C
S1131E800F91FF90EF90DF90CF90BF90AF909F9015
S1131E908F907F906F9008952F923F924F925F9210
S1131EA06F927F928F929F92AF92BF92CF92DF9266
S1131EB0EF92FF920F931F93DF93CF93CDB7DEB7CB
S1131EC028970FB6F894DEBF0FBECDBF9A838983DF
S1131ED04B835C836D837E8358874F832091EB28EB
S1131EE03091EC28E090BD2DF090BE2D0091BF2DD7
S1131EF01091C02DCA01880F991F880F991FE09176
S1131F001129F0911229E80FF91F608171818281F2
S1131F109381625070408040904040E050E00E94C5
S1131F2053431B012C012E0C3F1C401E511E2091BB
S1131F30EF283091F0284B815C81240F351FD901A3
S1131F401C91C201B1010E94D006113021F0EE248F
S1131F50FF24870114C020E030E040E050E060E05E
S1131F6070E0FB01E854F44D80816F5F7F4F2F5F79
S1131F703F4F4F4F5F4F8A30A1F779018A016624A2
S1131F8077244301AA24BB2465015AC0C601B501C4
S1131F90620D731D841D951D0E94D006B0E0EB16E2
S1131FA0B2E0FB06B0E00B07B0E01B0718F0EE242C
S1131FB0FF248701E981FA81E60DF71DE081D7014D
S1131FC0A854B44DEE2319F490E08C9195C08C91F3
S1131FD0E81781F40894611C711C811C911C0894FD
S1131FE0E11CF11C011D111D1CC00894E11CF11C15
S1131FF0011D111DF701E854F44D80818A3049F028
S1132000E0E0EE16E2E0FE06E0E00E07E0E01E0788
S113201061F70894E11CF11C011D111D662477244D
S11320204301F0E0EF16F2E0FF06F0E00F07F0E006
S11320301F0708F4BFCF0894A11CB11CC11CD11CFC
S11320408091EB289091EC28A0E0B0E0A816B906A6
S1132050CA06DB0608F49ACF80915229909153293D
S11320600197A0E0B0E02B813C814D815E8128176F
S113207039074A075B0709F454C02091EB283091D3
S1132080EC28E090BD2DF090BE2D0091BF2D109155
S1132090C02D4F8158854F5F5F4F440F551F440F2C
S11320A0551FE0911129F0911229E40FF51F608169
S11320B0718182819381625070408040904040E001
S11320C050E00E945343E60EF71E081F191FC80173
S11320D0B7010E94D006A981BA81A60DB71D20E0E0
S11320E030E040E050E060E070E09C91992341F4DE
S11320F0F901E854F44D80818D30A1F491E012C0CF
S1132100FB01E854F44D8081981759F42F5F3F4F39
S11321104F4F5F4F6F5F7F4F119682E060307807BB
S113212021F790E0892F28960FB6F894DEBF0FBEF2
S1132130CDBFCF91DF911F910F91FF90EF90DF9072
S1132140CF90BF90AF909F908F907F906F905F9053
S11321504F903F902F9008958F929F92AF92BF928D
S1132160CF92DF92EF92FF920F931F93CF93DF935F
S11321704C014091522950915329E091E82DF0915E
S1132180E92D309709F476C05A010894A108B108E2
S1132190848D958DA68DB78D8093EA2D9093EB2D2C
S11321A0A093EC2DB093ED2DCC24DD244AC0C601C0
S11321B08A0D9B1D62E070E00E947243EB01209146
S11321C0EB283091EC28E090BD2DF090BE2D0091CD
S11321D0BF2D1091C02DCB01880F991F880F991F17
S11321E0E0911129F0911229E80FF91F60817181A2
S11321F082819381625070408040904040E050E082
S11322000E945343E60EF71E081F191FC801B701A9
S11322100E94D006E091EF28F091F028EC0FFD1F0A
S1132220C40160810E94AD07009731F181309105AE
S113223029F45E010894A108B10803C00297D1F4FF
S11322406E01C5018C199D0902970CF0B0CF22C014
S113225083EA92E00E94CE03A501662757FD6095AC
S1132260762FC4010E944C0F882331F485EB92E051
S11322700E94CE0380E001C081E0DF91CF911F91E5
S11322800F91FF90EF90DF90CF90BF90AF909F9011
S11322908F900895A601662757FD6095762FC40197
S11322A00E944C0F882341F7D3CF4F925F926F92D5
S11322B07F928F929F92AF92BF92CF92DF92EF92D2
S11322C0FF920F931F93CF93DF936090D72D70905D
S11322D0D82D8090D92D9090DA2D5524C0E0D0E0EF
S11322E04424439480915229909153299C01220FB4
S11322F0331F220F331FE0911129F0911229E20FAD
S1132300F31F608271828282938201969093532993
S1132310809352292091EB283091EC28E090BD2D38
S1132320F090BE2D0091BF2D1091C02DC401B301BA
S1132330625070408040904040E050E00E9453431F
S11323405B016C01AE0CBF1CC01ED11E10E033C07B
S1132350C601B501610F711D811D911D0E94D0063A
S113236020E030E040E050E090E0F901E854F44D22
S113237080818B3209F491E02F5F3F4F4F4F5F4FC5
S1132380203082E0380780E0480780E0580769F78A
S11323905090B72D992371F081E08093F82888EC50
S11323A092E00E94CE038DE00E94B9038AE00E946D
S11323B0B9033EC01F5F2091EB283091EC28812F98
S11323C090E08217930720F280915229909153292B
S11323D0E091EF28F091F0282AE0521621F4E80F5A
S11323E0F91F108203C0E80FF91F4082C401B30132
S11323F040E000E010E020E030E00E94200B3B01D0
S11324004C016093D72D7093D82D8093D92D909340
S1132410DA2D611571058105910529F485ED91E0A9
S11324200E94C10305C02196CC33D10509F05ACFCF
S113243080E0DF91CF911F910F91FF90EF90DF909B
S1132440CF90BF90AF909F908F907F906F905F9050
S11324504F9008950F931F938C0180E092E064E005
S113246070E00E94BB43809311299093122910922B
S113247053291092522980E092E061E070E00E94BA
S1132480BB43FC019093F0288093EF281082C8018D
S11324900E94E407882311F082E026C081E06DEFFA
S11324A078E20E949D0BFC019093E92D8093E82D26
S11324B00097C9F084899589A0E0B0E0DC019927F0
S11324C08827228D338D40E050E0822B932BA42B60
S11324D0B52B8093D72D9093D82DA093D92DB0935D
S11324E0DA2D1092F82880E01F910F910895EF9251
S11324F0FF920F931F93DF93CF93CDB7DEB7C85DE1
S1132500D0400FB6F894DEBF0FBECDBFDE011196EA
S1132510EEE9F3E288ED01900D928150E1F781E05C
S113252080930F2900E010E07E010894E11CF11C67
S11325300CC0F701E00FF11F80810E9496048EEE1B
S113254091E00E94C1030F5F1F4F083D110588F3FE
S11325500E943207882319F000E010E0F6CF1092B1
S11325600F2980E0C852DF4F0FB6F894DEBF0FBECC
S1132570CDBFCF91DF911F910F91FF90EF90089500
S11325800F931F93182F1092DB2D0E943207082FF0
S1132590112309F467C00E946305182F882329F4C6
S11325A08AE991E00E94C10308C088E791E00E9493
S11325B0C103812F805C0E94B9038DE00E94B9039E
S11325C08AE00E94B9030023B1F0013069F481E686
S11325D091E00E94C1038DE00E94B9038AE00E9449
S11325E0B9030E94771206C0023021F484E491E01A
S11325F00E94C103FFCF8091DB2D823039F08330FC
S113260041F0813049F48AE191E008C08EEF90E016
S113261005C084ED90E002C08BEB90E00E94C10302
S113262080ED97E00197F1F70E943A0A882349F078
S11326308DE00E94B9038AE00E94B9038AEA90E01F
S113264008C08DE00E94B9038AE00E94B9038CE8B7
S113265090E00E94C1038DE00E94B9038AE00E94C9
S1132660B9030AC08111FFCF80ED97E00197F1F71C
S11326700E943A0A0E9463051F910F9108952F92B8
S11326803F924F925F926F927F928F929F92AF92FE
S1132690BF92CF92DF92EF92FF920F931F93DF933B
S11326A0CF93CDB7DEB729970FB6F894DEBF0FBE30
S11326B0CDBF8C0181E080930F29C8010E94CB0813
S11326C0882311F082E002C181E0B8010E949D0BD1
S11326D09C01009709F4F9C0DC0154968D919C91FA
S11326E05597A0E0B0E05C0199248824F901828D1B
S11326F0938DA0E0B0E0882A992AAA2ABB2AD9019E
S11327005C968D919D910D90BC91A02D8E839F839D
S1132710A887B9871092D62D4424552432012091DC
S1132720EB283091EC28E090BD2DF090BE2D009167
S1132730BF2D1091C02DC501B4016250704080407E
S1132740904040E050E00E9453439B01AC012E0DA9
S11327503F1D401F511F2A833B834C835D83198295
S113276092C06A817B818C819D813981630F711D47
S1132770811D911D0E940107730162016624D70126
S1132780C60180509E4FAF4FBF4F2E813F81488579
S11327905985C216D306E406F50610F06624639440
S11327A00894C11CD11CE11CF11CC816D906EA0608
S11327B0FB0659F7E0E0F0E08091D62D882329F05C
S11327C01092D62D0E948C0456C01B9902C08F0112
S11327D016C08F0180E2482E512C4E0E5F1EF80168
S11327E0E256F64D80810E94960432E000301307D1
S11327F009F46BC00F5F1F4F0415150581F7809115
S1132800F128882311F00E944D0380911029882318
S113281051F17090A42B82EA9BE20E947F14A72DB1
S1132820B0E0FD01E056F44D4081AF55B44D2C911C
S1132830342E222430E0222933292817390769F459
S11328408091A72B853019F08630A9F403C00E942B
S1132850020507C00E94A10404C08BED92E00E940F
S1132860CE031092102942E00030140710F4F8014E
S1132870A3CF662019F010920F2927C059815F5FFA
S11328805983260137012091EB283091EC28A98146
S11328908A2F90E08217930708F463CFC501B4012F
S11328A040E000E010E020E030E00E94200B4B010B
S11328B05C01611571058105910509F030CF109215
S11328C00F2980E092E00E94C10380E029960FB6B0
S11328D0F894DEBF0FBECDBFCF91DF911F910F9152
S11328E0FF90EF90DF90CF90BF90AF909F908F902C
S11328F07F906F905F904F903F902F9008950F932B
S11329001F93CF93DF93FC01B2818C010D5F1F4FA6
S113291060E070E0B550AB2FA695CA2FD0E0AE01B1
S11329204F5F5F4F440F551F4E0F5F1F08C031812B
S113293020E0828190E0822B932B680F791F3296DE
S1132940E417F507A1F7AA0FFE01EE0FFF1FE00F32
S1132950F11FBA1721F0808190E068277927CB0115
S1132960DF91CF911F910F9108958091DC2D8930D3
S113297089F08A3028F4833041F0863099F407C016
S11329808A3059F08B3071F40BC00E948C1C0E9469
S1132990FD2708950E94213208950E947E390895EA
S11329A00E945C3E08958091DC2D893089F08A3044
S11329B028F4833041F0863099F407C08A3059F006
S11329C08B3071F40BC00E943E1C0E94FD270895B9
S11329D00E94203208950E94A43908950E940E3E58
S11329E008958091E32D882309F447C08091DC2D5C
S11329F0863079F1873070F4833011F1843028F413
S1132A008130C1F08230C9F518C08430E1F08530DE
S1132A10A1F51CC0893031F18A3028F48730E1F007
S1132A20883059F51CC08B3019F18B30F0F08C30A4
S1132A3021F521C00E94351A08950E94121C0895A0
S1132A400E94A41C08950E94A82108950E94B52400
S1132A5008950E94E72708950E94A32D08950E94D7
S1132A60F23108950E94C23408950E9446390895AF
S1132A700E94743E08950E94303C08958091E32D95
S1132A80882309F447C08091DC2D863079F18730A2
S1132A9070F4833011F1843028F48130C1F0823035
S1132AA0C9F518C08430E1F08530A1F51CC0893027
S1132AB031F18A3028F48730E1F0883059F51CC0B0
S1132AC08B3019F18B30F0F08C3021F521C00E944D
S1132AD0C21908950E94421A08950E943D1E089545
S1132AE00E94CC2208950E94382508950E9425282A
S1132AF008950E94C72D08950E94223008950E94CF
S1132B008E3308950E94CD3908950E940D40089592
S1132B100E94543C0895982F8091E32D8823D1F18D
S1132B208091DC2D853011F1863040F48330B1F092
S1132B308430C0F4813009F042C00CC08930F1F017
S1132B408A3018F48630D9F515C08A30D9F08B3024
S1132B50B1F51CC0892F0E94B4190895892F0E94D1
S1132B60521C0895892F0E94B1210895892F0E9433
S1132B70BE240895892F0E94F5270895892F0E9465
S1132B8023320895892F0E9473390895892F0E9452
S1132B90223E08958AEF92E06FEF72E00E94DA28F5
S1132BA08091A1248F5F8093A124833040F08AEF29
S1132BB092E064E073E00E94DA281092A124089560
S1132BC0982F8091E32D8823D1F18091DC2D8530DD
S1132BD011F1863040F48330B1F08430C0F4813098
S1132BE009F042C00CC08930F1F08A3018F4863004
S1132BF0D9F515C08A30D9F08B30B1F51CC0892FB6
S1132C000E94AB190895892F0E945D1C0895892F95
S1132C100E941C220895892F0E9406250895892F59
S1132C200E94F2270895892F0E9422320895892F45
S1132C300E94C8390895892F0E942D3E089589E085
S1132C4093E06FEF72E00E94DA288091A1248F5FF5
S1132C508093A124833040F08AEF92E064E073E033
S1132C600E94DA281092A12408958091DC2D8530E9
S1132C70F1F0863038F48330A1F08430A8F4813048
S1132C8021F50CC08930C9F08A3018F48630E9F493
S1132C9011C08A30A9F08B30C1F415C00E94AA1962
S1132CA008950E94621C08950E94B02108950E9414
S1132CB0BD2408950E94EE2708950E941F320895AE
S1132CC00E94703908950E94323E08958091DC2D4F
S1132CD08530F1F0863038F48330A1F08430A8F4E4
S1132CE0813021F50CC08930C9F08A3018F486305F
S1132CF0E9F411C08A30A9F08B30C1F415C00E94E8
S1132D00B51908950E94451C08950E94AF210895A5
S1132D100E94BC2408950E94EA2708950E941E324E
S1132D2008950E94633908950E94153E08950F93F3
S1132D301F93DF93CF9300D000D00F92CDB7DEB7AF
S1132D4000D000D000D0EDB7FEB731968E010F5FF2
S1132D501F4FADB7BEB712961C930E9311978EE01A
S1132D6093E0938382838091DC2D848315820E9477
S1132D7048458DB79EB706960FB6F8949EBF0FBE12
S1132D808DBF83E193E0B8010E94DA280F900F9081
S1132D900F900F900F90CF91DF911F910F91089595
S1132DA02091A72B233009F44FC0243030F4213074
S1132DB071F0223009F098C021C0253009F487C091
S1132DC0253008F45BC0263009F08EC087C081E44A
S1132DD08093A7268091E32D882369F48091E62DC2
S1132DE09091E72D97FD80C02093E32D0E941A3522
S1132DF00E94F11408950E946616089582E4809357
S1132E00A72680910F29882331F081E08093D62D65
S1132E101092A72608958091A82B853449F484E163
S1132E2093E00E94CE030E941A350E940430089554
S1132E308091E32D882309F457C084E493E00E9431
S1132E40CE030E943516089588E48093A7268091C6
S1132E50E32D882381F4E091E62DF091E72D31965E
S1132E608091DE2D9091DF2D01978E179F07D8F466
S1132E70E0E0F0E018C00E94B514089584E4809363
S1132E80A7268091E32D8823F9F48091E62D909173
S1132E90E72D181619062CF0E091DE2DF091DF2DA8
S1132EA001C0FC013197F093E72DE093E62DEE0F7E
S1132EB0FF1FE85EF64D80818093DC2D81E08093D6
S1132EC0D62D0E94971608950E94D31408958BE777
S1132ED093E00E94CE030E94020508958CE893E0DB
S1132EE00E94CE030E94A10408950F931F93DF93C1
S1132EF0CF93CDB7DEB72A970FB6F894DEBF0FBED7
S1132F00CDBF182F0091A42B82EA9BE20E947F146C
S1132F10A02FB0E0FD01E056F44D6081AF55B44DF3
S1132F204C91362F20E050E0242B352B8217930749
S1132F3009F079C08091A52B8091A62B112311F063
S1132F40843419F18334E1F0843430F4813451F061
S1132F50823409F070C00FC08434B9F0853409F0AC
S1132F606AC016C08091A72B8093A7268091A72BB7
S1132F700E94E01560C08091A72B0E948B155BC056
S1132F808FE993E00E94CE0356C00E94D01653C02E
S1132F908091A72B89838091A82B8A838091A92B68
S1132FA08B8381EB92E00E94C1032091A72B309187
S1132FB0A82B4091A92B8DB79EB70A970FB6F8940A
S1132FC09EBF0FBE8DBFEDB7FEB731968E010F5F6A
S1132FD01F4FADB7BEB712961C930E9311978FEC8B
S1132FE093E09383828324831582368317824087F8
S1132FF011860E9448458DB79EB70A960FB6F8947D
S11330009EBF0FBE8DBFC8010E94CE038DE00E94FB
S1133010B9038AE00E94B9038DE00E94B9038AE0F3
S11330200E94B90308C088ED93E00E94CE03109279
S1133030102980E003C01092102981E02A960FB66F
S1133040F894DEBF0FBECDBFCF91DF911F910F91DA
S113305008958F929F92AF92BF92CF92DF92EF9298
S1133060FF920F931F93DF93CF93CDB7DEB7C35C6B
S1133070D0400FB6F894DEBF0FBECDBF80916A0476
S113308089831B821A821092DF2D1092DE2D64E454
S1133090C62ED12CCC0EDD1E5601C6011C2D092FC7
S11330A0CE018C539F4FD5011D925D01A817B9071E
S11330B0D1F71C821D821E821F82FE0138968CE38A
S11330C0DF011D928A95E9F7812F902F6AEE73E054
S11330D00E940A4587E094E00E94CE03812F902F3E
S11330E00E94CE038CE194E00E94CE0300E010E045
S11330F04E010894811C911C3CC09C3239F09C32D6
S113310030F1892F80538A3010F51AC0080D191D2B
S1133110F8011082C4010E94DC44009771F0F701A9
S1133120EE0FFF1FE85EF64D918380830894E11C47
S1133130F11CF092DF2DE092DE2D00E010E013C0D0
S1133140F401E00FF11F90830F5F1F4F0CC08FE15C
S113315094E00E94CE03D6018C910E94B9038CE1C5
S113316094E00E94CE030894C11CD11CCA14DB0451
S113317069F0F60190819B3349F0E090DE2DF090E8
S1133180DF2DF4E1EF16F10408F4B7CF00D000D03E
S113319000D0EDB7FEB731968E010C5F1F4FADB76F
S11331A0BEB712961C930E93119780E494E0938318
S11331B082838091DE2D9091DF2D958384830E94FC
S11331C04845EDB7FEB736960FB6F894FEBF0FBE6E
S11331D0EDBFC8010E94CE0385E594E00E94CE03B2
S11331E048E1C42E49E2D42EEE24FF24B02E012F50
S11331F035E6832E34E0932E26C000D000D000D0D4
S1133200EDB7FEB73196ADB7BEB71196BC92119724
S113321012960C9393828282D6018D919D916D01B9
S1133220958384830E944845EDB7FEB736960FB662
S1133230F894FEBF0FBEEDBF8B2D902F0E94CE03DE
S11332400894E11CF11C8091DE2D9091DF2DE8168D
S1133250F90698F28CE194E00E94CE031092E32DDB
S11332608FEF9FEF9093E72D8093E62D8FEF809360
S1133270DC2DCD53DF4F0FB6F894DEBF0FBECDBFAC
S1133280CF91DF911F910F91FF90EF90DF90CF903E
S1133290BF90AF909F908F900895CF93DF9320912C
S11332A084003091850085E390E0289FA001299F48
S11332B0500D389F500D112457FF03C05095419570
S11332C05F4FCA0166E070E00E947243AC01C5E33F
S11332D0D0E016C080918400909185008C9F90016D
S11332E08D9F300D9C9F300D112437FF03C0309506
S11332F021953F4FC90166E070E00E947243AC0122
S1133300FA01EE55FB4D8081882321F781E080830B
S113331080915F2E8F5F80935F2E863071F41092C0
S1133320A2241092A3241092A4241092A5241092F3
S1133330A6241092A72410925F2E9A012F5F3F4F6C
S11333404630510510F080E302C0822F805DDF918A
S1133350CF91089508958093A82484E090E09093F9
S1133360022E8093012E089508958DE694E062E77D
S113337074E00E94DA2882E090E09093022E809319
S1133380012E08958091012E9091022E8230910594
S113339061F18330910534F4009759F0019709F0F5
S11333A063C016C08330910529F1049709F05CC00D
S11333B028C087E794E00E94CE0310925F2E8DE62A
S11333C094E06CE874E00E94DA2881E090E033C075
S11333D08DE694E062E774E00E94DA280E944D19B9
S11333E08093212E82E090E026C08091212E0E94BD
S11333F0822A1FC08091A8248823B1F184E090E040
S11334001AC09091A8248091212E9817C9F080E9C0
S113341094E065E974E00E94DA288DE694E062E7BE
S113342074E00E94DA288091212E0E94822A109250
S1133430A82483E090E09093022E8093012E0895B7
S113344080E994E06AE974E00E94DA288FE994E064
S113345064EA74E00E94DA281092A82481E090E0E3
S11334609093022E8093012E089587E595E160E9FB
S113347074E04DE654E00E9413301092022E109234
S1133480012E08950F931F930091A924033009F48A
S11334909DC0043030F4013071F0023009F0BFC136
S11334A048C0053009F4F2C0053008F4B5C0063050
S11334B009F0B5C14AC189EA94E063E80E9479360B
S11334C08233C9F0833320F4813309F0A8C106C0E4
S11334D0813441F1823409F0A2C11DC08EEA94E026
S11334E00E94CE0385EC94E06AEC74E00E94DA2832
S11334F00093AA24EBC08FEC94E00E94CE0385ECE9
S113350094E06AEC74E00E94DA2882E08093AA24B2
S11335108093A92484C185EE94E00E94CE030E9486
S113352004307DC183E095E00E94CE030093A9247A
S113353076C18091AA24813019F08230D1F411C06F
S113354086E696E10E94D62B9093AC248093AB241C
S1133550892B79F486E696E10E94A62B0093A92490
S113356008C086E696E10E94B12C9093AC24809327
S1133570AB2400D000D000D0EDB7FEB7319604E5FF
S113358019E2ADB7BEB712961C930E93119787E25A
S113359095E0938382838091AB249091AC2401962F
S11335A0958384830E9448458DB79EB706960FB6CF
S11335B0F8949EBF0FBE8DBFC8010E94CE038EE358
S11335C095E063E475E00E94DA285CC08091AA2447
S11335D0813021F0823009F0B6C013C08091AB2451
S11335E09091AC240E94542A85EC94E068E475E040
S11335F00E94DA288091AB249091AC240E945D2B28
S1133600A2C084EF91E00E94312B8091AB24909171
S1133610AC240E94542A97C08091AA28882349F098
S11336208DE495E00E94CE0386E08093A9240E9455
S11336301A350E943F378093AD24882309F4EFC0E4
S1133640682F6F736093AE248295869586958370F8
S11336508093AF248230B1F0833021F0813009F0BF
S1133660DEC012C086E696E10E94D52C9093B12468
S11336708093B02485E08093A92488E695E00E9495
S1133680CE03CDC083E044CF86E042CF6091B02426
S11336907091B1248091AB249091AC240E94E038C5
S11336A08823B1F01092B3241092B22480E895E0FC
S11336B00E94CE038EE395E060EA75E00E94DA286A
S11336C085EA95E06AEA75E00E94DA2882E020CF74
S11336D08091B2249091B32401969093B324809363
S11336E0B2248FEA95E00E94CE038EE395E061ED6B
S11336F075E00E94DA288EE395E066ED75E00E949D
S1133700DA2883E08093A9248091B2249091B32491
S113371003970CF484C08091AB249091AC240E9454
S1133720542A85EC94E068E475E00E94DA288091DC
S1133730AB249091AC240E945D2B8EE395E066ED62
S113374075E00E94DA2884E0E3CE8BED95E060EC2E
S11337500E947936823461F0833420F4813409F094
S11337605EC00BC08434C9F0883409F058C02CC042
S113377080EE95E00E94CE0308C089EF95E00E9498
S1133780CE038091B424882311F083E001C082E049
S11337908093A9241092B42442C084E196E00E944C
S11337A0CE038091AA248130B9F486E696E10E9482
S11337B00A2C9093AC248093AB24892B39F586E6AC
S11337C096E10E94D62B1EC08CE296E00E94CE03A6
S11337D08091AA24813019F08230C1F40FC086E6AA
S11337E096E10E94D62B9093AC248093AB24892B32
S11337F069F486E696E10E940A2C04C086E696E106
S11338000E94B12C9093AC248093AB248091AB2480
S11338109091AC240E94542A81E08093B4241F9197
S11338200F91089586E696E16EE375E045EC54E069
S11338300E94133081E08093A9241092B524109241
S1133840AA241092B7241092B6241092AC24109299
S1133850AB241092B1241092B0241092AD24109293
S1133860AE241092AF241092B3241092B22410927A
S1133870B42480E496E00E94CE03089582E090E0B0
S11338809093612E8093602E08958091602E909184
S1133890612E0C9731F481E090E09093612E809337
S11338A0602E0895982F8091622E882329F090939A
S11338B0632E81E080935A2E08958093622E0E9495
S11338C0822A08958091602E9091612E0C9749F47C
S11338D08091B8249091B9249093612E8093602EA6
S11338E0089583E596E068E576E00E94DA28109270
S11338F0BD241092BC248AE090E09093612E8093C2
S1133900602E1092232E1092222E1092BB2410921D
S1133910BA2410925A2E08958091602E9091612EAF
S11339208C30910521F09093B9248093B82483E5D9
S113393096E06CE576E00E94DA288CE090E09093C3
S1133940612E8093602E089581EA97E161E676E026
S113395043E556E00E9413301092612E1092602EBF
S11339601092622E1092BB241092BA2408958F9262
S11339709F92AF92BF92CF92DF92EF92FF920F93FA
S11339801F93DF93CF93CDB7DEB72A970FB6F89482
S1133990DEBF0FBECDBF209184003091850085E34A
S11339A090E0289FA001299F500D389F500D1124AD
S11339B057FF03C0509541955F4FCA016BE070E01B
S11339C00E9472436C0100D000D000D0EDB7FEB766
S11339D031968E010F5F1F4FADB7BEB712961C9381
S11339E00E93119786E696E093838283D582C482F0
S11339F00E944845EDB7FEB736960FB6F894FEBF61
S1133A000FBEEDBFC8010E94CE0305E310E016C04F
S1133A108091840090918500809F9001819F300D5A
S1133A20909F300D112437FF03C0309521953F4FEF
S1133A30C9016BE070E00E9472436C01F601EE0F65
S1133A40FF1FEB5CF14D80819181892B09F781E0A7
S1133A5090E09183808395E3E92E9EE2F92E87011D
S1133A605E010894A11CB11C8FE6882E86E0982E76
S1133A7000D000D000D0EDB7FEB73196ADB7BEB7D9
S1133A801296BC92AE92119793828282D8018D9144
S1133A909D918D01958384830E944845EDB7FEB7BF
S1133AA036960FB6F894FEBF0FBEEDBFC5010E9457
S1133AB0CE03FEE20B341F07D9F68DE00E94B90352
S1133AC08AE00E94B90300D000D000D0EDB7FEB761
S1133AD03196ADB7BEB71296BC92AE92119788E7F5
S1133AE096E0938382838091222E9091232E0196D7
S1133AF0958384830E944845EDB7FEB736960FB68A
S1133B00F894FEBF0FBEEDBFC5010E94CE038DE049
S1133B100E94B9038AE00E94B9038091222E9091F9
S1133B20232E01969093232E8093222E0B9769F4D3
S1133B301092232E1092222ED7011D921D927D01E8
S1133B40BBE4EB16BEE2FB06B9F7C6012A960FB634
S1133B50F894DEBF0FBECDBFCF91DF911F910F91BF
S1133B60FF90EF90DF90CF90BF90AF909F908F9099
S1133B7008955F926F927F928F929F92AF92BF92BD
S1133B80CF92DF92EF92FF920F931F93DF93CF9325
S1133B9000D000D00F92CDB7DEB75C01562E55E7AA
S1133BA0E52E57E1F52E0BE817E16E010894C11CD0
S1133BB0D11C43E8642E46E0742E3FE7832E36E0A2
S1133BC0932ED7016D917C91C5010E940145009708
S1133BD099F5552079F000D000D000D0EDB7FEB7AC
S1133BE03196ADB7BEB71296DC92CE9211979382FE
S1133BF082820EC000D000D000D0EDB7FEB731965F
S1133C00ADB7BEB71296DC92CE92119773826282E0
S1133C10D8018D919C91958384830E944845EDB78A
S1133C20FEB736960FB6F894FEBF0FBEEDBF83E520
S1133C3096E0B6010E94DA2882E090E0E80EF91ED0
S1133C400E5F1F4F9BE8E91697E1F90609F0B9CF1B
S1133C500F900F900F900F900F90CF91DF911F91C5
S1133C600F91FF90EF90DF90CF90BF90AF909F9017
S1133C708F907F906F905F900895CF92DF92EF9234
S1133C80FF920F931F93DF93CF93CDB7DEB7A09727
S1133C900FB6F894DEBF0FBECDBF8091602E909119
S1133CA0612E8730910509F487C188309105D4F4D9
S1133CB08330910509F48CC0843091055CF4813023
S1133CC0910509F441C0823091050CF069C0892B3B
S1133CD021F1C8C28530910509F445C106970CF05D
S1133CE0E9C080C08B30910509F4FAC18C3091058C
S1133CF044F48930910509F495C10A970CF0E9C19F
S1133D0080C18E30910509F408C28F30910509F401
S1133D1094C20D9709F0A6C24CC283E596E068E50B
S1133D2076E00E94DA281092BD241092BC248AE026
S1133D3090E09093612E8093602E1092232E109227
S1133D40222E10925A2E8EC28091BC249091BD24B2
S1133D508130910529F483E596E067E876E006C0B2
S1133D60029731F483E596E06CE876E00E94DA2865
S1133D701092592E1092582E1092042E1092032E47
S1133D800E94B71CFC01EE0FFF1FEB58F84E808118
S1133D9091819093252E8093242E82E090E05EC240
S1133DA08091BC249091BD248130910531F480919F
S1133DB0242E9091252E60E008C0029709F04CC291
S1133DC08091242E9091252E61E00E94B91D44C259
S1133DD080915A2E882309F445C210925A2E84E009
S1133DE090E03CC28091632E882309F407C10E94AD
S1133DF01143882309F44AC000D000D000D0EDB7A5
S1133E00FEB73196CE014196ADB7BEB712969C93DC
S1133E108E93119781E996E0938382838091002E9B
S1133E20848315820E94484585E090E09093612E3A
S1133E308093602EEDB7FEB736960FB6F894FEBFAA
S1133E400FBEEDBF8091BC249091BD24892BB1F4A9
S1133E508091002E813619F481E090E005C082360D
S1133E6009F0FAC182E090E09093BD248093BC24D1
S1133E7081E090E09093612E8093602E80E090E04A
S1133E80BE016F5E7F4F0E94DA28ECC18091BA2494
S1133E909091BB2401969093BB248093BA2488E923
S1133EA096E00E94CE0381E696E064EA76E00E9402
S1133EB0DA2895C08091582E9091592E181619061B
S1133EC0DCF500D000D000D0ADB7BEB711968E019E
S1133ED00F5E1F4FEDB7FEB71283018381E996E0B1
S1133EE013969C938E931297E091242EF091252E95
S1133EF08091032E9091042EE80FF91F808114966F
S1133F008C93149715961C920E9448458DB79EB7C2
S1133F1006960FB6F8949EBF0FBE8DBF80E090E06A
S1133F20B8010E94DA288091032E9091042E019604
S1133F309093042E8093032E2091032E3091042E0F
S1133F408091582E9091592E2817390709F08AC16B
S1133F5083E090E09093612E8093602E1092042E63
S1133F601092032E7FC12091242E3091252E409152
S1133F70582E5091592EF901E40FF51F908180912C
S1133F80002E9817B1F4CA0101969093592E80938C
S1133F90582EF90101900020E9F73197E21BF30B49
S1133FA08E179F0719F088E090E058C189E090E0EF
S1133FB055C187E090E052C181E696E069EA76E077
S1133FC00E94DA288091BA249091BB2401969093A0
S1133FD0BB248093BA248CEA96E00E94CE0380919D
S1133FE0BA249091BB248330910519F48EE090E0BB
S1133FF035C106971CF08DE090E030C186E090E07A
S11340002DC103E010E01093BB240093BA2481E691
S113401096E065EB76E00E94DA281093612E009317
S1134020602E20C11092BB241092BA2481E696E03F
S113403065EB76E00E94DA2881E696E06AEB76E0AA
S11340400E94DA288091BC249091BD240197F1F557
S113405000E010E07E010894E11CF11C71E9C72E18
S113406076E0D72E25C000D000D000D0EDB7FEB743
S11340703196ADB7BEB71296FC92EE921197D382E9
S1134080C282800F911FDC018C91848315820E946F
S11340904845EDB7FEB736960FB6F894FEBF0FBE8F
S11340A0EDBF80E090E0B7010E94DA280F5F1F4F58
S11340B08091242E9091252EFC0101900020E9F797
S11340C03197E81BF90B0E171F0768F28BE090E09D
S11340D0C5C083E596E06FEB76E00E94DA28BCC0A9
S11340E08091242E9091252E61E00E94B91D80912B
S11340F0BC249091BD24029769F483E596E064ECB6
S113410076E00E94DA288091242E9091252E60E09A
S11341100E94B91D81E090E0A1C083E596E069ECBE
S113412076E00E94DA288091242E9091252E61E079
S11341300E94B91D00E010E07E010894E11CF11C0E
S113414061E9C62E66E0D62E25C000D000D000D08E
S1134150EDB7FEB73196ADB7BEB71296FC92EE92AC
S11341601197D382C282800F911FDC018C918483CA
S113417015820E944845EDB7FEB736960FB6F894FF
S1134180FEBF0FBEEDBF80E090E0B7010E94DA28C9
S11341900F5F1F4F8091242E9091252EFC010190DA
S11341A00020E9F73197E81BF90B0E171F0768F297
S11341B053C083E596E069EC76E00E94DA2800D0EB
S11341C000D000D0ADB7BEB711968E01075F1F4F68
S11341D0EDB7FEB7128301838EEC96E013969C93A1
S11341E08E931297E091242EF091252E8091582ED3
S11341F09091592EE80FF91F808114968C9314978F
S113420015961C920E9448458DB79EB706960FB628
S1134210F8949EBF0FBE8DBFC8010E94CE0380E0FC
S113422090E0B8010E94DA2883E596E061ED76E03B
S11342300E94DA288FE090E011C0E091242EF091E2
S1134240252E8091582E9091592EE80FF91F8081C8
S11342500E9440430E94FA2A83E090E09093612EEA
S11342608093602EA0960FB6F894DEBF0FBECDBF2C
S1134270CF91DF911F910F91FF90EF90DF90CF903E
S113428008950F931F93DF93CF93CDB7DEB7649751
S11342900FB6F894DEBF0FBECDBF8E010F5F1F4F68
S11342A0F801CE0145961192E817F907E1F780E08D
S11342B00E94C01223E030E009C0F901EE53F24D30
S11342C08081F80181938F012F5F3F4F8091E9280E
S11342D090E0281739078CF38CE397E0BE016F5FF9
S11342E07F4F0E94540E892B19F48AED92E002C08C
S11342F080ED92E00E94C1038DE00E94B9038AE040
S11343000E94B90364960FB6F894DEBF0FBECDBF0A
S1134310CF91DF911F910F9108951092EA28809117
S1134320C42D8D3469F0883771F482EE92E00E94D6
S1134330C1038DE00E94B9038AE00E94B903089585
S11343400E944121089586E497E00E94CE030895D7
S11343501092662E1092652E1092642E0895089580
S11343600895982F8091642E882329F09093632ECA
S113437081E080935A2E08954091332E5091342E2B
S11343806091002E20E030E090E00DC0FA01E20FD1
S1134390F31F8081681729F4F901EA5DF14D608308
S11343A091E02F5F3F4FFA0101900020E9F7319728
S11343B0E41BF50B2E173F0748F3892F08950F933D
S11343C01F93DF93CF93CDB7DEB72A970FB6F89438
S11343D0DEBF0FBECDBF00D000D000D0EDB7FEB71A
S11343E031968E010F5F1F4FADB7BEB712961C9367
S11343F00E93119789E797E0938382838091642ECB
S1134400848315820E9448458DB79EB706960FB6E1
S1134410F8949EBF0FBE8DBF8FE797E0B8010E944E
S1134420DA282A960FB6F894DEBF0FBECDBFCF911F
S1134430DF911F910F9108958093642E0E94DF21D4
S113444008950E942D43982F81568A3110F080E000
S113445008959093002E81E00895EF92FF920F93B8
S11344601F93DF93CF93CDB7DEB72A970FB6F89497
S1134470DEBF0FBECDBF209184003091850085E35F
S113448090E0289FA001299F500D389F500D1124C2
S113449057FF03C0509541955F4FCA016BE070E030
S11344A00E947243F82EE92E00D000D000D0EDB760
S11344B0FEB731968E010F5F1F4FADB7BEB7129690
S11344C01C930E93119784E897E093838283F4827C
S11344D0E5820E9448458DB79EB706960FB6F894BC
S11344E09EBF0FBE8DBFC8010E94CE038DE00E9407
S11344F0B9038AE00E94B90300D000D000D0EDB720
S1134500FEB73196ADB7BEB712961C930E931197B2
S11345108DE897E09383828380911B2E90911C2ECB
S11345200196958384830E9448458DB79EB706966D
S11345300FB6F8949EBF0FBE8DBFC8010E94CE0374
S11345408DE00E94B9038AE00E94B90380911B2E7A
S113455090911C2E019690931C2E80931B2E0B97EA
S113456061F410921C2E10921B2EEEEBF4E21192C9
S1134570119294E2E43DF907D1F78F2D9E2D2A96EE
S11345800FB6F894DEBF0FBECDBFCF91DF911F9160
S11345900F91FF90EF9008950F931F93DF93CF93A4
S11345A0CDB7DEB76B970FB6F894DEBF0FBECDBFA5
S11345B08091652E9091662E8430910509F4CAC0CD
S11345C0853091058CF48130910551F1823091054B
S11345D01CF4892B01F1BEC18230910509F442C05B
S11345E0039709F0B7C185C08730910509F4FCC071
S11345F08830910544F48530910509F4B4C00697D8
S113460009F0A8C1BAC08830910509F40AC1099714
S113461009F0A0C14BC184E997E069E977E060C182
S11346200E942D22FC01EE0FFF1FE055F74E808102
S113463091819093342E8093332E10925E2E10929B
S11346405D2E10925C2E10925B2E1092202E1092F2
S11346501F2EE6E2FEE280E381939EE2E133F90756
S1134660D9F71BC180915D2E90915E2EA091332EBF
S1134670B091342EFD0101900020E9F73197EA1B37
S1134680FB0B8E179F07A9F410925E2E10925D2EDD
S113469080915B2E90915C2E181619060CF057C071
S11346A084E997E06DE977E00E94DA2883E090E0FE
S11346B01BC18A5D914DDC012C912033A9F000D0FF
S11346C000D000D0EDB7FEB731968E010E5E1F4FBD
S11346D0ADB7BEB712961C930E93119782EA97E07A
S11346E09383828324831DC18FE797E065EA77E093
S11346F026C100D000D000D0EDB7FEB731968E01B0
S1134700085F1F4FADB7BEB712961C930E93119757
S11347108AEA97E09383828380915B2E90915C2E4A
S1134720958384830E944845EDB7FEB736960FB64D
S1134730F894FEBF0FBEEDBF8FE797E0B8010E946B
S1134740DA2884E997E06EEA77E00E94DA2884E0C8
S113475090E0CAC084E997E063EB77E00E94DA282E
S113476085E090E0C1C080915A2E882309F4F2C0FC
S113477010925A2E86E090E0B7C08091632E882371
S113478009F44CC00E942122882349F100D000D0B2
S113479000D0EDB7FEB731968E010F5F1F4FADB756
S11347A0BEB712961C930E93119782EA97E09383F7
S11347B082838091002E848315820E944845EDB740
S11347C0FEB736960FB6F894FEBF0FBEEDBF8FE767
S11347D097E0B8010E94DA2887E090E085C08FE76F
S11347E097E067EB77E00FC00E94BC21882339F083
S11347F08FE797E06CEB77E00E94DA280FC08FE731
S113480097E060EC77E00E94DA2880915B2E90912B
S11348105C2E019690935C2E80935B2E88E090E052
S113482063C06091332E7091342EFB01DF010D9033
S11348300020E9F71197AE1BBF0B86E29EE2AD01A3
S11348400E941145009759F481E090E09093202E46
S113485080931F2E84E997E063EC77E010C0809189
S11348605B2E90915C2E079761F481E090E0909329
S1134870202E80931F2E84E997E068EC77E00E9455
S1134880DA2880911F2E9091202E009749F484E914
S113489097E06DEC77E00E94DA2882E090E024C093
S11348A0019709F057C089E090E01EC040915D2E49
S11348B050915E2E2091332E3091342EF9010190C7
S11348C00020E9F73197E21BF30B4E175F0789F4D9
S11348D010925E2E10925D2E84E997E062ED77E0EF
S11348E00E94DA2881E090E09093662E8093652EF2
S11348F031C000D000D000D0EDB7FEB731968E01A4
S11349000E5E1F4FADB7BEB712961C930E93119750
S113491082EA97E093838283240F351FD9018C9117
S1134920848315820E944845EDB7FEB736960FB6CC
S1134930F894FEBF0FBEEDBF8FE797E0B8010E9469
S1134940DA2880915D2E90915E2E019690935E2ED2
S113495080935D2E6B960FB6F894DEBF0FBECDBF6D
S1134960CF91DF911F910F9108951092682E1092AC
S1134970672E1092692E089508950895982F8091B6
S1134980692E882329F09093632E81E080935A2E18
S113499008950F931F93DF93CF93CDB7DEB72A9774
S11349A00FB6F894DEBF0FBECDBF00D000D000D04C
S11349B0EDB7FEB731968E010F5F1F4FADB7BEB78F
S11349C012961C930E9311978DE098E09383828343
S11349D08091692E848315820E9448458DB79EB7C5
S11349E006960FB6F8949EBF0FBE8DBF83E198E084
S11349F0B8010E94DA282A960FB6F894DEBF0FBEDB
S1134A00CDBFCF91DF911F910F9108958093692EAF
S1134A100E94C92408954091002E20E030E090E0E7
S1134A20ABE4BEE20DC0F901E55BF14D80814817AE
S1134A3029F4F901EA5DF14D408391E02F5F3F4F86
S1134A40FD0101900020E9F73197EB54FE422E1747
S1134A503F0748F3892F08950E942D43982F8156CC
S1134A608A3110F080E008959093002E81E008953B
S1134A70EF92FF920F931F93DF93CF93CDB7DEB7DF
S1134A80A5970FB6F894DEBF0FBECDBF8091672EF9
S1134A909091682E8630910509F461C187309105A3
S1134AA0ACF48230910509F44DC08330910534F49F
S1134AB0009739F1019709F07DC228C0843091052F
S1134AC009F4CCC005970CF0D5C046C089309105D7
S1134AD009F489C18A30910544F48730910509F4B9
S1134AE06FC1089709F066C274C18B30910509F44F
S1134AF0CEC18B3091050CF4ADC10C9709F05AC2AC
S1134B0009C288E198E06DE178E01BC280E090E0A2
S1134B1020E3FC01E55BF14D2083FC01EA5DF14DEE
S1134B20208301968B309105A1F710925E2E10928E
S1134B305D2E10925C2E10925B2E1092202E1092FD
S1134B401F2E89C080915A2E882309F433C21092F3
S1134B505A2E83E090E0F9C18091632E882349F5B1
S1134B60E0915D2EF0915E2EE55BF14D10828BE4B9
S1134B709EE20E94AC10882369F088E198E061E22B
S1134B8078E00E94DA2810925E2E10925D2E84E066
S1134B9090E0DBC188E198E066E278E00E94DA28E0
S1134BA0EBE4FEE280E381939EE2E635F907D9F770
S1134BB03AC00E942C25882309F447C000D000D0B5
S1134BC000D0EDB7FEB731968E010F5F1F4FADB722
S1134BD0BEB712961C930E9311978BE298E09383C1
S1134BE082838091002E848315820E944845EDB70C
S1134BF0FEB736960FB6F894FEBF0FBEEDBF83E145
S1134C0098E0B8010E94DA2820915D2E30915E2E42
S1134C102A30310569F4EBE4FEE280E381939EE2FD
S1134C20E635F907D9F710925E2E10925D2E13C067
S1134C30F901E55BF14D8091002E80832F5F3F4F9A
S1134C4030935E2E20935D2E06C088E198E06EE2DC
S1134C5078E00E94DA2882E090E077C180915A2EB1
S1134C60882309F4A7C110925A2E88E198E062E3E0
S1134C7078E045C100D000D000D0EDB7FEB7319642
S1134C8088E0E82EF12CEC0EFD1EADB7BEB71296EF
S1134C90FC92EE92119787E398E0938382830BE46E
S1134CA01EE2158304830E944845EDB7FEB736968D
S1134CB00FB6F894FEBF0FBEEDBFC7010E94CE032E
S1134CC0E0915D2EF0915E2ED8010D900020E9F761
S1134CD08D01015010400B541E42E017F107A9F456
S1134CE010925E2E10925D2E80915B2E90915C2E20
S1134CF0181619060CF061C088E198E06CE378E0BE
S1134D000E94DA2886E090E020C1EA5DF14D20811E
S1134D10203301F100D000D000D0EDB7FEB73196BA
S1134D208E01045E1F4FADB7BEB712961C930E934F
S1134D3011978BE298E093838283248315820E94E7
S1134D404845EDB7FEB736960FB6F894FEBF0FBED2
S1134D50EDBF22C183E198E061E478E020C100D096
S1134D6000D000D0EDB7FEB731968E010E5E1F4F16
S1134D70ADB7BEB712961C930E93119786E498E0D4
S1134D809383828380915B2E90915C2E95838483A0
S1134D900E944845EDB7FEB736960FB6F894FEBFAD
S1134DA00FBEEDBF83E198E0B8010E94DA2888E1E4
S1134DB098E06AE478E00E94DA2887E090E0C5C0D1
S1134DC088E198E06FE478E00E94DA2888E090E0D7
S1134DD0BCC080915A2E882309F4ECC010925A2E3C
S1134DE089E090E0B2C08091632E882309F44CC01E
S1134DF00E942C25882349F100D000D000D0EDB7C3
S1134E00FEB731968E010F5F1F4FADB7BEB7129636
S1134E101C930E9311978BE298E093838283809185
S1134E20002E848315820E944845EDB7FEB736965E
S1134E300FB6F894FEBF0FBEEDBF83E198E0B80152
S1134E400E94DA288AE090E080C083E198E063E57C
S1134E5078E00FC00E940B25882339F088E598E09C
S1134E6069E578E00E94DA280FC088E598E06DE5EE
S1134E7078E00E94DA2880915B2E90915C2E019656
S1134E8090935C2E80935B2E8BE090E05EC0ABE44D
S1134E90BEE2FD0101900020E9F73197EA1BFB0B0C
S1134EA086E29EE2BD01AF010E941145009759F4CC
S1134EB081E090E09093202E80931F2E88E198E06B
S1134EC060E678E010C080915B2E90915C2E07978D
S1134ED061F481E090E09093202E80931F2E88E16E
S1134EE098E065E678E00E94DA2880911F2E909180
S1134EF0202E009749F488E198E06AE678E00E9461
S1134F00DA2885E090E021C0019709F053C08CE0D5
S1134F1090E01BC0A0915D2EB0915E2EEBE4FEE20A
S1134F2001900020E9F73197EB54FE42AE17BF071A
S1134F3089F410925E2E10925D2E88E198E06FE65F
S1134F4078E00E94DA2881E090E09093682E8093C4
S1134F50672E30C000D000D000D02DB73EB72F5FF1
S1134F603F4F8E01045E1F4FEDB7FEB712830183DE
S1134F708BE298E0F90193838283A55BB14D8C9118
S1134F80848315820E9448458DB79EB706960FB656
S1134F90F8949EBF0FBE8DBF83E198E0B8010E94D4
S1134FA0DA2880915D2E90915E2E019690935E2E6C
S1134FB080935D2EA5960FB6F894DEBF0FBECDBFCD
S1134FC0CF91DF911F910F91FF90EF900895109270
S1134FD0D624089581E48093D424089582E48093B0
S1134FE0D42408958093D4240895982F8091D424B0
S1134FF0882311F09093D524089584E48093D424D5
S113500008950F931F93609176247091772401ED96
S113501018E186EC98E1A8010E9413301093DE2475
S11350200093DD241092D7241092D4241092D52416
S11350301092DA241092D9241092D82484E798E0AC
S11350400E94CE031F910F9108958091D624813040
S1135050C1F0813020F0823009F064C052C082E88F
S113506098E00E94CE030E9401288091DD24909153
S1135070DE246AE978E00E94DA2881E08093D6246D
S113508008956091D424662309F44CC0613308F177
S11350906733A0F0613419F06234D9F404C082E0BB
S11350A08093D6242BC08091DB249091DC246EE97C
S11350B078E00E94DA281092D72420C08091D72467
S11350C00E94912F8093D7248091D4240E94822A15
S11350D015C08091D8248F5F8093D8248091DB24DD
S11350E09091DC2463EA78E00E94DA288091D82445
S11350F0833020F01092D8241092D6241092D42415
S1135100089586EC98E16091D7240E94D52C909361
S1135110DA248093D9240E94542A81E08093D624EF
S11351201092D72408958091DA19882329F088EA07
S113513098E00E94CE03089588EC98E00E94CE0384
S11351408091DF249091E02435E0880F991F3A95EF
S1135150E1F78D519B4D0E94CE038AED98E00E94A9
S1135160CE038091DF249091E02425E0880F991FDD
S11351702A95E1F78D519B4D0E943F138091DF24C6
S11351809091E02401969093E0248093DF24209171
S1135190E1243091E2248217930759F481E080934B
S11351A0DA191092E2241092E1241092E024109271
S11351B0DF240895CF93DF939C01EB016115710502
S11351C019F48DED98E009C08091E1249091E224D6
S11351D08032910531F483E099E00E94CE0380E0AF
S11351E061C001969093E2248093E124FB01019035
S11351F00020E9F73197E61BF70B399708F018867A
S11352002115310541F14DB75EB7485050400FB6F6
S1135210F8945EBF0FBE4DBFEDB7FEB7319655E0B3
S1135220880F991F5A95E1F78D539B4DADB7BEB7C3
S113523012969C938E9311978BE199E093838283CA
S113524035832483D783C6830E9448454DB75EB710
S1135250485F5F4F1FC000D000D000D0EDB7FEB74D
S1135260319645E0880F991F4A95E1F78D539B4D80
S1135270ADB7BEB712969C938E93119784E299E0D2
S113528093838283D583C4830E9448454DB75EB718
S11352904A5F5F4F0FB6F8945EBF0FBE4DBF1092CA
S11352A0DA1981E0DF91CF9108954F925F926F9266
S11352B07F928F929F92AF92BF92CF92DF92EF92A2
S11352C0FF920F931F93DF93CF9300D000D00F92E0
S11352D0CDB7DEB77C0119821A821B821C821D8223
S11352E0009739F48091DB249091DC246BE279E01F
S11352F07BC097FF0CC08091DB249091DC246EE28C
S113530079E00E94DA28F094E194F108F394C7015B
S11353100E94B72F6C015E010894A11CB11C73E3B9
S1135320672E79E0772E67E3462E69E0562E460114
S1135330089481089108C4010E949D2FBC01C701F3
S11353400E9472438B016115710509F487C000D076
S113535000D000D0EDB7FEB73196ADB7BEB7129608
S1135360BC92AE92119773826282758364830E94A9
S113537048452DB73EB72A5F3F4F0FB6F8943EBF5E
S11353800FBE2DBF32E0C316D10459F083E0C81616
S1135390D10409F44FC091E0C916D10409F058C0F2
S11353A041C00130110519F500D000D000D0EDB78F
S11353B0FEB73196ADB7BEB71296BC92AE921197B6
S11353C073826282F582E4820E9448452DB73EB71B
S11353D02A5F3F4F0FB6F8943EBF0FBE2DBF80919A
S11353E0DB249091DC24B5010E94DA2847C000D068
S11353F000D000D0EDB7FEB73196ADB7BEB7129668
S1135400BC92AE92119753824282158304830E9408
S113541048452DB73EB72A5F3F4F0FB6F8943EBFBD
S11354200FBE2DBF8091DB249091DC24B5010E9436
S1135430DA2814C08091DB249091DC24B5010E9409
S1135440DA288091DB249091DC246CE379E0EFCFBF
S113545081E499E00E94CE030E940430C4010E94BA
S11354609D2FDC01A09FC001A19F900DB09F900DC6
S11354701124E81AF90A11F0640159CF0F900F9022
S11354800F900F900F90CF91DF911F910F91FF908C
S1135490EF90DF90CF90BF90AF909F908F907F90D0
S11354A06F905F904F9008950F931F93DF93CF9366
S11354B000D000D00F92CDB7DEB70097C9F000D06E
S11354C000D08E010F5F1F4FEDB7FEB7128301832B
S11354D00196948383830E9448450F900F900F9008
S11354E00F908091DB249091DC24B8010E94DA288B
S11354F00F900F900F900F900F90CF91DF911F910D
S11355000F910895EF92FF920F93DF93CF9300D002
S113551000D00F92CDB7DEB7082F813491F08234DA
S113552038F4882309F45BC08153863070F430C0AA
S1135530843409F454C0883409F451C0823429F401
S113554002C005E425C003E423C000D000D000D08D
S1135550EDB7FEB73196A4E5EA2EA9E2FA2EADB76F
S1135560BEB71296FC92EE9211978FE699E0938360
S11355708283048315820E9448458DB79EB70696A0
S11355800FB6F8949EBF0FBE8DBFC7010E94CE0315
S113559000D000D000D0EDB7FEB731967E0108945C
S11355A0E11CF11CADB7BEB71296FC92EE921197B6
S11355B089E899E093838283048315820E94484595
S11355C08DB79EB706960FB6F8949EBF0FBE8DBFDB
S11355D08091DB249091DC24B7010E94DA280F909B
S11355E00F900F900F900F90CF91DF910F91FF903C
S11355F0EF900895CF92DF92FF920F931F93DF9362
S1135600CF9300D0CDB7DEB7F82E882349F480912C
S1135610DB249091DC246FE879E00E94DA2817C03B
S113562001E010E06E010894C11CD11CF0FE0AC018
S1135630C801B6014AE050E00E941F45FC01808188
S11356400E94822AF6940F5F1F4FFF2079F70F9074
S11356500F90CF91DF911F910F91FF90DF90CF902A
S1135660089521E0843F9207A9F021E0853F920745
S113567024F48A3F910501F508C022E08E3E92078A
S113568071F0885E9340C1F411C084E999E069E93E
S113569079E009C084E999E06EE979E004C084E91D
S11356A099E063EA79E00E94DA28089584E999E0B0
S11356B068EA79E00E94DA280895CF93DF93EC0139
S11356C00097C9F12E813F812115310581F100D068
S11356D000D000D0EDB7FEB7319684E599E2ADB7BE
S11356E0BEB712969C938E9311978DEA99E093839B
S11356F082832F5F3F4F358324830E9448458DB7B3
S11357009EB706960FB6F8949EBF0FBE8DBF8E81CE
S11357109F810E945D2B8AEF90E00E94312B809143
S1135720DB249091DC2462ED79E00E94DA28888100
S11357300E94FA2A08C08091DB249091DC2467ED52
S113574079E00E94DA28DF91CF910895EF92FF92D9
S11357500F931F93CF93DF937C018FEF9FEFD701BC
S113576013969C938E93129700E010E0C0E0D0E073
S113577010C0D7011996ED91FC911A97EC0FFD1FFB
S113578080859185009711F00E94A62B0F5F1F4F13
S11357902A96F701808191810817190754F3DF9144
S11357A0CF911F910F91FF90EF900895CF93DF93C6
S11357B0EC012A813B812F5F3F4F3B832A83888101
S11357C09981281739072CF09B838A83E0E0F0E065
S11357D01DC0C90153E0880F991F5A95E1F7220FA4
S11357E0331F820F931FE985FA85E80FF91F80851F
S11357F09185009759F00E94D62B9C010097C9F21D
S11358008A819B8101979B838A83F901CF01DF9170
S1135810CF910895CF93DF93EC012A813B812150EE
S113582030403B832A8337FF07C08FEF9FEF9B8372
S11358308A83E0E0F0E01DC0C90173E0880F991F7E
S11358407A95E1F7220F331F820F931FE985FA85BA
S1135850E80FF91F80859185009759F00E940A2C62
S11358609C010097D1F28A819B8101969B838A8354
S1135870F901CF01DF91CF910895FC010097B1F0B8
S113588080818C3038F4893078F4813069F0833049
S113589069F40AC0833141F0843118F4813131F460
S11358A003C08951833010F481E0089580E00895A5
S11358B0CF93DF93EC01009709F441C00E943D2C83
S11358C08823E9F188818B3059F18C3060F483307E
S11358D0C1F0843018F4813091F516C08930B9F0E4
S11358E08A3069F526C08931A9F08A3128F48131DA
S11358F0A1F0833121F51AC08A31F1F08B31F9F42A
S113590012C022E030E01DC021E030E01AC023E0E4
S113591030E017C024E030E014C025E030E011C0CE
S113592026E030E00EC027E030E00BC028E030E095
S113593008C029E030E005C020E030E002C02FEFCD
S11359403FEFC901DF91CF910895FC01009711F455
S113595020E005C020E08081882309F421E0822F23
S113596008950F931F93CF93DF93EC0109851A8554
S11359700E94812F688179810E9472439C01FC01FD
S1135980B3E0EE0FFF1FBA95E1F7220F331FE20FCA
S1135990F31FE00FF11FC085D185209739F7CF01A0
S11359A0DF91CF911F910F910895FF920F931F9351
S11359B0DC01F62E6D917C91119740E050E020E0DF
S11359C030E00FC01996ED91FC911A97E20FF31F86
S11359D0309719F080818F1551F14F5F5F4F265F2B
S11359E03F4F4617570774F300D000D000D0EDB7EF
S11359F0FEB7319604E519E2ADB7BEB712961C9313
S1135A000E9311978CED99E093838283F48215822F
S1135A100E9448458DB79EB706960FB6F8949EBF70
S1135A200FBE8DBFC8010E94CE03E0E0F0E0CF01BD
S1135A301F910F91FF9008956F927F928F929F9282
S1135A40AF92BF92DF92EF92FF920F931F93CF9387
S1135A50DF93D82E092F5B017A0184E5882E89E231
S1135A60982E13E0612E1AE0712ED701ED91FC916E
S1135A70EA0DFB1D108100D000D000D0EDB7FEB7B9
S1135A803196ADB7BEB712969C928E9211977382DF
S1135A906282148315820E944845EDB7FEB736969C
S1135AA00FB6F894FEBF0FBEEDBFC4010E94CE0333
S1135AB01F3F39F480E29AE00E94CE03C0E0D0E0B8
S1135AC033C0112339F48EE49AE00E94CE03CBED67
S1135AD0D9E12AC08D2D902F612F0E94D52CEC0185
S1135AE0009759F485EE99E1612F0E94D52CEC01C1
S1135AF0009719F480E69AE015C008851985011508
S1135B00110571F080E99AE00E94CE03D7018D91CE
S1135B109C91119701968D939C93D02E012FA5CF24
S1135B2087EC9AE00E94CE03CE01DF91CF911F91C2
S1135B300F91FF90EF90DF90BF90AF909F908F9068
S1135B407F906F90089583E59CE16CEE7AE041EFDD
S1135B505AE00E94133081E08093852610928D26AE
S1135B601092862610928F2610928E2610928826E6
S1135B701092872610928A261092892686EF9AE040
S1135B800E94CE0310928C2610928B2608950F93B8
S1135B901F9300918526033009F49BC0043030F430
S1135BA0013071F0023009F0A9C146C0053009F492
S1135BB0D4C0053008F4B3C0063009F09FC112C147
S1135BC089E09BE063E80E9479368233C9F083332D
S1135BD020F4813309F092C106C0813431F182345A
S1135BE009F08CC11BC08EE09BE00E94CE0381EFC4
S1135BF09AE065E27BE00E94DA280093862610C1D1
S1135C008AE29BE00E94CE0381EF9AE065E27BE0AA
S1135C100E94DA2882E0809386262EC180E49BE0ED
S1135C200E94CE030E94043069C18EE59BE00E946D
S1135C30CE030093852662C180918626813019F0B7
S1135C408230D1F411C083E59CE10E94D62B90935D
S1135C50882680938726892B79F483E59CE10E942A
S1135C60A62B0093852608C083E59CE10E94B12CF5
S1135C70909388268093872600D000D000D0EDB77B
S1135C80FEB7319604E519E2ADB7BEB712961C9380
S1135C900E93119782E89BE09383828380918726F9
S1135CA0909188260196958384830E9448458DB7F8
S1135CB09EB706960FB6F8949EBF0FBE8DBFC8015F
S1135CC00E94CE038CEE9AE069E97BE00E94DA2818
S1135CD0D2C080918626813021F0823009F0BEC086
S1135CE013C080918726909188260E94542A81EFC0
