:100000000C94EC010C940B020C940B020C940B025C
:100010000C940B020C940B020C940B020C940B022C
:100020000C940B020C940B020C940B020C940B021C
:100030000C940B020C941E020C940B020C940B02F9
:100040000C940B020C940B020C940B020C940B02FC
:100050000C9440020C940B020C940B020C940B02B7
:100060000C940B020C940B020C940B020C940B02DC
:100070000C942D020C940B020C940B020C940B02AA
:100080000C940B020C940B020C940B02F317F61752
:10009000F917FC17FF170218051808180B180E1887
:1000A0001118141817181A181D18201823182618B4
:1000B00029182C182F183218351838183B183E18E4
:1000C0004D6F64652066696C6520666F756E6400AF
:1000D0004D6F64652066696C65206E6F7420666F75
:1000E000756E6400534142542074657374696E6781
:1000F0002E2E2E004572726F7220696E69746961CE
:100100006C697A696E6720565331303533202D2063
:10011000434F44452000565331303533204D503342
:1001200020636869702073756365737366756C6CA2
:100130007920696E697469616C697A656400464109
:100140005433322066696C652073797374656D2051
:1001500064657465637465642E2E2E0046415433C5
:1001600032206E6F7420666F756E642100556E6B61
:100170006E6F776E2053442043617264204465742F
:100180006563746564005374616E646172642043D6
:1001900061706163697479204361726420285665D7
:1001A0007220322E7829204465746563746564007A
:1001B00048696768204361706163697479204361AD
:1001C0007264204465746563746564005374616E81
:1001D0006461726420436170616369747920436172
:1001E0007264202856657220312E78292044657467
:1001F0006563746564004361726420496E69746963
:10020000616C697A6174696F6E206661696C65649E
:100210002E2E0053442063617264206E6F7420643C
:10022000657465637465642E2E00202046696C65D4
:1002300020616C7265616479206578697374696E98
:10024000672C20617070656E64696E6720646174EC
:10025000612E2E00496E76616C69642066696C655A
:100260004E616D652E2E004572726F7220696E2090
:1002700067657474696E6720636C7573746572006A
:100280004572726F7220696E2067657474696E675B
:1002900020636C7573746572004572726F722069A9
:1002A0006E2067657474696E6720636C757374651E
:1002B00072004572726F7220696E2067657474698E
:1002C0006E6720636C757374657200524F4F5400F3
:1002D000444952002020200046494C45002020205F
:1002E0000046696C652064656C6574656421004432
:1002F000656C6574696E672E2E0046696C652064B6
:100300006F6573206E6F7420657869737421005671
:100310006F6C20444F574E20707265737365640094
:10032000566F6C2055502070726573736564004D74
:100330006F646520322070726573736564004D6F61
:1003400064652031207072657373656400456E7456
:1003500065722032207072657373656400456E7437
:1003600065722031207072657373656400416E613F
:100370006C6F6720496E707574206368616E6E657E
:100380006C2C4D53422C4C5342203A00416E642059
:10039000746865206D6F646573206172653B200031
:1003A0004E756D626572206F66206D6F6465732097
:1003B00073656C65637465643A2000534142542D43
:1003C0004641494C00534142542D4F4B005341424A
:1003D000542D76322E31000011241FBECFEFD0E411
:1003E000DEBFCDBF13E0A0E0B1E0E0E5F9E300E05F
:1003F0000BBF02C007900D92AA37B107D9F717E0DB
:10040000AAE7B3E001C01D92A532B107E1F70E944F
:100410009E020C94A61C0C9400008091F105882388
:1004200039F45D985E985F9881E08093F1050895B6
:100430005D9A5E9A5F9A1092F10508951F920F924D
:100440000FB60F9211248F9381E08093A5038F91B3
:100450000F900FBE0F901F9018951F920F920FB61E
:100460000F9211248F938091CE008093FF0681E03C
:10047000809389038F910F900FBE0F901F90189556
:100480001F920F920FB60F9211248F938091C60086
:100490008093EC0581E08093FB058F910F900FBE58
:1004A0000F901F9018951092A50312B88FEF81B985
:1004B00012B88AB1806E8AB9109280008DE0809364
:1004C00081008CE093E09093890080938800809174
:1004D0006F00826080936F000E9413030E949C0350
:1004E0000E94C20578941092D0058DE00E94E4032A
:1004F0008AE00E94E40384EE90E00E94EC038DE029
:100500000E94E4038AE00E94E40381E00E94F50B6C
:100510000E945016882319F480ED90E002C080EC10
:1005200090E00E94EC038DE00E94E4038AE00E94C8
:10053000E40380E091E00E9406040895EF92FF92A8
:100540000F931F93CF93DF930E9453028DE00E947D
:10055000E4038AE00E94E4038DE00E94E4038AE061
:100560000E94E403CEEFD5E088E0E82E81E0F82E8B
:100570000AE210E000D000D000D0EDB7FEB731960F
:10058000ADB7BEB71296DC93CE931197F382E28299
:10059000158304830E94CF198DB79EB706960FB6B8
:1005A000F8949EBF0FBE8DBFCE010E94F9038091CB
:1005B0007A038F5F80937A038150853610F0109212
:1005C0007A038091A503882311F01092A5038091EE
:1005D0008903882311F00E9429038091FB05882359
:1005E00011F00E94AC0380918103882311F00E94D6
:1005F0000B198091CF03882319F080E00E94A51584
:1006000080918403882361F08AE893E00E941B13A1
:1006100080E091E00E9406048AE893E00E941B13A8
:100620000E947D14A7CFE9ECF0E010821092C80080
:1006300086E08093CA0089E18093CC001092CD00BF
:1006400088E980831092090710920A071092CF035D
:1006500008951092890380910A078823D9F4209184
:10066000FF062093080790910707909306072093B1
:1006700007079535F1F52934E1F581E080930A0704
:100680009093D3052093D40582E0809305071092C0
:100690000907089580910907909105078823A1F41F
:1006A000923079F48091FF0680930B078091FF06CA
:1006B0008093D50581E08093090783E08093050747
:1006C000089510920A070895E92FF0E08091FF063F
:1006D000ED52FA4F80839F5F9093050780910B073F
:1006E000981739F481E08093CF0310920A07109293
:1006F00009070895982F8091C80085FFFCCF90933B
:10070000CE000895FC0107C08091C80085FFFCCF92
:1007100031969093CE0094919923B1F70895FC01FE
:1007200007C08091C80085FFFCCF31969093CE0022
:1007300090819923B1F70895E1ECF0E010821092D6
:10074000C00086E08093C20089E18093C4001092CB
:10075000C50088E9808308951092FB0580911107F8
:100760008823B9F42091EC0520930F0790910E0790
:1007700090930D0720930E07903521F5233411F542
:1007800081E0809311079093A7032093A80382E050
:1007900017C08091EC058D3049F48091100780934B
:1007A000FD0581E08093810310921107809110076D
:1007B000E82FF0E09091EC05E955FC4F90838F5FB6
:1007C0008093100780E00895982F8091C00085FFE6
:1007D000FCCF9093C6000895FC0107C08091C00033
:1007E00085FFFCCF31969093C60094919923B1F781
:1007F0000895FC0107C08091C00085FFFCCF3196B1
:100800009093C60090819923B1F70895AF92BF925B
:10081000CF92DF92EF92FF920F931F93CF93DF93CC
:100820007C018AE893E00E949A19C0E0D0E006C0FB
:10083000F50180837801C6010E949A19F701819120
:100840008F019AE8C92E93E0D92E5601AC0EBD1E39
:1008500021968E3269F700D000D081E391E0EDB7A8
:10086000FEB792838183D482C3820E9488190F903D
:100870000F900F900F90C6010E949A19F701808186
:10088000F5018083DE01AC0DBD1DF80181918C93D3
:10089000DE01A557BC4FE80189818C9381811196B7
:1008A0008C9381E080938403DF91CF911F910F910E
:1008B000FF90EF90DF90CF90BF90AF9008951F937F
:1008C000182F809312070E94B30583E00E94D4057D
:1008D000812F0E94D4050E94DA0590E090937C035A
:1008E00080937B030E94DA0590E090937E038093CF
:1008F0007D0380917B0390917C0320917D03309157
:100900007E03982F8827820F931F909380038093F4
:100910007F030E94A50520917F0330918003C901C8
:100920001F9108951F93182F709314076093130756
:10093000809312070E94B30582E00E94D405812FA4
:100940000E94D405809114070E94D405809113075A
:100950000E94D4050E94A5051F910895CF93DF93AF
:10096000809115079091160781509140909316073A
:10097000809315078091150790911607825091403A
:1009800018F0C0E0D0E014C081E091E09093160729
:100990008093150717C060911507709116078BE0BB
:1009A0000E949204CB30D10511F480E00CC0219656
:1009B0008BE00E945F042091150730911607821783
:1009C000930749F781E0DF91CF910895CF93DF93AB
:1009D00080911507909116078F5F9E4F9093160791
:1009E0008093150780911507909116078E5F9E4F93
:1009F00018F4C0E0D0E014C08EEF9EEF909316077D
:100A00008093150717C060911507709116078BE04A
:100A10000E949204CB30D10511F480E00CC02196E5
:100A20008BE00E945F042091150730911607821712
:100A3000930749F781E0DF91CF91089580E064E06A
:100A400078E00E94920480E49CE90197F1F7089510
:100A50001F93182F0E94AE05812F0E94D4050E947B
:100A6000A5051F9108950F931F930E94A5052C982B
:100A700000E41CE9C8010197F1F72C9A0E94CD050A
:100A8000C8010197F1F700E00AC083E060E078E96F
:100A90000E9492040B3011F481E054C00F5F83E098
:100AA0000E945F048050984981F780E49CE9019797
:100AB000F1F700E00AC08BE06EEF7EEF0E94920437
:100AC0000B3011F482E03EC00F5F8BE00E945F04A8
:100AD0008E5F9E4F81F785E065E47CEA0E94920478
:100AE00000E00AC08BE068E278E20E9492040B30DA
:100AF00011F483E027C00F5F8BE00E945F0428E2BF
:100B00008832920779F7909316078093150700E0D3
:100B10000AC080E060E078E00E9492040B3011F49B
:100B200084E010C00F5F80E00E945F048050984016
:100B300081F780E49CE90197F1F70E941E050E946D
:100B4000B80580E01F910F91089585B1876085B940
:100B5000089585B1876085B92898089585B1876023
:100B600085B92A98089585B1876085B9299808952F
:100B70008CB58D7F8CBD8CB58E7F8CBD8DB5816025
:100B80008DBD089584B1876184B9239887EB84B9BA
:100B900080E58CBD0E94B80508958CB583608CBD3E
:100BA0008DB58E7F8DBD08958EBD0DB407FEFDCF32
:100BB0008EB508958FEF8EBD0DB407FEFDCF8EB5B7
:100BC0000895DF92EF92FF920F931F93D82E7A0130
:100BD0008B018091EB058823B9F48D2D81518230F2
:100BE00060F088E1D81649F089E1D81631F080E24A
:100BF000D81619F081E2D81639F439E0EE0CFF1C52
:100C0000001F111F3A95D1F728988D2D80640E94FE
:100C1000D405812F9927AA27BB270E94D405C80194
:100C2000AA27BB270E94D405BB27A12F902F8F2D69
:100C30000E94D4058E2D0E94D40588E0D81611F4A8
:100C400087E801C085E90E94D40510E002C0115078
:100C5000D1F00E94DA05082F8F3FC9F3882399F459
:100C60008AE3D81681F40E94DA0586FF04C081E089
:100C70008093EB0502C01092EB050E94DA050E94FA
:100C8000DA050E94DA050E94DA05289A802F1F9162
:100C90000F91FF90EF90DF900895AF92BF92CF92A7
:100CA000DF92EF92FF920F931F937B018C0159010A
:100CB0006A0180E2B801A7010E94E1058823B9F426
:100CC0000894E108F10801091109EA0CFB1C0C1D4C
:100CD0001D1D81E2B801A7010E94E105882339F4B6
:100CE00086E240E050E060E070E00E94E1051F9184
:100CF0000F91FF90EF90DF90CF90BF90AF9008954D
:100D00001F93CF93DF9310E08FEF0E94D4051F5FF6
:100D10001A30D1F72898C0E0D0E080E040E050E001
:100D200060E070E00E94E1052196C132D10511F426
:100D300081E056C0813089F7289A8FEF0E94D40550
:100D40008FEF0E94D405C0E0D0E088E04AEA51E08D
:100D500060E070E00E94E1052196CF3FD10529F4C3
:100D600081E08093F90511E003C0813071F712E052
:100D7000C0E0D0E087E340E050E060E070E00E9437
:100D8000E10589E240E050E060E070E40E94E105A6
:100D90002196CF3FD10511F482E022C0882351F77C
:100DA0001092EB051230E1F4C0E0D0E08AE340E0BD
:100DB00050E060E070E00E94E1052196CF3FD10550
:100DC00019F41092F90502C0882381F78091EB0590
:100DD000813011F482E001C083E08093F90580E066
:100DE000DF91CF911F910895CF93DF93AB01BC01A9
:100DF00088E10E94E105882311F0982F3FC02898D0
:100E00008EEF0E94D405C0E0D0E0FE01E053FC4F1D
:100E100080810E94D405219682E0C030D807A9F7CE
:100E20008FEF0E94D4058FEF0E94D4050E94DA054F
:100E3000982F8F71853041F0289A20C08FEFCF3FD7
:100E4000D80791F0219602C0C0E0D0E00E94DA05F8
:100E50008823A1F3289A8FEF0E94D405289808C010
:100E60008FEFCF3FD80719F4289A91E007C0219659
:100E70000E94DA058823A1F3289A90E0892FDF9158
:100E8000CF9108951F93CF93DF93AB01BC0181E114
:100E90000E94E105182F882309F52898C0E0D0E0CA
:100EA00005C0219719F4289A11E018C00E94DA05AC
:100EB0008E3FB9F7C0E0D0E00E94DA05FE01E053B2
:100EC000FC4F8083219682E0C030D807A9F70E94AA
:100ED000DA050E94DA050E94DA05289A812FDF914F
:100EE000CF911F910895EF92FF920F931F9320913E
:100EF000D1053091D205E0909703F09098030091CE
:100F0000990310919A03625070408040904040E0F5
:100F100050E00E9421199B01AC012E0D3F1D401F86
:100F2000511FB901CA011F910F91FF90EF900895D1
:100F30000F931F93DF93CF93CDB7DEB72B970FB6E9
:100F4000F894DEBF0FBECDBF8C01582FA12FFC013E
:100F500040E080818E3219F4493030F00EC04F5F8E
:100F600031964C30B1F709C0BE016F5F7F4F852FBE
:100F70009A2F9C01F901DB0108C084E592E00E94F0
:100F8000EC0381E052C081918D938E2F851B8417D5
:100F9000D0F3842F9E012F5F3F4F90E205C0F901EF
:100FA000E80FF11D90838F5F8830C9F7242F2F5FE2
:100FB000AE014F5F5F4F30E2F801E20FF11D90810B
:100FC000992359F0FA01E80FF11D90832F5F07C0B4
:100FD000FA01E80FF11D30838F5F8B30C8F38F5F0C
:100FE0008B3050F39E01245F3F4FFB019081892F8E
:100FF00081568A3110F4905290836F5F7F4F621751
:10100000730799F720E030E0AE014F5F5F4FF801C2
:10101000E20FF31FDA01A20FB31F8C9180832F5FC1
:101020003F4F2B30310599F780E02B960FB6F8949F
:10103000DEBF0FBECDBFCF91DF911F910F910895FD
:101040008F929F92AF92BF92CF92DF92EF92FF92D8
:101050000F93DF93CF93CDB7DEB764970FB6F894B5
:10106000DEBF0FBECDBF982E6A017B01DE01119657
:10107000EDE3F1E084E101900D928150E1F70CE0A5
:101080008CE2882E053011F0093029F4FE01E00FC2
:10109000F11D808201505E01A00EB11CC701B60196
:1010A0002AE030E040E050E00E9440196063F50122
:1010B0006083C701B6012AE030E040E050E00E94C2
:1010C0004019C901DA016C017D01C114D104E104A8
:1010D000F10411F00150B1F6F1E09F1611F48BE428
:1010E0008E87CE0101960E94F90364960FB6F8949C
:1010F000DEBF0FBECDBFCF91DF910F91FF90EF907C
:10110000DF90CF90BF90AF909F908F9008956F9297
:101110007F928F929F92AF92BF92CF92DF92EF9287
:10112000FF920F931F9360783B014C0122E0660C05
:10113000771C881C991C2A95D1F75B016C0150C063
:10114000E090F205F090F30520919F033091A00309
:1011500000E010E08091E7059091E805A091E90595
:10116000B091EA05E80EF91E0A1F1B1F40E050E08F
:10117000C401B3010E944019E20EF31E041F151FA3
:10118000C801B7010E94420760E0E62FF0E0EE0FD1
:10119000FF1FEE0FFF1FE053FC4F80819181A28162
:1011A000B381BF700097A105B10539F4A60195017F
:1011B000260F311D411D511D25C06F5F603829F775
:1011C00080E890E0A0E0B0E0A80EB91ECA1EDB1EC9
:1011D00080E092E0A0E0B0E0680E791E8A1E9B1EBF
:1011E0008091A1039091A203A091A303B091A403C5
:1011F000A816B906CA06DB0608F4A2CF20E030E044
:1012000040E050E0B901CA011F910F91FF90EF90AB
:10121000DF90CF90BF90AF909F908F907F906F9016
:101220000895CF92DF92EF92FF920F931F93D82EE3
:10123000C62E79018A016091E7057091E8058091D9
:10124000E9059091EA056F5F7F4F8F4F9F4F0E9496
:1012500042078091D0039091D103A091D203B09125
:10126000D30382559245A146B14409F054C0809100
:10127000B4059091B505A091B605B091B705825718
:101280009247A144B14609F046C08091CC059091A7
:10129000CD05A091CE05B091CF0580509040A545D9
:1012A000BA4AC9F5CC20A9F481E0D81649F42091B6
:1012B000B8053091B9054091BA055091BB052FC0D2
:1012C0002091BC053091BD054091BE055091BF05F0
:1012D00026C021E0D21649F4E092B805F092B90593
:1012E0000093BA051093BB0508C0E092BC05F092CC
:1012F000BD050093BE051093BF056091E705709191
:10130000E8058091E9059091EA056F5F7F4F8F4F67
:101310009F4F0E94F4062FEF3FEF4FEF5FEFB901B1
:10132000CA011F910F91FF90EF90DF90CF90089529
:10133000DF92EF92FF920F931F93D82EDB01CA0129
:10134000E9E0B695A79597958795EA95D1F75170FD
:1013500060707070411551056105710519F4AC019B
:10136000BD0106C0AC01BD014F5F5F4F6F4F7F4FA6
:10137000DB01CA0133E0B695A795979587953A9515
:10138000D1F747705070607070704115510561055C
:10139000710519F47C018D0107C07C018D01089451
:1013A000E11CF11C011D111D8091FE068823D9F05E
:1013B00081E060E020E030E040E050E00E94110970
:1013C000DD2039F49B01AC012E0D3F1D401F511F44
:1013D00006C09B01AC012E193F09400B510B81E067
:1013E00061E00E9411091F910F91FF90EF90DF9033
:1013F00008952F923F924F925F926F927F928F92B9
:101400009F92AF92BF92CF92DF92EF92FF920F9393
:101410001F932091A1033091A2034091A303509107
:10142000A4036091D1057091D20580E090E00E9404
:1014300021195B016C011AE0D694C794B794A79464
:101440001A95D1F7E0909F03F090A0038DE00E94E1
:10145000E4038AE00E94E4038DE00E94E4038AE052
:101460000E94E40300E010E0C601B501A801970165
:101470000E942119AB01BC0181E00E94200881E09B
:1014800060E020E030E040E050E00E9411093B01C4
:101490004C018091A1039091A203A091A303B0916C
:1014A000A40386159705A805B90508F07CC010921D
:1014B000FE06A090C503B090C603C090C703D090AD
:1014C000C803B2E0AA0CBB1CCC1CDD1CBA95D1F73A
:1014D000662477244301222433242101E090F2057D
:1014E000F090F30520919F033091A00300E010E0FD
:1014F0008091E7059091E805A091E905B091EA0592
:10150000E80EF91E0A1F1B1F40E050E0C601B5019E
:101510000E944019E20EF31E041F151FC801B701F7
:101520000E944207A201910160E070E0FB01E053DC
:10153000FC4F80819181A281B381BF700097A1058A
:10154000B10529F40894611C711C811C911C2F5F4A
:101550003F4F4F4F5F4F8091A1039091A203A09105
:10156000A303B091A4030296A11DB11D281739074A
:101570004A075B07C1F0C901821993096C5F7F4F6D
:1015800002E06030700791F6E12CA2E0FA2E012D06
:10159000112DAE0CBF1CC01ED11E8038910518F055
:1015A00019012A019BCF8091FE06882331F481E046
:1015B00061E0A40193010E94110981E08093FE067D
:1015C0002091D1053091D20540E050E0C401B30133
:1015D0000E942119FAE09695879577956795FA9577
:1015E000D1F720919F033091A00340E050E00E948A
:1015F0002119AB01BC0181E00E9420081F910F91CD
:10160000FF90EF90DF90CF90BF90AF909F908F9022
:101610007F906F905F904F903F902F9008956F92C2
:101620007F928F929F92AF92BF92CF92DF92EF9272
:10163000FF920F931F931092E7051092E805109206
:10164000E9051092EA0560E070E080E090E00E9419
:1016500042078091D003893E19F18B3E09F18091B8
:10166000CE059091CF0585559A4A09F0B0C060919A
:1016700096057091970580919805909199056093D2
:10168000E7057093E8058093E9059093EA050E94C9
:1016900042078091D003893E19F08B3E09F097C034
:1016A0008091DB039091DC039093A00380939F03D0
:1016B0008091DD0390E09093D2058093D105A090B6
:1016C000DE03B090DF03B092F305A092F2058091A3
:1016D000FC039091FD03A091FE03B091FF03809362
:1016E000C5039093C603A093C703B093C803E090CB
:1016F000F205F090F3056091E00370E080E090E087
:101700002091F4033091F5034091F6035091F703D3
:101710000E9421193B014C0100E010E08091EC0394
:101720009091ED03A091EE03B091EF03E80EF91E46
:101730000A1F1B1FE60CF71C081D191DE0929703DA
:10174000F09298030093990310939A032091D10586
:101750003091D205CC24DD246091F0037091F10327
:101760008091F2039091F3036A197B098C099D091A
:10177000661977098809990940E050E00E944019EC
:10178000C901DA018093A1039093A203A093A3035C
:10179000B093A40381E060E020E030E040E050E05E
:1017A0000E9411092091A1033091A2034091A3034B
:1017B0005091A403261737074807590718F41092C9
:1017C000FE0603C081E08093FE0680E001C081E058
:1017D0001F910F91FF90EF90DF90CF90BF90AF904F
:1017E0009F908F907F906F9008951F93CF93DF937A
:1017F000182F1092F905C0E0D0E00E9480068823DF
:1018000021F02196CA30D105C1F7112309F45FC038
:10181000882371F0813029F483E192E00E94EC0387
:1018200006C0823021F486EF91E00E94EC03FFCFE6
:101830008091F905823039F0833041F0813049F4EC
:101840008CEC91E008C080EB91E005C086E891E067
:1018500002C08DE691E00E94EC0380ED97E00197D5
:10186000F1F70E940F0B882349F08DE00E94E403FA
:101870008AE00E94E4038CE591E008C08DE00E94BC
:10188000E4038AE00E94E4038EE391E00E94EC030B
:101890008DE00E94E4038AE00E94E4030E94330585
:1018A000182F882329F486E191E00E94EC0308C0F8
:1018B00084EF90E00E94EC03812F805C0E94E4039F
:1018C0008DE00E94E4038AE00E94E4030AC08111D3
:1018D000FFCF80ED97E00197F1F70E940F0B0E9478
:1018E0003305DF91CF911F9108954F925F926F92D0
:1018F0007F928F929F92AF92BF92CF92DF92EF92A0
:10190000FF920F931F93CF93DF935B016C01842EA3
:10191000280139018091F2059091F30502E0AA0CAB
:10192000BB1CCC1CDD1C0A95D1F720919F03309184
:10193000A0037C0100E010E08091E7059091E805AC
:10194000A091E905B091EA05E80EF91E0A1F1B1FD8
:1019500040E050E0C601B5010E944019E20EF31EBE
:10196000041F151FC0919F03D091A0039924C801A3
:10197000B7010E944207882321F093948AE09816C9
:10198000B1F79E0140E050E0C601B5010E94401948
:10199000FB01E053FC4F882031F4208131814281EA
:1019A00053815F700CC04082518262827382C80191
:1019B000B7010E94F40620E030E040E050E0B901B9
:1019C000CA01DF91CF911F910F91FF90EF90DF90AF
:1019D000CF90BF90AF909F908F907F906F905F90CF
:1019E0004F9008952F923F924F925F926F927F9205
:1019F0008F929F92AF92BF92CF92DF92EF92FF921F
:101A00000F931F93DF93CF93CDB7DEB72A970FB60F
:101A1000F894DEBF0FBECDBF8D837F836E83A09011
:101A2000C503B090C603C090C703D090C8038150CF
:101A300088872091D1053091D205E0909703F090EE
:101A400098030091990310919A03C601B501625061
:101A500070408040904040E050E00E9421191B01FE
:101A60002C012E0C3F1C401E511E6624772443017E
:101A700060C1D401C301820D931DA41DB51D8983CE
:101A80009A83AB83BC83BC01CD010E94420740E234
:101A9000E42EF12C3EC18A0100531C4FF701E053A4
:101AA000FC4FB0978081B096882341F49D8191507E
:101AB000923008F068C18AEF92E063C1853E09F474
:101AC00024C1759780818F3009F41FC1A885A23089
:101AD00008F0D2C020E030E0C801820F931FAE8131
:101AE000BF81A20FB31FFC0190818C91981709F060
:101AF0000CC1822F8F5F2F5F3F4F2B30310561F775
:101B00008B3009F002C1FD81F13009F03FC08981BD
:101B10009A81AB81BC818093000790930107A093C9
:101B20000207B0930307CA01A0E0B0E080938503E9
:101B300090938603A0938703B0938803D8015496AB
:101B40008D919C915597A0E0B0E0DC019927882702
:101B5000F801228D338D40E050E0822B932BA42B93
:101B6000B52B8093F4059093F505A093F605B093FB
:101B7000F705848D958DA68DB78D80939B039093EB
:101B80009C03A0939D03B0939E03FFC08DE00E9431
:101B9000E4038AE00E94E4038FEE92E00E94EC03EB
:101BA0008DE00E94E4038AE00E94E4038DE00E943D
:101BB000E4038AE00E94E403D80154968D919C913D
:101BC0005597A0E0B0E05C0199248824F801828D4B
:101BD000938DA0E0B0E0882A992AAA2ABB2A85EE34
:101BE000808369817A818B819C810E94F406D8016F
:101BF0005C964D915D916D917C915F9780E00E9424
:101C0000980982E060E020E030E040E050E00E948F
:101C1000110986169706A806B90630F482E061E03D
:101C2000A50194010E941109C501B40140E000E042
:101C300010E020E030E00E94750CF62EE72ED82E42
:101C4000C92EC501B40141E000E010E020E030E021
:101C50000E94750C8F2D9E2DAD2DBC2D4C015D016C
:101C6000B7EF8B16BFEF9B06BFEFAB06BFE0BB061F
:101C7000D8F281EE92E085C08DE00E94E4038AE014
:101C80000E94E4031A8619860BC0E985E73019F42F
:101C900080E20E94E40389859A8501969A87898764
:101CA000E985FA85E00FF11F80810E94E403A98590
:101CB000BA851A9751F78DED92E00E94EC038701E7
:101CC00000531C4F05511040F80180810B5E1F4FDF
:101CD0008031B9F0883019F48BEC92E014C088EDB3
:101CE00092E00E94EC0384ED92E00E94EC03F80184
:101CF0003497408151816281738180E00E94200885
:101D000004C080ED92E00E94EC0380E290E0E80ED7
:101D1000F91EA7014052504080919F039091A0036B
:101D20004817590708F4B7CE0894611C711C811C30
:101D3000911C8091D1059091D205A0E0B0E0681689
:101D400079068A069B0608F494CEC601B50140E0E8
:101D500000E010E020E030E00E94750C5B016C01B7
:101D600097EFA9169FEFB9069FEFC9069FE0D90626
:101D700050F4A114B104C104D10409F05ACE82EB8D
:101D800092E00E94EC0300E010E0C8012A960FB632
:101D9000F894DEBF0FBECDBFCF91DF911F910F91A1
:101DA000FF90EF90DF90CF90BF90AF909F908F907B
:101DB0007F906F905F904F903F902F900895CF93BA
:101DC000DF93EC010E949807882321F482E0BE0192
:101DD0000E94F20CDF91CF9108952F923F924F9283
:101DE0005F926F927F928F929F92AF92BF92CF92AB
:101DF000DF92EF92FF920F931F93DF93CF93CDB7B4
:101E0000DEB728970FB6F894DEBF0FBECDBF8C01AA
:101E10007E836D830E949807882311F081E0A8C01B
:101E200081E0B8010E94F20C9C01009711F482E05D
:101E30009FC0DC0154968D919C915597A0E0B0E035
:101E40006C01BB24AA24F901828D938DA0E0B0E03F
:101E5000A82AB92ACA2ADB2AD9015C962D903D907E
:101E60004D905C905F9729823A824B825C8222245B
:101E7000332421012091D1053091D205E0909703C0
:101E8000F09098030091990310919A03C601B5014F
:101E9000625070408040904040E050E00E94211924
:101EA0003B014C016E0C7F1C801E911E10E040C057
:101EB000C401B301610F711D811D911D0E94420774
:101EC000A201910160E0D201C10180509E4FAF4F4D
:101ED000BF4F29803A804B805C8022153305440532
:101EE000550508F061E02F5F3F4F4F4F5F4F2817B8
:101EF00039074A075B0769F70FC0EF81F885E053A0
:101F0000FC4F8081AD81BE818D93BE83AD83EF8117
:101F1000F8853196F887EF838F81988580509240BD
:101F200060F3662311F080E023C01F5F19012A01CE
:101F30002091D1053091D205812F90E0821793072F
:101F400008F4B6CFC601B50140E000E010E020E0A3
:101F500030E00E94750C5B016C0161157105810513
:101F6000910509F087CF80E892E00E94EC0383E0BE
:101F700028960FB6F894DEBF0FBECDBFCF91DF918C
:101F80001F910F91FF90EF90DF90CF90BF90AF9097
:101F90009F908F907F906F905F904F903F902F9089
:101FA00008952F923F924F925F926F927F928F92FD
:101FB0009F92AF92BF92CF92DF92EF92FF920F93D8
:101FC0001F93DF93CF9300D000D0CDB7DEB7E82EBC
:101FD0008B01CB010E949807882311F082E094C006
:101FE00081E0B8010E94F20C9C01009709F48BC0BB
:101FF00022242394E21411F481E086C0DC0154967B
:102000008D919C915597A0E0B0E06C01BB24AA246F
:10201000F901828D938DA0E0B0E0A82AB92ACA2ADE
:10202000DB2AD9015C962D903D904D905C905F9796
:1020300029823A824B825C8222243324210120911E
:10204000D1053091D205E0909703F090980300916C
:10205000990310919A03C601B50162507040804007
:10206000904040E050E00E9421193B014C016E0C71
:102070007F1C801E911E10E028C0C401B301610FB7
:10208000711D811D911D0E944207D201C10160E0B6
:10209000A201910120503E4F4F4F5F4F29803A805F
:1020A0004B805C8082159305A405B50508F061E0BE
:1020B0000196A11DB11D82179307A407B50771F7FB
:1020C000662309F51F5F1C012D012091D105309178
:1020D000D205812F90E08217930778F2C601B501EF
:1020E00040E000E010E020E030E00E94750C5B0171
:1020F0006C01611571058105910509F0A0CF89E991
:1021000092E00E94EC0380E00F900F900F900F90F0
:10211000CF91DF911F910F91FF90EF90DF90CF90C3
:10212000BF90AF909F908F907F906F905F904F90F7
:102130003F902F9008952F923F924F925F926F920F
:102140007F928F929F92AF92BF92CF92DF92EF9247
:10215000FF920F931F93BC0181E00E94D10F813049
:1021600009F055C08AE292E00E94EC036090F40509
:102170007090F5058090F6059090F705AA24BB2491
:102180006501C401B30140E000E010E020E030E070
:102190000E94750C6F3F2FEF72072FEF82072FE021
:1021A000920741F00894A11CB11CC11CD11C3B0139
:1021B0004C01E7CF2091D1053091D20560919F036A
:1021C0007091A003E0909F03F090A00380E090E066
:1021D00040E050E00E942119A60195010E942119BA
:1021E0009B01AC0160919B0370919C0380919D03C6
:1021F00090919E03621B730B840B950B00E010E023
:10220000A80197010E944019B22E21E03EC0823001
:1022100009F408C182E060E020E030E040E050E0F6
:102220000E9411099B01AC018091A1039091A2032E
:10223000A091A303B091A40382179307A407B50745
:1022400040F42091C5033091C6034091C7035091DB
:10225000C803CA01B9010E9487083B014C016115FE
:1022600071058105910509F4DDC041E00FEF1FEF15
:102270002FEF3FE00E94750C10929B0310929C037D
:1022800010929D0310929E0320E02B2C33244424B3
:102290005524C401B3016250704080409040222315
:1022A000E1F12091D1053091D205E0909703F090B3
:1022B00098030091990310919A03E20CF31C041DFA
:1022C000151D40E050E00E942119E60EF71E081F80
:1022D000191FE092CA03F092CB030093CC03109332
:1022E000CD036091CA037091CB038091CC03909190
:1022F000CD030E94420720919F033091A00340E04C
:1023000050E060919B0370919C0380919D0390919C
:102310009E030E9440191B2D1FC02091D1053091B2
:10232000D205E0909703F0909803009199031091E3
:102330009A0340E050E00E942119E60EF71E081FA4
:10234000191FE092CA03F092CB030093CC031093C1
:10235000CD0310E060E070E020919B0330919C037E
:1023600040919D0350919E03FB01E053FC4F10826E
:102370006F5F7F4F2F5F3F4F4F4F5F4F82E0603067
:10238000780790F320939B0330939C0340939D0325
:1023900050939E036091CA037091CB038091CC034C
:1023A0009091CD030E94F4061F5F2091D1053091DA
:1023B000D205812F90E08217930761F4C401B30125
:1023C0000E9487086B017C016115710581059105EB
:1023D000A9F428C08091CA039091CB03A091CC03AB
:1023E000B091CD030196A11DB11D8093CA039093B6
:1023F000CB03A093CC03B093CD03ACCFC401B30106
:1024000041E0970186010E94750CC701B60141E0C9
:102410000FEF1FEF2FEF3FE00E94750C20E0360119
:10242000470137CF1F910F91FF90EF90DF90CF9032
:10243000BF90AF909F908F907F906F905F904F90E4
:102440003F902F9008956F927F928F929F92AF92BC
:10245000BF92CF92DF92EF92FF920F931F93CF9391
:10246000DF939C01EB0181E0B9010E94D10F813023
:1024700019F021E030E0CFC0A090F405B090F50550
:10248000C090F605D090F7058EEF9FEFAFEFBFEF4E
:10249000A80EB91ECA1EDB1E6091D1057091D2052F
:1024A000E0909703F09098030091990310919A039C
:1024B00080E090E0A60195010E9421193B014C01AA
:1024C0006E0C7F1C801E911E6091D1057091D2050B
:1024D000E0909703F09098030091990310919A036C
:1024E00080E090E00E942119E60EF71E081F191FD8
:1024F000E092CA03F092CB030093CC031093CD0378
:1025000010E034C0FC01E053FC4F2083019621967B
:10251000A2E080309A0760F16091CA037091CB030A
:102520008091CC039091CD030E94F4061F5F20910F
:10253000D1053091D205812F90E08217930719F4CD
:1025400080E090E018C08091CA039091CB03A091E5
:10255000CC03B091CD030196A11DB11D8093CA0398
:102560009093CB03A093CC03B093CD0380E090E095
:102570002881243239F66881643209F5FC01E05380
:10258000FC4F608304C0FC01E053FC4F10820196B5
:10259000B2E080309B07B8F36091CA037091CB031F
:1025A0008091CC039091CD030E94F40688EE93E0D5
:1025B00028EC30E0F9013197F1F70197D9F7C40120
:1025C000B3010E94420788EE93E028EC30E0F90165
:1025D0003197F1F70197D9F780919B0390919C0374
:1025E000A0919D03B0919E038093EC039093ED0323
:1025F000A093EE03B093EF03C401B3010E94F4066D
:1026000088EE93E028EC30E0F9013197F1F701977B
:10261000D9F720E030E0C901DF91CF911F910F91F0
:10262000FF90EF90DF90CF90BF90AF909F908F90F2
:102630007F906F9008952F923F924F925F926F928A
:102640007F928F929F92AF92BF92CF92DF92EF9242
:10265000FF920F931F93DF93CF93CDB7DEB72A97E7
:102660000FB6F894DEBF0FBECDBF8C01109284036D
:102670000E949807882311F082E0D9C081E0B80158
:102680000E94F20C9C01009709F4D0C0DC01549622
:102690008D919C915597A0E0B0E05C01992488242D
:1026A000F901828D938DA0E0B0E0882A992AAA2AA8
:1026B000BB2AD9015C968D919D910D90BC91A02D66
:1026C00089839A83AB83BC831092FA051D821E8294
:1026D0001F8218862091D1053091D205E090970392
:1026E000F09098030091990310919A03C501B401E9
:1026F000625070408040904040E050E00E942119BC
:102700002B013C014E0C5F1C601E711E33246FC0F8
:10271000C301B201630D711D811D911D0E9442070D
:10272000CD80DE80EF80F8842224D701C60180505E
:102730009E4FAF4FBF4F29813A814B815C81C216BA
:10274000D306E406F50610F0222423940894C11C55
:10275000D11CE11CF11CC816D906EA06FB0659F784
:10276000E0E0F0E08091FA05882329F01092FA0564
:102770000E941E055BC01B9902C08F0118C08F010B
:10278000AF01405E5F4F5A874987F801E053FC4F25
:1027900080810E94280552E00030150709F446C0E8
:1027A0000F5F1F4F89859A850817190771F7809168
:1027B0008903882311F00E9429038091FB05882357
:1027C00011F00E94AC038091CF03882319F081E0BF
:1027D0000E94A51592E00030190710F4F801C2CF4D
:1027E000222021F53394CD82DE82EF82F88620917B
:1027F000D1053091D205832D90E08217930708F41C
:1028000087CFC501B40140E000E010E020E030E0F7
:102810000E94750C4B015C016115710581059105E4
:1028200009F058CF87E692E00E94EC0380E02A96F8
:102830000FB6F894DEBF0FBECDBFCF91DF911F91D1
:102840000F91FF90EF90DF90CF90BF90AF909F904F
:102850008F907F906F905F904F903F902F90089552
:102860000F931F93CF93DF93FC01B2818C010D5F17
:102870001F4F60E070E0B550AB2FA695CA2FD0E097
:10288000AE014F5F5F4F440F551F4E0F5F1F08C0D3
:10289000318120E0828190E0822B932B680F791F99
:1028A0003296E417F507A1F7AA0FFE01EE0FFF1FFE
:1028B000E00FF11FBA1721F0808190E06827792797
:1028C000CB01DF91CF911F910F91089581E0089581
:1028D0008091A603882381F08091D005823039F061
:1028E000833041F0813041F40E94431708950E94E3
:1028F000991708950E94691808958091A603882366
:1029000081F08091D005823039F0833041F0813000
:1029100041F40E947C1708950E94461808950E9471
:10292000A21808959091D005923039F0933041F07B
:10293000913041F40E94531708950E94AB170895F7
:102940000E94791808959091D005923039F0933013
:1029500041F0913041F40E944A1708950E94A21755
:1029600008950E94701808958091D005823039F042
:10297000833041F0813041F40E94491708950E944C
:10298000A11708950E946F1808958091D005823094
:1029900039F0833041F0813041F40E9448170895A6
:1029A0000E94A01708950E946E1808958091D00586
:1029B000823039F0833051F0813061F481E591E06B
:1029C00002C089E591E00E940604089581E691E045
:1029D0000E94060408951F931091D805133009F43E
:1029E0004AC0143030F4113071F0123009F0ABC02D
:1029F00025C0153009F48EC0153008F45AC01630C1
:102A000009F0A1C094C08DE593E00E94EC038DE035
:102A10000E94E4038AE00E94E4038091A6038823D5
:102A200051F48091CE03882309F48DC01093A6033E
:102A30000E94681488C00E94C51485C08DE493E08C
:102A40000E94EC038DE00E94E4038AE00E94E4030C
:102A50008091A603882309F476C08091D905853436
:102A600039F41092A60389E691E00E9406046BC037
:102A70000E94B41468C08EE393E00E94EC038DE0E2
:102A80000E94E4038AE00E94E4038091A603882365
:102A900009F059C08091CE038F5F8093CE0390914F
:102AA000CE038091C903891738F58091CE038150F8
:102AB00018C08FE293E00E94EC038DE00E94E403D3
:102AC0008AE00E94E4038091A6038823E1F58091C7
:102AD000CE0381508093CE038091CE03882361F48E
:102AE00081E08093CE03E091CE03F0E0E654FC4F0A
:102AF00080818093D00527C0E091CE03F0E0E654BA
:102B0000FC4F80818093D00581E08093FA050E947C
:102B1000D61419C080E293E00E94EC038DE00E947D
:102B2000E4038AE00E94E4030E94E6040CC08FE004
:102B300093E00E94EC038DE00E94E4038AE00E948F
:102B4000E4030E94AE041F9108950F931F93DF9337
:102B5000CF93CDB7DEB72A970FB6F894DEBF0FBE7E
:102B6000CDBF182F0091D50583ED95E00E9430145C
:102B7000A02FB0E0FD01EF52FA4F6081AE52BA4F84
:102B80004C91362F20E050E0242B352B82179307F1
:102B900009F074C08091D6058091D705112341F0CA
:102BA000843431F40E94EB1481E08093CF036DC034
:102BB000823489F0833420F4813409F063C006C084
:102BC000843471F0853409F05DC00DC08091D80562
:102BD0000E94A31457C08091D8050E94921452C03D
:102BE0000E94EB144FC08091D80589838091D9054C
:102BF0008A838091DA058B838DE693E00E94EC0353
:102C00002091D8053091D9054091DA058DB79EB74E
:102C10000A970FB6F8949EBF0FBE8DBFEDB7FEB7F3
:102C200031968E010F5F1F4FADB7BEB712961C9342
:102C30000E93119780E791E093838283248315821A
:102C400036831782408711860E94CF198DB79EB7B1
:102C50000A960FB6F8949EBF0FBE8DBFC8010E94A2
:102C6000F9038DE00E94E4038AE00E94E4038DE012
:102C70000E94E4038AE00E94E40304C01092CF03A0
:102C800080E003C01092CF0381E02A960FB6F8943B
:102C9000DEBF0FBECDBFCF91DF911F910F91089581
:102CA000AF92BF92DF92EF92FF920F931F93DF9349
:102CB000CF93CDB7DEB7C956D0400FB6F894DEBF7C
:102CC0000FBECDBF1092C90356E0E52EF12CEC0EDD
:102CD000FD1EF701C7011E2D092FCE0186599F4FFA
:102CE0001192E817F907E1F789E791E0612F702F5A
:102CF0000E94ED0E882309F0B4C0812F902F0E940E
:102D0000F9038DE00E94E4038AE00E94E40390E06E
:102D100043E0A42EB12CAC0EBD1E2EC08E3389F420
:102D20008091C903082F10E0C5010E946219055463
:102D30001C4FD8018C938091C9038F5F8093C90386
:102D400002C0992339F41B821C821D8220E030E0EE
:102D500090E00AC02330310509F483C0F501E20F89
:102D6000F31F80832F5F3F4FF70180818C3309F47D
:102D700091E00894E11CF11CD7018C91843271F62A
:102D800080EA93E00E94EC0319821A822091C90321
:102D900000D000D000D0EDB7FEB731968E010F5FA6
:102DA0001F4FADB7BEB712961C930E93119783E8D1
:102DB00091E093838283248315820E94CF19EDB71B
:102DC000FEB736960FB6F894FEBF0FBEEDBFC80132
:102DD0000E94F9038DE00E94E4038AE00E94E4036C
:102DE0008CE893E00E94EC03EE24FF24D02E012F08
:102DF00026E8A22E21E0B22E26C0F701E554FC4FB2
:102E0000808100D000D000D0EDB7FEB73196ADB7CD
:102E1000BEB71196DC92119712960C93B382A282E0
:102E2000848315820E94CF19EDB7FEB736960FB690
:102E3000F894FEBF0FBEEDBF8D2D902F0E94F903B9
:102E40000894E11CF11C8091C90390E0E816F90692
:102E5000A4F28DE00E94E4038AE00E94E40381E092
:102E600001C080E0C759DF4F0FB6F894DEBF0FBE38
:102E7000CDBFCF91DF911F910F91FF90EF90DF9029
:102E8000BF90AF90089510921907109218070895F7
:102E9000089508958093170782E090E090931907B2
:102EA0008093180708950895809117078333A1F040
:102EB000843328F4813351F08233E9F40AC0853336
:102EC00089F0853360F08633B1F411C08BE891E06E
:102ED0000BC085E991E008C08FE991E005C089EA5F
:102EE00091E002C083EB91E00E94060408958DEB0F
:102EF00091E00E94060408958091180790911907A7
:102F0000009719F00297A1F40BC087EC91E00E94A2
:102F1000060481E090E090931907809318070895C4
:102F20000E94541781E090E090931907809318074E
:102F30000895109219071092180710921B07089510
:102F40000895089580931B0783E090E090931907FC
:102F5000809318070895982F80911B07882341F0CC
:102F600090931A0782E090E09093190780931807D6
:102F7000089580911B078333A1F0843328F48133B3
:102F800051F08233E9F40AC0853389F0853360F06B
:102F90008633B1F411C082ED91E00BC08CED91E06D
:102FA00008C086EE91E005C080EF91E002C08AEF94
:102FB00091E00E940604089584E092E00E940604D5
:102FC000089580911A0790E0FC01E156F040EA3143
:102FD000F10508F056C0EA5BFF4FEE0FFF1F0590AA
:102FE000F491E02D09948EE092E04DC088E192E0EA
:102FF0004AC082E292E047C08CE292E044C086E39D
:1030000092E041C080E492E03EC08AE492E03BC09E
:1030100084E592E038C08EE592E035C088E692E023
:1030200032C082E792E02FC08CE792E02CC086E8A5
:1030300092E029C080E992E026C08AE992E023C0AC
:1030400084EA92E020C08EEA92E01DC088EB92E014
:103050001AC082EC92E017C08CEC92E014C086EDAE
:1030600092E011C080EE92E00EC08AEE92E00BC0BA
:1030700084EF92E008C08EEF92E005C088E093E014
:1030800002C082E193E00E9406040895809118072F
:10309000909119078230910551F08330910581F0AC
:1030A000892BB1F48DE193E00E94060402C00E94D6
:1030B000E11781E090E09093190780931807089535
:1030C0000E94B91781E090E0909319078093180748
:1030D000089510921E0710921D07089508950895EF
:1030E00080931C0782E090E090931E0780931D0759
:1030F0000895089580911C078333A1F0843328F448
:10310000813351F08233E9F40AC0853389F0853385
:1031100060F08633B1F411C088E293E00BC082E323
:1031200093E008C08CE393E005C086E493E002C01E
:1031300080E593E00E94060408958AE593E00E94EA
:103140000604089580911D0790911E07009719F0BD
:103150000297A1F40BC084E693E00E94060481E08C
:1031600090E090931E0780931D0708950E947A189F
:1031700081E090E090931E0780931D0708950F93C0
:103180001F93DF93CF93CDB7DEB764970FB6F89454
:10319000DEBF0FBECDBF8E010F5F1F4FF801CE0106
:1031A00045961192E817F907E1F780E00E94F50BC8
:1031B00023E030E009C0F901E955FC4F8081F801B6
:1031C00081938F012F5F3F4F8091FD0590E028177D
:1031D00039078CF38FE693E0BE016F5F7F4F0E944B
:1031E0002312892B19F485EC93E002C08BEB93E05A
:1031F0000E94EC038DE00E94E4038AE00E94E40355
:1032000064960FB6F894DEBF0FBECDBFCF91DF91AD
:103210001F910F910895109281038091A9038D341D
:1032200069F0883769F48DEC93E00E94EC038DE03F
:103230000E94E4038AE00E94E40308950E94BF18FC
:103240000895629FD001739FF001829FE00DF11DF0
:10325000649FE00DF11D929FF00D839FF00D749F10
:10326000F00D659FF00D9927729FB00DE11DF91FBC
:10327000639FB00DE11DF91FBD01CF011124089519
:10328000A1E21A2EAA1BBB1BFD010DC0AA1FBB1F6A
:10329000EE1FFF1FA217B307E407F50720F0A21BDC
:1032A000B30BE40BF50B661F771F881F991F1A9449
:1032B00069F760957095809590959B01AC01BD0173
:1032C000CF010895FC0188279927E89421912032A5
:1032D000E9F3293010F02E30C8F32B3241F02D32B3
:1032E00039F4689404C00E948019820F911D2191C5
:1032F00020532A30C0F31EF4909581959F4F089576
:103300007AE0979F902D879F802D910D112408952D
:10331000DF93CF93CDB7DEB7FE0135966191719102
:103320008091210790912207AF010E94001ACF914E
:10333000DF9108950F931F93CF93DF938C01E0915A
:103340002107F0912207838181FF21C0C0E0D0E0F6
:103350000DC0E0912107F091220720853185BF0142
:10336000F9010995892B11F0CFEFDFEFF801819179
:103370008F01882371F7E0912107F09122072085C2
:1033800031858AE0BF01F9010995892B11F0CFEF52
:10339000DFEFCE01DF91CF911F910F9108950F9331
:1033A0001F93DF93CF93CDB7DEB72E970FB6F89468
:1033B000DEBF0FBECDBF0D891E8986E08C831A83C8
:1033C00009838FEF9FE79E838D839E01275E3F4F8A
:1033D000CE0101966F89788DA9010E94001A2F8174
:1033E0003885020F131FF80110822E960FB6F8943D
:1033F000DEBF0FBECDBFCF91DF911F910F9108951A
:103400002F923F924F925F926F927F928F929F92F4
:10341000AF92BF92CF92DF92EF92FF920F931F93E2
:10342000DF93CF93CDB7DEB72B970FB6F894DEBFFF
:103430000FBECDBF3C012B015A01FC011782168241
:10344000838181FD03C06FEF7FEFC6C19AE0892EB3
:103450001E010894211C311CF3012381F20123FD7C
:10346000859123FF81912F01882309F4B2C1853210
:1034700039F423FD859123FF81912F01853229F4B1
:1034800090E0B3010E941C1CE7CF982FFF24EE248C
:103490009924FFE1FF15D0F09B3269F09C3228F4AB
:1034A000903259F0933291F40EC09D3249F090332E
:1034B00069F441E024C052E0F52A84E0F82A28C0EB
:1034C00098E0F92A25C0E0E1FE2A22C0F7FC29C0D5
:1034D000892F80538A3070F4F6FE05C0989C902C9A
:1034E0001124980E15C0E89CE02C1124E80EF0E29F
:1034F000FF2A0EC09E3229F4F6FC6BC140E4F42A88
:1035000007C09C3619F450E8F52A02C0983649F4F1
:10351000F20123FD959123FF91912F01992309F049
:10352000B8CF892F8554833018F08052833038F417
:1035300044E050E0A40EB51E5FE359830FC09336FC
:1035400031F0933779F0933509F056C020C0F5017A
:103550008081898342E050E0A40EB51E610101E044
:1035600010E012C0F501C080D180F6FC03C06FEFFF
:103570007FEF02C0692D70E042E050E0A40EB51E5E
:10358000C6010E94111C8C015FE7F52214C0F501F1
:10359000C080D180F6FC03C06FEF7FEF02C0692DC1
:1035A00070E042E050E0A40EB51EC6010E94061C69
:1035B0008C0150E8F52AF3FE07C01AC080E290E0C3
:1035C000B3010E941C1CEA948E2D90E00817190785
:1035D000A8F30EC0F601F7FC8591F7FE81916F010B
:1035E00090E0B3010E941C1CE110EA9401501040CD
:1035F0000115110579F7EAC0943611F0993669F58D
:10360000F7FE08C0F501208131814281538184E0B9
:1036100090E00AC0F501808191819C01442737FD2B
:103620004095542F82E090E0A80EB91E9FE6F92243
:1036300057FF09C050954095309521953F4F4F4F0A
:103640005F4FE0E8FE2ACA01B901A1012AE030E09B
:103650000E94481CD82ED21840C0953729F41F2D3F
:103660001F7E2AE030E01DC01F2D197F9F3661F0BC
:10367000903720F4983509F0ACC00FC0903739F07E
:10368000983709F0A6C004C028E030E00AC01061F5
:1036900014FD146020E130E004C014FD166020E148
:1036A00032E017FF08C0F50160817181828193814A
:1036B00044E050E008C0F50180819181BC0180E0C8
:1036C00090E042E050E0A40EB51EA1010E94481C0B
:1036D000D82ED2188FE7F82EF122F6FE0BC05EEF3F
:1036E000F522D91438F4F4FE07C0F2FC05C08FEEC1
:1036F000F82202C01D2D01C0192DF4FE0DC0FE01DF
:10370000ED0DF11D8081803319F499EEF92208C086
:103710001F5FF2FE05C003C08F2D867809F01F5F82
:103720000F2DF3FC14C0F0FE0FC01E1510F09D2CE1
:103730000BC09D2C9E0C911A1E2D06C080E290E0BD
:10374000B3010E941C1C1F5F1E15C0F304C01E1590
:1037500010F4E11A01C0EE2404FF0FC080E390E0F2
:10376000B3010E941C1C02FF1DC001FD03C088E7BD
:1037700090E00EC088E590E00BC0802F867891F035
:1037800001FF02C08BE201C080E2F7FC8DE290E015
:10379000B3010E941C1C06C080E390E0B3010E94AC
:1037A0001C1C9A94D914C0F3DA94F101ED0DF11DAB
:1037B000808190E0B3010E941C1CDD20A9F706C0A7
:1037C00080E290E0B3010E941C1CEA94EE20C1F755
:1037D00043CEF30166817781CB012B960FB6F89427
:1037E000DEBF0FBECDBFCF91DF911F910F91FF9034
:1037F000EF90DF90CF90BF90AF909F908F907F9091
:103800006F905F904F903F902F900895FC0105902E
:10381000615070400110D8F7809590958E0F9F1FD2
:103820000895FC016150704001900110D8F7809517
:1038300090958E0F9F1F08950F931F93CF93DF9343
:103840008C01EB018B8181FF1BC082FF0DC02E819B
:103850003F818C819D812817390764F4E881F981C3
:103860000193F983E88306C0E885F985802F0995DF
:10387000892B31F48E819F8101969F838E8302C0B4
:103880000FEF1FEFC801DF91CF911F910F910895A6
:10389000FA01AA27283051F1203181F1E8946F9381
:1038A0006E7F6E5F7F4F8F4F9F4FAF4FB1E03ED027
:1038B000B4E03CD0670F781F891F9A1FA11D680FC5
:1038C000791F8A1F911DA11D6A0F711D811D911DF8
:1038D000A11D20D009F468943F912AE0269F11246D
:1038E0003019305D3193DEF6CF010895462F4770D1
:1038F000405D4193B3E00FD0C9F7F6CF462F4F702C
:10390000405D4A3318F0495D31FD4052419302D089
:10391000A9F7EACFB4E0A69597958795779567952F
:10392000BA95C9F700976105710508959B01AC012F
:103930000A2E06945795479537952795BA95C9F756
:10394000620F731F841F951FA01D0895F894FFCF69
:10395000494E542E4D503300536D616C6C2077618D
:10396000766573206372617368696E672061676151
:10397000696E7374207468652073616E6425642EAB
:10398000006166746572206C6F6F700A00202020E1
:1039900020202020202020202020204279746573C0
:1039A000004D44312E4D5033004D44322E4D503396
:1039B000004D44332E4D5033004D4D2E4D503300AD
:1039C00025642C25642C2564004D4F4445532E441A
:1039D00041540025640025642C20004D44315F31A2
:1039E0002E4D5033004D44315F322E4D5033004D3B
:1039F00044315F332E4D5033004D44315F342E4DF2
:103A00005033004D44315F352E4D5033004D44311D
:103A10005F362E4D5033004D4431494E542E4D509B
:103A200033004D44315F312E4D5033004D44315FF2
:103A3000322E4D5033004D44315F332E4D50330004
:103A40004D44315F342E4D5033004D44315F352E9F
:103A50004D5033004D44315F362E4D5033004D44B0
:103A6000325F612E4D5033004D44325F622E4D5017
:103A700033004D44325F632E4D5033004D44325F6E
:103A8000642E4D5033004D44325F652E4D5033004F
:103A90004D44325F662E4D5033004D44325F672EE9
:103AA0004D5033004D44325F682E4D5033004D442D
:103AB000325F692E4D5033004D44325F6A2E4D50B7
:103AC00033004D44325F6B2E4D5033004D44325F16
:103AD0006C2E4D5033004D44325F6D2E4D503300EF
:103AE0004D44325F6E2E4D5033004D44325F6F2E89
:103AF0004D5033004D44325F702E4D5033004D44D5
:103B0000325F712E4D5033004D44325F722E4D5056
:103B100033004D44325F732E4D5033004D44325FBD
:103B2000742E4D5033004D44325F752E4D5033008E
:103B30004D44325F762E4D5033004D44325F772E28
:103B40004D5033004D44325F782E4D5033004D447C
:103B5000325F792E4D5033004D44325F7A2E4D50F6
:103B600033004D44324552312E4D5033004D4432D6
:103B7000494E542E4D5033004D44335F312E4D503D
:103B800033004D44335F322E4D5033004D44335F8C
:103B9000332E4D5033004D44335F342E4D5033009F
:103BA0004D44335F352E4D5033004D44335F362E38
:103BB0004D5033004D4433494E542E4D5033004D3B
:0A3BC0004F4445532E4441540000C9
:00000001FF
